{
	"completed/SimpleBank_ethers..sol": {
		"SimpleBank": {
			"abi": [
				{
					"inputs": [
						{
							"internalType": "contract Token",
							"name": "_tokenContract",
							"type": "address"
						}
					],
					"stateMutability": "nonpayable",
					"type": "constructor"
				},
				{
					"inputs": [
						{
							"internalType": "address",
							"name": "_account",
							"type": "address"
						}
					],
					"name": "checkAddress",
					"outputs": [
						{
							"internalType": "bool",
							"name": "",
							"type": "bool"
						}
					],
					"stateMutability": "view",
					"type": "function"
				},
				{
					"inputs": [],
					"name": "deposit",
					"outputs": [
						{
							"internalType": "uint256",
							"name": "",
							"type": "uint256"
						}
					],
					"stateMutability": "payable",
					"type": "function"
				},
				{
					"inputs": [
						{
							"internalType": "address",
							"name": "_account",
							"type": "address"
						}
					],
					"name": "enroll",
					"outputs": [
						{
							"internalType": "bool",
							"name": "",
							"type": "bool"
						}
					],
					"stateMutability": "nonpayable",
					"type": "function"
				},
				{
					"inputs": [],
					"name": "getBalance",
					"outputs": [
						{
							"internalType": "uint256",
							"name": "",
							"type": "uint256"
						}
					],
					"stateMutability": "view",
					"type": "function"
				},
				{
					"inputs": [],
					"name": "getContracttBalance",
					"outputs": [
						{
							"internalType": "uint256",
							"name": "",
							"type": "uint256"
						}
					],
					"stateMutability": "view",
					"type": "function"
				},
				{
					"inputs": [],
					"name": "getTokenName",
					"outputs": [
						{
							"internalType": "string",
							"name": "",
							"type": "string"
						}
					],
					"stateMutability": "view",
					"type": "function"
				},
				{
					"inputs": [],
					"name": "owner",
					"outputs": [
						{
							"internalType": "address",
							"name": "",
							"type": "address"
						}
					],
					"stateMutability": "view",
					"type": "function"
				},
				{
					"inputs": [
						{
							"internalType": "uint256",
							"name": "withdrawAmount",
							"type": "uint256"
						}
					],
					"name": "withdraw",
					"outputs": [
						{
							"internalType": "uint256",
							"name": "",
							"type": "uint256"
						}
					],
					"stateMutability": "nonpayable",
					"type": "function"
				},
				{
					"stateMutability": "payable",
					"type": "receive"
				}
			],
			"devdoc": {
				"kind": "dev",
				"methods": {
					"deposit()": {
						"returns": {
							"_0": "The balance of the user after the deposit is made"
						}
					},
					"enroll(address)": {
						"returns": {
							"_0": "The users enrolled status"
						}
					},
					"getBalance()": {
						"returns": {
							"_0": "The balance of the user"
						}
					},
					"withdraw(uint256)": {
						"details": "This does not return any excess ether sent to it",
						"params": {
							"withdrawAmount": "amount you want to withdraw"
						},
						"returns": {
							"_0": "The balance remaining for the user"
						}
					}
				},
				"version": 1
			},
			"evm": {
				"assembly": "    /* \"completed/SimpleBank_ethers..sol\":352:4715  contract SimpleBank{\r... */\n  mstore(0x40, 0x80)\n    /* \"completed/SimpleBank_ethers..sol\":1466:1646  constructor(Token _tokenContract) public {\r... */\n  callvalue\n  dup1\n  iszero\n  tag_1\n  jumpi\n  0x00\n  dup1\n  revert\ntag_1:\n  pop\n  mload(0x40)\n  sub(codesize, bytecodeSize)\n  dup1\n  bytecodeSize\n  dup4\n  codecopy\n  dup2\n  dup2\n  add\n  0x40\n  mstore\n  0x20\n  dup2\n  lt\n  iszero\n  tag_2\n  jumpi\n  0x00\n  dup1\n  revert\ntag_2:\n  dup2\n  add\n  swap1\n  dup1\n  dup1\n  mload\n  swap1\n  0x20\n  add\n  swap1\n  swap3\n  swap2\n  swap1\n  pop\n  pop\n  pop\n    /* \"completed/SimpleBank_ethers..sol\":1587:1597  msg.sender */\n  caller\n    /* \"completed/SimpleBank_ethers..sol\":1579:1584  owner */\n  0x03\n  0x00\n    /* \"completed/SimpleBank_ethers..sol\":1579:1597  owner = msg.sender */\n  0x0100\n  exp\n  dup2\n  sload\n  dup2\n  0xffffffffffffffffffffffffffffffffffffffff\n  mul\n  not\n  and\n  swap1\n  dup4\n  0xffffffffffffffffffffffffffffffffffffffff\n  and\n  mul\n  or\n  swap1\n  sstore\n  pop\n    /* \"completed/SimpleBank_ethers..sol\":1624:1638  _tokenContract */\n  dup1\n    /* \"completed/SimpleBank_ethers..sol\":1608:1621  tokenContract */\n  0x00\n  dup1\n    /* \"completed/SimpleBank_ethers..sol\":1608:1638  tokenContract = _tokenContract */\n  0x0100\n  exp\n  dup2\n  sload\n  dup2\n  0xffffffffffffffffffffffffffffffffffffffff\n  mul\n  not\n  and\n  swap1\n  dup4\n  0xffffffffffffffffffffffffffffffffffffffff\n  and\n  mul\n  or\n  swap1\n  sstore\n  pop\n    /* \"completed/SimpleBank_ethers..sol\":1466:1646  constructor(Token _tokenContract) public {\r... */\n  pop\n    /* \"completed/SimpleBank_ethers..sol\":352:4715  contract SimpleBank{\r... */\n  dataSize(sub_0)\n  dup1\n  dataOffset(sub_0)\n  0x00\n  codecopy\n  0x00\n  return\nstop\n\nsub_0: assembly {\n        /* \"completed/SimpleBank_ethers..sol\":352:4715  contract SimpleBank{\r... */\n      mstore(0x40, 0x80)\n      jumpi(tag_1, lt(calldatasize, 0x04))\n      shr(0xe0, calldataload(0x00))\n      dup1\n      0x862b092b\n      gt\n      tag_11\n      jumpi\n      dup1\n      0x862b092b\n      eq\n      tag_7\n      jumpi\n      dup1\n      0x8da5cb5b\n      eq\n      tag_8\n      jumpi\n      dup1\n      0xba83d1a0\n      eq\n      tag_9\n      jumpi\n      dup1\n      0xd0e30db0\n      eq\n      tag_10\n      jumpi\n      jump(tag_2)\n    tag_11:\n      dup1\n      0x0ddcfe8e\n      eq\n      tag_3\n      jumpi\n      dup1\n      0x12065fe0\n      eq\n      tag_4\n      jumpi\n      dup1\n      0x2e1a7d4d\n      eq\n      tag_5\n      jumpi\n      dup1\n      0x4a01a3bb\n      eq\n      tag_6\n      jumpi\n      jump(tag_2)\n    tag_1:\n      jumpi(tag_2, calldatasize)\n        /* \"completed/SimpleBank_ethers..sol\":2129:2138  msg.value */\n      callvalue\n        /* \"completed/SimpleBank_ethers..sol\":2110:2118  balances */\n      0x01\n        /* \"completed/SimpleBank_ethers..sol\":2110:2125  balances[owner] */\n      0x00\n        /* \"completed/SimpleBank_ethers..sol\":2119:2124  owner */\n      0x03\n      0x00\n      swap1\n      sload\n      swap1\n      0x0100\n      exp\n      swap1\n      div\n      0xffffffffffffffffffffffffffffffffffffffff\n      and\n        /* \"completed/SimpleBank_ethers..sol\":2110:2125  balances[owner] */\n      0xffffffffffffffffffffffffffffffffffffffff\n      and\n      0xffffffffffffffffffffffffffffffffffffffff\n      and\n      dup2\n      mstore\n      0x20\n      add\n      swap1\n      dup2\n      mstore\n      0x20\n      add\n      0x00\n      keccak256\n      0x00\n        /* \"completed/SimpleBank_ethers..sol\":2110:2138  balances[owner] += msg.value */\n      dup3\n      dup3\n      sload\n      add\n      swap3\n      pop\n      pop\n      dup2\n      swap1\n      sstore\n      pop\n        /* \"completed/SimpleBank_ethers..sol\":352:4715  contract SimpleBank{\r... */\n      stop\n    tag_2:\n      0x00\n      dup1\n      revert\n        /* \"completed/SimpleBank_ethers..sol\":4598:4710  function checkAddress(address _account) public view returns(bool){\r... */\n    tag_3:\n      callvalue\n      dup1\n      iszero\n      tag_14\n      jumpi\n      0x00\n      dup1\n      revert\n    tag_14:\n      pop\n      tag_15\n      0x04\n      dup1\n      calldatasize\n      sub\n      0x20\n      dup2\n      lt\n      iszero\n      tag_16\n      jumpi\n      0x00\n      dup1\n      revert\n    tag_16:\n      dup2\n      add\n      swap1\n      dup1\n      dup1\n      calldataload\n      0xffffffffffffffffffffffffffffffffffffffff\n      and\n      swap1\n      0x20\n      add\n      swap1\n      swap3\n      swap2\n      swap1\n      pop\n      pop\n      pop\n      tag_17\n      jump\t// in\n    tag_15:\n      mload(0x40)\n      dup1\n      dup3\n      iszero\n      iszero\n      dup2\n      mstore\n      0x20\n      add\n      swap2\n      pop\n      pop\n      mload(0x40)\n      dup1\n      swap2\n      sub\n      swap1\n      return\n        /* \"completed/SimpleBank_ethers..sol\":2365:2532  function getBalance() view public returns (uint) {\r... */\n    tag_4:\n      callvalue\n      dup1\n      iszero\n      tag_18\n      jumpi\n      0x00\n      dup1\n      revert\n    tag_18:\n      pop\n      tag_19\n      tag_20\n      jump\t// in\n    tag_19:\n      mload(0x40)\n      dup1\n      dup3\n      dup2\n      mstore\n      0x20\n      add\n      swap2\n      pop\n      pop\n      mload(0x40)\n      dup1\n      swap2\n      sub\n      swap1\n      return\n        /* \"completed/SimpleBank_ethers..sol\":3809:4458  function withdraw(uint withdrawAmount) public isEnrolled returns (uint) {\r... */\n    tag_5:\n      callvalue\n      dup1\n      iszero\n      tag_21\n      jumpi\n      0x00\n      dup1\n      revert\n    tag_21:\n      pop\n      tag_22\n      0x04\n      dup1\n      calldatasize\n      sub\n      0x20\n      dup2\n      lt\n      iszero\n      tag_23\n      jumpi\n      0x00\n      dup1\n      revert\n    tag_23:\n      dup2\n      add\n      swap1\n      dup1\n      dup1\n      calldataload\n      swap1\n      0x20\n      add\n      swap1\n      swap3\n      swap2\n      swap1\n      pop\n      pop\n      pop\n      tag_24\n      jump\t// in\n    tag_22:\n      mload(0x40)\n      dup1\n      dup3\n      dup2\n      mstore\n      0x20\n      add\n      swap2\n      pop\n      pop\n      mload(0x40)\n      dup1\n      swap2\n      sub\n      swap1\n      return\n        /* \"completed/SimpleBank_ethers..sol\":4476:4580  function getContracttBalance() public view returns(uint) {\r... */\n    tag_6:\n      callvalue\n      dup1\n      iszero\n      tag_25\n      jumpi\n      0x00\n      dup1\n      revert\n    tag_25:\n      pop\n      tag_26\n      tag_27\n      jump\t// in\n    tag_26:\n      mload(0x40)\n      dup1\n      dup3\n      dup2\n      mstore\n      0x20\n      add\n      swap2\n      pop\n      pop\n      mload(0x40)\n      dup1\n      swap2\n      sub\n      swap1\n      return\n        /* \"completed/SimpleBank_ethers..sol\":1658:1762  function getTokenName() public view returns(string memory){\r... */\n    tag_7:\n      callvalue\n      dup1\n      iszero\n      tag_28\n      jumpi\n      0x00\n      dup1\n      revert\n    tag_28:\n      pop\n      tag_29\n      tag_30\n      jump\t// in\n    tag_29:\n      mload(0x40)\n      dup1\n      dup1\n      0x20\n      add\n      dup3\n      dup2\n      sub\n      dup3\n      mstore\n      dup4\n      dup2\n      dup2\n      mload\n      dup2\n      mstore\n      0x20\n      add\n      swap2\n      pop\n      dup1\n      mload\n      swap1\n      0x20\n      add\n      swap1\n      dup1\n      dup4\n      dup4\n      0x00\n    tag_31:\n      dup4\n      dup2\n      lt\n      iszero\n      tag_33\n      jumpi\n      dup1\n      dup3\n      add\n      mload\n      dup2\n      dup5\n      add\n      mstore\n      0x20\n      dup2\n      add\n      swap1\n      pop\n      jump(tag_31)\n    tag_33:\n      pop\n      pop\n      pop\n      pop\n      swap1\n      pop\n      swap1\n      dup2\n      add\n      swap1\n      0x1f\n      and\n      dup1\n      iszero\n      tag_34\n      jumpi\n      dup1\n      dup3\n      sub\n      dup1\n      mload\n      0x01\n      dup4\n      0x20\n      sub\n      0x0100\n      exp\n      sub\n      not\n      and\n      dup2\n      mstore\n      0x20\n      add\n      swap2\n      pop\n    tag_34:\n      pop\n      swap3\n      pop\n      pop\n      pop\n      mload(0x40)\n      dup1\n      swap2\n      sub\n      swap1\n      return\n        /* \"completed/SimpleBank_ethers..sol\":1051:1071  address public owner */\n    tag_8:\n      callvalue\n      dup1\n      iszero\n      tag_35\n      jumpi\n      0x00\n      dup1\n      revert\n    tag_35:\n      pop\n      tag_36\n      tag_37\n      jump\t// in\n    tag_36:\n      mload(0x40)\n      dup1\n      dup3\n      0xffffffffffffffffffffffffffffffffffffffff\n      and\n      dup2\n      mstore\n      0x20\n      add\n      swap2\n      pop\n      pop\n      mload(0x40)\n      dup1\n      swap2\n      sub\n      swap1\n      return\n        /* \"completed/SimpleBank_ethers..sol\":2638:2802  function enroll(address _account) public OnlyOwner returns (bool) {\r... */\n    tag_9:\n      callvalue\n      dup1\n      iszero\n      tag_38\n      jumpi\n      0x00\n      dup1\n      revert\n    tag_38:\n      pop\n      tag_39\n      0x04\n      dup1\n      calldatasize\n      sub\n      0x20\n      dup2\n      lt\n      iszero\n      tag_40\n      jumpi\n      0x00\n      dup1\n      revert\n    tag_40:\n      dup2\n      add\n      swap1\n      dup1\n      dup1\n      calldataload\n      0xffffffffffffffffffffffffffffffffffffffff\n      and\n      swap1\n      0x20\n      add\n      swap1\n      swap3\n      swap2\n      swap1\n      pop\n      pop\n      pop\n      tag_41\n      jump\t// in\n    tag_39:\n      mload(0x40)\n      dup1\n      dup3\n      iszero\n      iszero\n      dup2\n      mstore\n      0x20\n      add\n      swap2\n      pop\n      pop\n      mload(0x40)\n      dup1\n      swap2\n      sub\n      swap1\n      return\n        /* \"completed/SimpleBank_ethers..sol\":3158:3585  function deposit() public payable isEnrolled returns (uint)  {\r... */\n    tag_10:\n      tag_42\n      tag_43\n      jump\t// in\n    tag_42:\n      mload(0x40)\n      dup1\n      dup3\n      dup2\n      mstore\n      0x20\n      add\n      swap2\n      pop\n      pop\n      mload(0x40)\n      dup1\n      swap2\n      sub\n      swap1\n      return\n        /* \"completed/SimpleBank_ethers..sol\":4598:4710  function checkAddress(address _account) public view returns(bool){\r... */\n    tag_17:\n        /* \"completed/SimpleBank_ethers..sol\":4658:4662  bool */\n      0x00\n        /* \"completed/SimpleBank_ethers..sol\":4681:4702  _account.isContract() */\n      tag_45\n        /* \"completed/SimpleBank_ethers..sol\":4681:4689  _account */\n      dup3\n        /* \"completed/SimpleBank_ethers..sol\":4681:4700  _account.isContract */\n      0xffffffffffffffffffffffffffffffffffffffff\n      and\n      tag_46\n        /* \"completed/SimpleBank_ethers..sol\":4681:4702  _account.isContract() */\n      jump\t// in\n    tag_45:\n        /* \"completed/SimpleBank_ethers..sol\":4674:4702  return _account.isContract() */\n      swap1\n      pop\n        /* \"completed/SimpleBank_ethers..sol\":4598:4710  function checkAddress(address _account) public view returns(bool){\r... */\n      swap2\n      swap1\n      pop\n      jump\t// out\n        /* \"completed/SimpleBank_ethers..sol\":2365:2532  function getBalance() view public returns (uint) {\r... */\n    tag_20:\n        /* \"completed/SimpleBank_ethers..sol\":2408:2412  uint */\n      0x00\n        /* \"completed/SimpleBank_ethers..sol\":2504:2512  balances */\n      0x01\n        /* \"completed/SimpleBank_ethers..sol\":2504:2524  balances[msg.sender] */\n      0x00\n        /* \"completed/SimpleBank_ethers..sol\":2513:2523  msg.sender */\n      caller\n        /* \"completed/SimpleBank_ethers..sol\":2504:2524  balances[msg.sender] */\n      0xffffffffffffffffffffffffffffffffffffffff\n      and\n      0xffffffffffffffffffffffffffffffffffffffff\n      and\n      dup2\n      mstore\n      0x20\n      add\n      swap1\n      dup2\n      mstore\n      0x20\n      add\n      0x00\n      keccak256\n      sload\n        /* \"completed/SimpleBank_ethers..sol\":2497:2524  return balances[msg.sender] */\n      swap1\n      pop\n        /* \"completed/SimpleBank_ethers..sol\":2365:2532  function getBalance() view public returns (uint) {\r... */\n      swap1\n      jump\t// out\n        /* \"completed/SimpleBank_ethers..sol\":3809:4458  function withdraw(uint withdrawAmount) public isEnrolled returns (uint) {\r... */\n    tag_24:\n        /* \"completed/SimpleBank_ethers..sol\":3875:3879  uint */\n      0x00\n        /* \"completed/SimpleBank_ethers..sol\":1260:1268  enrolled */\n      0x02\n        /* \"completed/SimpleBank_ethers..sol\":1260:1280  enrolled[msg.sender] */\n      0x00\n        /* \"completed/SimpleBank_ethers..sol\":1269:1279  msg.sender */\n      caller\n        /* \"completed/SimpleBank_ethers..sol\":1260:1280  enrolled[msg.sender] */\n      0xffffffffffffffffffffffffffffffffffffffff\n      and\n      0xffffffffffffffffffffffffffffffffffffffff\n      and\n      dup2\n      mstore\n      0x20\n      add\n      swap1\n      dup2\n      mstore\n      0x20\n      add\n      0x00\n      keccak256\n      0x00\n      swap1\n      sload\n      swap1\n      0x0100\n      exp\n      swap1\n      div\n      0xff\n      and\n        /* \"completed/SimpleBank_ethers..sol\":1252:1317  require(enrolled[msg.sender],'you should be enrolled to deposit') */\n      tag_49\n      jumpi\n      mload(0x40)\n      0x08c379a000000000000000000000000000000000000000000000000000000000\n      dup2\n      mstore\n      0x04\n      add\n      dup1\n      dup1\n      0x20\n      add\n      dup3\n      dup2\n      sub\n      dup3\n      mstore\n      0x21\n      dup2\n      mstore\n      0x20\n      add\n      dup1\n      data_8c232e6069bebaaece1b28ba52d60927dc48778d5f8f705843d538a26fde1c5e\n      0x21\n      swap2\n      codecopy\n      0x40\n      add\n      swap2\n      pop\n      pop\n      mload(0x40)\n      dup1\n      swap2\n      sub\n      swap1\n      revert\n    tag_49:\n        /* \"completed/SimpleBank_ethers..sol\":4185:4193  balances */\n      0x01\n        /* \"completed/SimpleBank_ethers..sol\":4185:4205  balances[msg.sender] */\n      0x00\n        /* \"completed/SimpleBank_ethers..sol\":4194:4204  msg.sender */\n      caller\n        /* \"completed/SimpleBank_ethers..sol\":4185:4205  balances[msg.sender] */\n      0xffffffffffffffffffffffffffffffffffffffff\n      and\n      0xffffffffffffffffffffffffffffffffffffffff\n      and\n      dup2\n      mstore\n      0x20\n      add\n      swap1\n      dup2\n      mstore\n      0x20\n      add\n      0x00\n      keccak256\n      sload\n        /* \"completed/SimpleBank_ethers..sol\":4167:4181  withdrawAmount */\n      dup3\n        /* \"completed/SimpleBank_ethers..sol\":4167:4205  withdrawAmount <= balances[msg.sender] */\n      gt\n      iszero\n        /* \"completed/SimpleBank_ethers..sol\":4159:4243  require(withdrawAmount <= balances[msg.sender],'not enough balance in your account') */\n      tag_51\n      jumpi\n      mload(0x40)\n      0x08c379a000000000000000000000000000000000000000000000000000000000\n      dup2\n      mstore\n      0x04\n      add\n      dup1\n      dup1\n      0x20\n      add\n      dup3\n      dup2\n      sub\n      dup3\n      mstore\n      0x22\n      dup2\n      mstore\n      0x20\n      add\n      dup1\n      data_3ad8771350d187bfcf334338f32437eb440d96e24b19706f836863dd495ad825\n      0x22\n      swap2\n      codecopy\n      0x40\n      add\n      swap2\n      pop\n      pop\n      mload(0x40)\n      dup1\n      swap2\n      sub\n      swap1\n      revert\n    tag_51:\n        /* \"completed/SimpleBank_ethers..sol\":4288:4328  balances[msg.sender].sub(withdrawAmount) */\n      tag_52\n        /* \"completed/SimpleBank_ethers..sol\":4313:4327  withdrawAmount */\n      dup3\n        /* \"completed/SimpleBank_ethers..sol\":4288:4296  balances */\n      0x01\n        /* \"completed/SimpleBank_ethers..sol\":4288:4308  balances[msg.sender] */\n      0x00\n        /* \"completed/SimpleBank_ethers..sol\":4297:4307  msg.sender */\n      caller\n        /* \"completed/SimpleBank_ethers..sol\":4288:4308  balances[msg.sender] */\n      0xffffffffffffffffffffffffffffffffffffffff\n      and\n      0xffffffffffffffffffffffffffffffffffffffff\n      and\n      dup2\n      mstore\n      0x20\n      add\n      swap1\n      dup2\n      mstore\n      0x20\n      add\n      0x00\n      keccak256\n      sload\n        /* \"completed/SimpleBank_ethers..sol\":4288:4312  balances[msg.sender].sub */\n      tag_53\n      swap1\n        /* \"completed/SimpleBank_ethers..sol\":4288:4328  balances[msg.sender].sub(withdrawAmount) */\n      swap2\n      swap1\n      0xffffffff\n      and\n      jump\t// in\n    tag_52:\n        /* \"completed/SimpleBank_ethers..sol\":4264:4272  balances */\n      0x01\n        /* \"completed/SimpleBank_ethers..sol\":4264:4284  balances[msg.sender] */\n      0x00\n        /* \"completed/SimpleBank_ethers..sol\":4273:4283  msg.sender */\n      caller\n        /* \"completed/SimpleBank_ethers..sol\":4264:4284  balances[msg.sender] */\n      0xffffffffffffffffffffffffffffffffffffffff\n      and\n      0xffffffffffffffffffffffffffffffffffffffff\n      and\n      dup2\n      mstore\n      0x20\n      add\n      swap1\n      dup2\n      mstore\n      0x20\n      add\n      0x00\n      keccak256\n        /* \"completed/SimpleBank_ethers..sol\":4264:4328  balances[msg.sender] =  balances[msg.sender].sub(withdrawAmount) */\n      dup2\n      swap1\n      sstore\n      pop\n        /* \"completed/SimpleBank_ethers..sol\":4341:4359  address payable ac */\n      0x00\n        /* \"completed/SimpleBank_ethers..sol\":4362:4372  msg.sender */\n      caller\n        /* \"completed/SimpleBank_ethers..sol\":4341:4372  address payable ac = msg.sender */\n      swap1\n      pop\n        /* \"completed/SimpleBank_ethers..sol\":4383:4385  ac */\n      dup1\n        /* \"completed/SimpleBank_ethers..sol\":4383:4394  ac.transfer */\n      0xffffffffffffffffffffffffffffffffffffffff\n      and\n        /* \"completed/SimpleBank_ethers..sol\":4383:4410  ac.transfer(withdrawAmount) */\n      0x08fc\n        /* \"completed/SimpleBank_ethers..sol\":4395:4409  withdrawAmount */\n      dup5\n        /* \"completed/SimpleBank_ethers..sol\":4383:4410  ac.transfer(withdrawAmount) */\n      swap1\n      dup2\n      iszero\n      mul\n      swap1\n      mload(0x40)\n      0x00\n      mload(0x40)\n      dup1\n      dup4\n      sub\n      dup2\n      dup6\n      dup9\n      dup9\n      call\n      swap4\n      pop\n      pop\n      pop\n      pop\n      iszero\n      dup1\n      iszero\n      tag_55\n      jumpi\n      returndatasize\n      0x00\n      dup1\n      returndatacopy\n      revert(0x00, returndatasize)\n    tag_55:\n      pop\n        /* \"completed/SimpleBank_ethers..sol\":4428:4436  balances */\n      0x01\n        /* \"completed/SimpleBank_ethers..sol\":4428:4448  balances[msg.sender] */\n      0x00\n        /* \"completed/SimpleBank_ethers..sol\":4437:4447  msg.sender */\n      caller\n        /* \"completed/SimpleBank_ethers..sol\":4428:4448  balances[msg.sender] */\n      0xffffffffffffffffffffffffffffffffffffffff\n      and\n      0xffffffffffffffffffffffffffffffffffffffff\n      and\n      dup2\n      mstore\n      0x20\n      add\n      swap1\n      dup2\n      mstore\n      0x20\n      add\n      0x00\n      keccak256\n      sload\n        /* \"completed/SimpleBank_ethers..sol\":4421:4448  return balances[msg.sender] */\n      swap2\n      pop\n      pop\n        /* \"completed/SimpleBank_ethers..sol\":3809:4458  function withdraw(uint withdrawAmount) public isEnrolled returns (uint) {\r... */\n      swap2\n      swap1\n      pop\n      jump\t// out\n        /* \"completed/SimpleBank_ethers..sol\":4476:4580  function getContracttBalance() public view returns(uint) {\r... */\n    tag_27:\n        /* \"completed/SimpleBank_ethers..sol\":4527:4531  uint */\n      0x00\n        /* \"completed/SimpleBank_ethers..sol\":4551:4572  address(this).balance */\n      selfbalance\n        /* \"completed/SimpleBank_ethers..sol\":4544:4572  return address(this).balance */\n      swap1\n      pop\n        /* \"completed/SimpleBank_ethers..sol\":4476:4580  function getContracttBalance() public view returns(uint) {\r... */\n      swap1\n      jump\t// out\n        /* \"completed/SimpleBank_ethers..sol\":1658:1762  function getTokenName() public view returns(string memory){\r... */\n    tag_30:\n        /* \"completed/SimpleBank_ethers..sol\":1702:1715  string memory */\n      0x60\n        /* \"completed/SimpleBank_ethers..sol\":1734:1747  tokenContract */\n      0x00\n      dup1\n      sload\n      swap1\n      0x0100\n      exp\n      swap1\n      div\n      0xffffffffffffffffffffffffffffffffffffffff\n      and\n        /* \"completed/SimpleBank_ethers..sol\":1734:1752  tokenContract.name */\n      0xffffffffffffffffffffffffffffffffffffffff\n      and\n      0x06fdde03\n        /* \"completed/SimpleBank_ethers..sol\":1734:1754  tokenContract.name() */\n      mload(0x40)\n      dup2\n      0xffffffff\n      and\n      0xe0\n      shl\n      dup2\n      mstore\n      0x04\n      add\n      0x00\n      mload(0x40)\n      dup1\n      dup4\n      sub\n      dup2\n      dup7\n      dup1\n      extcodesize\n      iszero\n      dup1\n      iszero\n      tag_58\n      jumpi\n      0x00\n      dup1\n      revert\n    tag_58:\n      pop\n      gas\n      staticcall\n      iszero\n      dup1\n      iszero\n      tag_60\n      jumpi\n      returndatasize\n      0x00\n      dup1\n      returndatacopy\n      revert(0x00, returndatasize)\n    tag_60:\n      pop\n      pop\n      pop\n      pop\n      mload(0x40)\n      returndatasize\n      0x00\n      dup3\n      returndatacopy\n      returndatasize\n      not(0x1f)\n      0x1f\n      dup3\n      add\n      and\n      dup3\n      add\n      dup1\n      0x40\n      mstore\n      pop\n      0x20\n      dup2\n      lt\n      iszero\n      tag_61\n      jumpi\n      0x00\n      dup1\n      revert\n    tag_61:\n      dup2\n      add\n      swap1\n      dup1\n      dup1\n      mload\n      mload(0x40)\n      swap4\n      swap3\n      swap2\n      swap1\n      dup5\n      0x0100000000\n      dup3\n      gt\n      iszero\n      tag_62\n      jumpi\n      0x00\n      dup1\n      revert\n    tag_62:\n      dup4\n      dup3\n      add\n      swap2\n      pop\n      0x20\n      dup3\n      add\n      dup6\n      dup2\n      gt\n      iszero\n      tag_63\n      jumpi\n      0x00\n      dup1\n      revert\n    tag_63:\n      dup3\n      mload\n      dup7\n      0x01\n      dup3\n      mul\n      dup4\n      add\n      gt\n      0x0100000000\n      dup3\n      gt\n      or\n      iszero\n      tag_64\n      jumpi\n      0x00\n      dup1\n      revert\n    tag_64:\n      dup1\n      dup4\n      mstore\n      0x20\n      dup4\n      add\n      swap3\n      pop\n      pop\n      pop\n      swap1\n      dup1\n      mload\n      swap1\n      0x20\n      add\n      swap1\n      dup1\n      dup4\n      dup4\n      0x00\n    tag_65:\n      dup4\n      dup2\n      lt\n      iszero\n      tag_67\n      jumpi\n      dup1\n      dup3\n      add\n      mload\n      dup2\n      dup5\n      add\n      mstore\n      0x20\n      dup2\n      add\n      swap1\n      pop\n      jump(tag_65)\n    tag_67:\n      pop\n      pop\n      pop\n      pop\n      swap1\n      pop\n      swap1\n      dup2\n      add\n      swap1\n      0x1f\n      and\n      dup1\n      iszero\n      tag_68\n      jumpi\n      dup1\n      dup3\n      sub\n      dup1\n      mload\n      0x01\n      dup4\n      0x20\n      sub\n      0x0100\n      exp\n      sub\n      not\n      and\n      dup2\n      mstore\n      0x20\n      add\n      swap2\n      pop\n    tag_68:\n      pop\n      0x40\n      mstore\n      pop\n      pop\n      pop\n        /* \"completed/SimpleBank_ethers..sol\":1727:1754  return tokenContract.name() */\n      swap1\n      pop\n        /* \"completed/SimpleBank_ethers..sol\":1658:1762  function getTokenName() public view returns(string memory){\r... */\n      swap1\n      jump\t// out\n        /* \"completed/SimpleBank_ethers..sol\":1051:1071  address public owner */\n    tag_37:\n      0x03\n      0x00\n      swap1\n      sload\n      swap1\n      0x0100\n      exp\n      swap1\n      div\n      0xffffffffffffffffffffffffffffffffffffffff\n      and\n      dup2\n      jump\t// out\n        /* \"completed/SimpleBank_ethers..sol\":2638:2802  function enroll(address _account) public OnlyOwner returns (bool) {\r... */\n    tag_41:\n        /* \"completed/SimpleBank_ethers..sol\":2698:2702  bool */\n      0x00\n        /* \"completed/SimpleBank_ethers..sol\":1139:1149  msg.sender */\n      caller\n        /* \"completed/SimpleBank_ethers..sol\":1130:1149  owner == msg.sender */\n      0xffffffffffffffffffffffffffffffffffffffff\n      and\n        /* \"completed/SimpleBank_ethers..sol\":1130:1135  owner */\n      0x03\n      0x00\n      swap1\n      sload\n      swap1\n      0x0100\n      exp\n      swap1\n      div\n      0xffffffffffffffffffffffffffffffffffffffff\n      and\n        /* \"completed/SimpleBank_ethers..sol\":1130:1149  owner == msg.sender */\n      0xffffffffffffffffffffffffffffffffffffffff\n      and\n      eq\n        /* \"completed/SimpleBank_ethers..sol\":1122:1189  require(owner == msg.sender,\"only owner can execute this contract\") */\n      tag_70\n      jumpi\n      mload(0x40)\n      0x08c379a000000000000000000000000000000000000000000000000000000000\n      dup2\n      mstore\n      0x04\n      add\n      dup1\n      dup1\n      0x20\n      add\n      dup3\n      dup2\n      sub\n      dup3\n      mstore\n      0x24\n      dup2\n      mstore\n      0x20\n      add\n      dup1\n      data_6417e642959ed31dafc24043cda49101ea5694ba61cfc827cdbd702a7cb94811\n      0x24\n      swap2\n      codecopy\n      0x40\n      add\n      swap2\n      pop\n      pop\n      mload(0x40)\n      dup1\n      swap2\n      sub\n      swap1\n      revert\n    tag_70:\n        /* \"completed/SimpleBank_ethers..sol\":2750:2754  true */\n      0x01\n        /* \"completed/SimpleBank_ethers..sol\":2729:2737  enrolled */\n      0x02\n        /* \"completed/SimpleBank_ethers..sol\":2729:2747  enrolled[_account] */\n      0x00\n        /* \"completed/SimpleBank_ethers..sol\":2738:2746  _account */\n      dup5\n        /* \"completed/SimpleBank_ethers..sol\":2729:2747  enrolled[_account] */\n      0xffffffffffffffffffffffffffffffffffffffff\n      and\n      0xffffffffffffffffffffffffffffffffffffffff\n      and\n      dup2\n      mstore\n      0x20\n      add\n      swap1\n      dup2\n      mstore\n      0x20\n      add\n      0x00\n      keccak256\n      0x00\n        /* \"completed/SimpleBank_ethers..sol\":2729:2754  enrolled[_account] = true */\n      0x0100\n      exp\n      dup2\n      sload\n      dup2\n      0xff\n      mul\n      not\n      and\n      swap1\n      dup4\n      iszero\n      iszero\n      mul\n      or\n      swap1\n      sstore\n      pop\n        /* \"completed/SimpleBank_ethers..sol\":2774:2782  enrolled */\n      0x02\n        /* \"completed/SimpleBank_ethers..sol\":2774:2792  enrolled[_account] */\n      0x00\n        /* \"completed/SimpleBank_ethers..sol\":2783:2791  _account */\n      dup4\n        /* \"completed/SimpleBank_ethers..sol\":2774:2792  enrolled[_account] */\n      0xffffffffffffffffffffffffffffffffffffffff\n      and\n      0xffffffffffffffffffffffffffffffffffffffff\n      and\n      dup2\n      mstore\n      0x20\n      add\n      swap1\n      dup2\n      mstore\n      0x20\n      add\n      0x00\n      keccak256\n      0x00\n      swap1\n      sload\n      swap1\n      0x0100\n      exp\n      swap1\n      div\n      0xff\n      and\n        /* \"completed/SimpleBank_ethers..sol\":2767:2792  return enrolled[_account] */\n      swap1\n      pop\n        /* \"completed/SimpleBank_ethers..sol\":2638:2802  function enroll(address _account) public OnlyOwner returns (bool) {\r... */\n      swap2\n      swap1\n      pop\n      jump\t// out\n        /* \"completed/SimpleBank_ethers..sol\":3158:3585  function deposit() public payable isEnrolled returns (uint)  {\r... */\n    tag_43:\n        /* \"completed/SimpleBank_ethers..sol\":3212:3216  uint */\n      0x00\n        /* \"completed/SimpleBank_ethers..sol\":1260:1268  enrolled */\n      0x02\n        /* \"completed/SimpleBank_ethers..sol\":1260:1280  enrolled[msg.sender] */\n      0x00\n        /* \"completed/SimpleBank_ethers..sol\":1269:1279  msg.sender */\n      caller\n        /* \"completed/SimpleBank_ethers..sol\":1260:1280  enrolled[msg.sender] */\n      0xffffffffffffffffffffffffffffffffffffffff\n      and\n      0xffffffffffffffffffffffffffffffffffffffff\n      and\n      dup2\n      mstore\n      0x20\n      add\n      swap1\n      dup2\n      mstore\n      0x20\n      add\n      0x00\n      keccak256\n      0x00\n      swap1\n      sload\n      swap1\n      0x0100\n      exp\n      swap1\n      div\n      0xff\n      and\n        /* \"completed/SimpleBank_ethers..sol\":1252:1317  require(enrolled[msg.sender],'you should be enrolled to deposit') */\n      tag_73\n      jumpi\n      mload(0x40)\n      0x08c379a000000000000000000000000000000000000000000000000000000000\n      dup2\n      mstore\n      0x04\n      add\n      dup1\n      dup1\n      0x20\n      add\n      dup3\n      dup2\n      sub\n      dup3\n      mstore\n      0x21\n      dup2\n      mstore\n      0x20\n      add\n      dup1\n      data_8c232e6069bebaaece1b28ba52d60927dc48778d5f8f705843d538a26fde1c5e\n      0x21\n      swap2\n      codecopy\n      0x40\n      add\n      swap2\n      pop\n      pop\n      mload(0x40)\n      dup1\n      swap2\n      sub\n      swap1\n      revert\n    tag_73:\n        /* \"completed/SimpleBank_ethers..sol\":3418:3419  0 */\n      0x00\n        /* \"completed/SimpleBank_ethers..sol\":3405:3414  msg.value */\n      callvalue\n        /* \"completed/SimpleBank_ethers..sol\":3405:3419  msg.value != 0 */\n      eq\n      iszero\n        /* \"completed/SimpleBank_ethers..sol\":3397:3454  require(msg.value != 0 , \"deposit amount cannot be zero\") */\n      tag_75\n      jumpi\n      mload(0x40)\n      0x08c379a000000000000000000000000000000000000000000000000000000000\n      dup2\n      mstore\n      0x04\n      add\n      dup1\n      dup1\n      0x20\n      add\n      dup3\n      dup2\n      sub\n      dup3\n      mstore\n      0x1d\n      dup2\n      mstore\n      0x20\n      add\n      dup1\n      0x6465706f73697420616d6f756e742063616e6e6f74206265207a65726f000000\n      dup2\n      mstore\n      pop\n      0x20\n      add\n      swap2\n      pop\n      pop\n      mload(0x40)\n      dup1\n      swap2\n      sub\n      swap1\n      revert\n    tag_75:\n        /* \"completed/SimpleBank_ethers..sol\":3493:3528  balances[msg.sender].add(msg.value) */\n      tag_76\n        /* \"completed/SimpleBank_ethers..sol\":3518:3527  msg.value */\n      callvalue\n        /* \"completed/SimpleBank_ethers..sol\":3493:3501  balances */\n      0x01\n        /* \"completed/SimpleBank_ethers..sol\":3493:3513  balances[msg.sender] */\n      0x00\n        /* \"completed/SimpleBank_ethers..sol\":3502:3512  msg.sender */\n      caller\n        /* \"completed/SimpleBank_ethers..sol\":3493:3513  balances[msg.sender] */\n      0xffffffffffffffffffffffffffffffffffffffff\n      and\n      0xffffffffffffffffffffffffffffffffffffffff\n      and\n      dup2\n      mstore\n      0x20\n      add\n      swap1\n      dup2\n      mstore\n      0x20\n      add\n      0x00\n      keccak256\n      sload\n        /* \"completed/SimpleBank_ethers..sol\":3493:3517  balances[msg.sender].add */\n      tag_77\n      swap1\n        /* \"completed/SimpleBank_ethers..sol\":3493:3528  balances[msg.sender].add(msg.value) */\n      swap2\n      swap1\n      0xffffffff\n      and\n      jump\t// in\n    tag_76:\n        /* \"completed/SimpleBank_ethers..sol\":3469:3477  balances */\n      0x01\n        /* \"completed/SimpleBank_ethers..sol\":3469:3489  balances[msg.sender] */\n      0x00\n        /* \"completed/SimpleBank_ethers..sol\":3478:3488  msg.sender */\n      caller\n        /* \"completed/SimpleBank_ethers..sol\":3469:3489  balances[msg.sender] */\n      0xffffffffffffffffffffffffffffffffffffffff\n      and\n      0xffffffffffffffffffffffffffffffffffffffff\n      and\n      dup2\n      mstore\n      0x20\n      add\n      swap1\n      dup2\n      mstore\n      0x20\n      add\n      0x00\n      keccak256\n        /* \"completed/SimpleBank_ethers..sol\":3469:3528  balances[msg.sender] =  balances[msg.sender].add(msg.value) */\n      dup2\n      swap1\n      sstore\n      pop\n        /* \"completed/SimpleBank_ethers..sol\":3551:3559  balances */\n      0x01\n        /* \"completed/SimpleBank_ethers..sol\":3551:3571  balances[msg.sender] */\n      0x00\n        /* \"completed/SimpleBank_ethers..sol\":3560:3570  msg.sender */\n      caller\n        /* \"completed/SimpleBank_ethers..sol\":3551:3571  balances[msg.sender] */\n      0xffffffffffffffffffffffffffffffffffffffff\n      and\n      0xffffffffffffffffffffffffffffffffffffffff\n      and\n      dup2\n      mstore\n      0x20\n      add\n      swap1\n      dup2\n      mstore\n      0x20\n      add\n      0x00\n      keccak256\n      sload\n        /* \"completed/SimpleBank_ethers..sol\":3544:3571  return balances[msg.sender] */\n      swap1\n      pop\n        /* \"completed/SimpleBank_ethers..sol\":3158:3585  function deposit() public payable isEnrolled returns (uint)  {\r... */\n      swap1\n      jump\t// out\n        /* \"https://github.com/OpenZeppelin/openzeppelin-contracts/blob/v3.4.0/contracts/utils/Address.sol\":726:1139  function isContract(address account) internal view returns (bool) {... */\n    tag_46:\n        /* \"https://github.com/OpenZeppelin/openzeppelin-contracts/blob/v3.4.0/contracts/utils/Address.sol\":786:790  bool */\n      0x00\n        /* \"https://github.com/OpenZeppelin/openzeppelin-contracts/blob/v3.4.0/contracts/utils/Address.sol\":989:1001  uint256 size */\n      dup1\n        /* \"https://github.com/OpenZeppelin/openzeppelin-contracts/blob/v3.4.0/contracts/utils/Address.sol\":1098:1105  account */\n      dup3\n        /* \"https://github.com/OpenZeppelin/openzeppelin-contracts/blob/v3.4.0/contracts/utils/Address.sol\":1086:1106  extcodesize(account) */\n      extcodesize\n        /* \"https://github.com/OpenZeppelin/openzeppelin-contracts/blob/v3.4.0/contracts/utils/Address.sol\":1078:1106  size := extcodesize(account) */\n      swap1\n      pop\n        /* \"https://github.com/OpenZeppelin/openzeppelin-contracts/blob/v3.4.0/contracts/utils/Address.sol\":1131:1132  0 */\n      0x00\n        /* \"https://github.com/OpenZeppelin/openzeppelin-contracts/blob/v3.4.0/contracts/utils/Address.sol\":1124:1128  size */\n      dup2\n        /* \"https://github.com/OpenZeppelin/openzeppelin-contracts/blob/v3.4.0/contracts/utils/Address.sol\":1124:1132  size > 0 */\n      gt\n        /* \"https://github.com/OpenZeppelin/openzeppelin-contracts/blob/v3.4.0/contracts/utils/Address.sol\":1117:1132  return size > 0 */\n      swap2\n      pop\n      pop\n        /* \"https://github.com/OpenZeppelin/openzeppelin-contracts/blob/v3.4.0/contracts/utils/Address.sol\":726:1139  function isContract(address account) internal view returns (bool) {... */\n      swap2\n      swap1\n      pop\n      jump\t// out\n        /* \"https://github.com/OpenZeppelin/openzeppelin-contracts/blob/v3.4.0/contracts/math/SafeMath.sol\":3136:3291  function sub(uint256 a, uint256 b) internal pure returns (uint256) {... */\n    tag_53:\n        /* \"https://github.com/OpenZeppelin/openzeppelin-contracts/blob/v3.4.0/contracts/math/SafeMath.sol\":3194:3201  uint256 */\n      0x00\n        /* \"https://github.com/OpenZeppelin/openzeppelin-contracts/blob/v3.4.0/contracts/math/SafeMath.sol\":3226:3227  a */\n      dup3\n        /* \"https://github.com/OpenZeppelin/openzeppelin-contracts/blob/v3.4.0/contracts/math/SafeMath.sol\":3221:3222  b */\n      dup3\n        /* \"https://github.com/OpenZeppelin/openzeppelin-contracts/blob/v3.4.0/contracts/math/SafeMath.sol\":3221:3227  b <= a */\n      gt\n      iszero\n        /* \"https://github.com/OpenZeppelin/openzeppelin-contracts/blob/v3.4.0/contracts/math/SafeMath.sol\":3213:3262  require(b <= a, \"SafeMath: subtraction overflow\") */\n      tag_80\n      jumpi\n      mload(0x40)\n      0x08c379a000000000000000000000000000000000000000000000000000000000\n      dup2\n      mstore\n      0x04\n      add\n      dup1\n      dup1\n      0x20\n      add\n      dup3\n      dup2\n      sub\n      dup3\n      mstore\n      0x1e\n      dup2\n      mstore\n      0x20\n      add\n      dup1\n      0x536166654d6174683a207375627472616374696f6e206f766572666c6f770000\n      dup2\n      mstore\n      pop\n      0x20\n      add\n      swap2\n      pop\n      pop\n      mload(0x40)\n      dup1\n      swap2\n      sub\n      swap1\n      revert\n    tag_80:\n        /* \"https://github.com/OpenZeppelin/openzeppelin-contracts/blob/v3.4.0/contracts/math/SafeMath.sol\":3283:3284  b */\n      dup2\n        /* \"https://github.com/OpenZeppelin/openzeppelin-contracts/blob/v3.4.0/contracts/math/SafeMath.sol\":3279:3280  a */\n      dup4\n        /* \"https://github.com/OpenZeppelin/openzeppelin-contracts/blob/v3.4.0/contracts/math/SafeMath.sol\":3279:3284  a - b */\n      sub\n        /* \"https://github.com/OpenZeppelin/openzeppelin-contracts/blob/v3.4.0/contracts/math/SafeMath.sol\":3272:3284  return a - b */\n      swap1\n      pop\n        /* \"https://github.com/OpenZeppelin/openzeppelin-contracts/blob/v3.4.0/contracts/math/SafeMath.sol\":3136:3291  function sub(uint256 a, uint256 b) internal pure returns (uint256) {... */\n      swap3\n      swap2\n      pop\n      pop\n      jump\t// out\n        /* \"https://github.com/OpenZeppelin/openzeppelin-contracts/blob/v3.4.0/contracts/math/SafeMath.sol\":2690:2865  function add(uint256 a, uint256 b) internal pure returns (uint256) {... */\n    tag_77:\n        /* \"https://github.com/OpenZeppelin/openzeppelin-contracts/blob/v3.4.0/contracts/math/SafeMath.sol\":2748:2755  uint256 */\n      0x00\n        /* \"https://github.com/OpenZeppelin/openzeppelin-contracts/blob/v3.4.0/contracts/math/SafeMath.sol\":2767:2776  uint256 c */\n      dup1\n        /* \"https://github.com/OpenZeppelin/openzeppelin-contracts/blob/v3.4.0/contracts/math/SafeMath.sol\":2783:2784  b */\n      dup3\n        /* \"https://github.com/OpenZeppelin/openzeppelin-contracts/blob/v3.4.0/contracts/math/SafeMath.sol\":2779:2780  a */\n      dup5\n        /* \"https://github.com/OpenZeppelin/openzeppelin-contracts/blob/v3.4.0/contracts/math/SafeMath.sol\":2779:2784  a + b */\n      add\n        /* \"https://github.com/OpenZeppelin/openzeppelin-contracts/blob/v3.4.0/contracts/math/SafeMath.sol\":2767:2784  uint256 c = a + b */\n      swap1\n      pop\n        /* \"https://github.com/OpenZeppelin/openzeppelin-contracts/blob/v3.4.0/contracts/math/SafeMath.sol\":2807:2808  a */\n      dup4\n        /* \"https://github.com/OpenZeppelin/openzeppelin-contracts/blob/v3.4.0/contracts/math/SafeMath.sol\":2802:2803  c */\n      dup2\n        /* \"https://github.com/OpenZeppelin/openzeppelin-contracts/blob/v3.4.0/contracts/math/SafeMath.sol\":2802:2808  c >= a */\n      lt\n      iszero\n        /* \"https://github.com/OpenZeppelin/openzeppelin-contracts/blob/v3.4.0/contracts/math/SafeMath.sol\":2794:2840  require(c >= a, \"SafeMath: addition overflow\") */\n      tag_82\n      jumpi\n      mload(0x40)\n      0x08c379a000000000000000000000000000000000000000000000000000000000\n      dup2\n      mstore\n      0x04\n      add\n      dup1\n      dup1\n      0x20\n      add\n      dup3\n      dup2\n      sub\n      dup3\n      mstore\n      0x1b\n      dup2\n      mstore\n      0x20\n      add\n      dup1\n      0x536166654d6174683a206164646974696f6e206f766572666c6f770000000000\n      dup2\n      mstore\n      pop\n      0x20\n      add\n      swap2\n      pop\n      pop\n      mload(0x40)\n      dup1\n      swap2\n      sub\n      swap1\n      revert\n    tag_82:\n        /* \"https://github.com/OpenZeppelin/openzeppelin-contracts/blob/v3.4.0/contracts/math/SafeMath.sol\":2857:2858  c */\n      dup1\n        /* \"https://github.com/OpenZeppelin/openzeppelin-contracts/blob/v3.4.0/contracts/math/SafeMath.sol\":2850:2858  return c */\n      swap2\n      pop\n      pop\n        /* \"https://github.com/OpenZeppelin/openzeppelin-contracts/blob/v3.4.0/contracts/math/SafeMath.sol\":2690:2865  function add(uint256 a, uint256 b) internal pure returns (uint256) {... */\n      swap3\n      swap2\n      pop\n      pop\n      jump\t// out\n    stop\n    data_3ad8771350d187bfcf334338f32437eb440d96e24b19706f836863dd495ad825 6e6f7420656e6f7567682062616c616e636520696e20796f7572206163636f756e74\n    data_6417e642959ed31dafc24043cda49101ea5694ba61cfc827cdbd702a7cb94811 6f6e6c79206f776e65722063616e2065786563757465207468697320636f6e7472616374\n    data_8c232e6069bebaaece1b28ba52d60927dc48778d5f8f705843d538a26fde1c5e 796f752073686f756c6420626520656e726f6c6c656420746f206465706f736974\n\n    auxdata: 0xa264697066735822122070a7bd0d2fadd9fd75ee7a8a069fa223942fc63c52a20b12f754405458dc6c4064736f6c634300060c0033\n}\n",
				"bytecode": {
					"linkReferences": {},
					"object": "608060405234801561001057600080fd5b50604051610d9d380380610d9d8339818101604052602081101561003357600080fd5b810190808051906020019092919050505033600360006101000a81548173ffffffffffffffffffffffffffffffffffffffff021916908373ffffffffffffffffffffffffffffffffffffffff160217905550806000806101000a81548173ffffffffffffffffffffffffffffffffffffffff021916908373ffffffffffffffffffffffffffffffffffffffff16021790555050610cc8806100d56000396000f3fe60806040526004361061007f5760003560e01c8063862b092b1161004e578063862b092b146102065780638da5cb5b14610296578063ba83d1a0146102d7578063d0e30db01461033e576100f5565b80630ddcfe8e146100fa57806312065fe0146101615780632e1a7d4d1461018c5780634a01a3bb146101db576100f5565b366100f5573460016000600360009054906101000a900473ffffffffffffffffffffffffffffffffffffffff1673ffffffffffffffffffffffffffffffffffffffff1673ffffffffffffffffffffffffffffffffffffffff16815260200190815260200160002060008282540192505081905550005b600080fd5b34801561010657600080fd5b506101496004803603602081101561011d57600080fd5b81019080803573ffffffffffffffffffffffffffffffffffffffff16906020019092919050505061035c565b60405180821515815260200191505060405180910390f35b34801561016d57600080fd5b50610176610384565b6040518082815260200191505060405180910390f35b34801561019857600080fd5b506101c5600480360360208110156101af57600080fd5b81019080803590602001909291905050506103cb565b6040518082815260200191505060405180910390f35b3480156101e757600080fd5b506101f0610630565b6040518082815260200191505060405180910390f35b34801561021257600080fd5b5061021b610638565b6040518080602001828103825283818151815260200191508051906020019080838360005b8381101561025b578082015181840152602081019050610240565b50505050905090810190601f1680156102885780820380516001836020036101000a031916815260200191505b509250505060405180910390f35b3480156102a257600080fd5b506102ab61079e565b604051808273ffffffffffffffffffffffffffffffffffffffff16815260200191505060405180910390f35b3480156102e357600080fd5b50610326600480360360208110156102fa57600080fd5b81019080803573ffffffffffffffffffffffffffffffffffffffff1690602001909291905050506107c4565b60405180821515815260200191505060405180910390f35b610346610918565b6040518082815260200191505060405180910390f35b600061037d8273ffffffffffffffffffffffffffffffffffffffff16610b0d565b9050919050565b6000600160003373ffffffffffffffffffffffffffffffffffffffff1673ffffffffffffffffffffffffffffffffffffffff16815260200190815260200160002054905090565b6000600260003373ffffffffffffffffffffffffffffffffffffffff1673ffffffffffffffffffffffffffffffffffffffff16815260200190815260200160002060009054906101000a900460ff1661046f576040517f08c379a0000000000000000000000000000000000000000000000000000000008152600401808060200182810382526021815260200180610c726021913960400191505060405180910390fd5b600160003373ffffffffffffffffffffffffffffffffffffffff1673ffffffffffffffffffffffffffffffffffffffff16815260200190815260200160002054821115610507576040517f08c379a0000000000000000000000000000000000000000000000000000000008152600401808060200182810382526022815260200180610c2c6022913960400191505060405180910390fd5b61055982600160003373ffffffffffffffffffffffffffffffffffffffff1673ffffffffffffffffffffffffffffffffffffffff16815260200190815260200160002054610b2090919063ffffffff16565b600160003373ffffffffffffffffffffffffffffffffffffffff1673ffffffffffffffffffffffffffffffffffffffff1681526020019081526020016000208190555060003390508073ffffffffffffffffffffffffffffffffffffffff166108fc849081150290604051600060405180830381858888f193505050501580156105e7573d6000803e3d6000fd5b50600160003373ffffffffffffffffffffffffffffffffffffffff1673ffffffffffffffffffffffffffffffffffffffff16815260200190815260200160002054915050919050565b600047905090565b606060008054906101000a900473ffffffffffffffffffffffffffffffffffffffff1673ffffffffffffffffffffffffffffffffffffffff166306fdde036040518163ffffffff1660e01b815260040160006040518083038186803b1580156106a057600080fd5b505afa1580156106b4573d6000803e3d6000fd5b505050506040513d6000823e3d601f19601f8201168201806040525060208110156106de57600080fd5b81019080805160405193929190846401000000008211156106fe57600080fd5b8382019150602082018581111561071457600080fd5b825186600182028301116401000000008211171561073157600080fd5b8083526020830192505050908051906020019080838360005b8381101561076557808201518184015260208101905061074a565b50505050905090810190601f1680156107925780820380516001836020036101000a031916815260200191505b50604052505050905090565b600360009054906101000a900473ffffffffffffffffffffffffffffffffffffffff1681565b60003373ffffffffffffffffffffffffffffffffffffffff16600360009054906101000a900473ffffffffffffffffffffffffffffffffffffffff1673ffffffffffffffffffffffffffffffffffffffff161461086c576040517f08c379a0000000000000000000000000000000000000000000000000000000008152600401808060200182810382526024815260200180610c4e6024913960400191505060405180910390fd5b6001600260008473ffffffffffffffffffffffffffffffffffffffff1673ffffffffffffffffffffffffffffffffffffffff16815260200190815260200160002060006101000a81548160ff021916908315150217905550600260008373ffffffffffffffffffffffffffffffffffffffff1673ffffffffffffffffffffffffffffffffffffffff16815260200190815260200160002060009054906101000a900460ff169050919050565b6000600260003373ffffffffffffffffffffffffffffffffffffffff1673ffffffffffffffffffffffffffffffffffffffff16815260200190815260200160002060009054906101000a900460ff166109bc576040517f08c379a0000000000000000000000000000000000000000000000000000000008152600401808060200182810382526021815260200180610c726021913960400191505060405180910390fd5b6000341415610a33576040517f08c379a000000000000000000000000000000000000000000000000000000000815260040180806020018281038252601d8152602001807f6465706f73697420616d6f756e742063616e6e6f74206265207a65726f00000081525060200191505060405180910390fd5b610a8534600160003373ffffffffffffffffffffffffffffffffffffffff1673ffffffffffffffffffffffffffffffffffffffff16815260200190815260200160002054610ba390919063ffffffff16565b600160003373ffffffffffffffffffffffffffffffffffffffff1673ffffffffffffffffffffffffffffffffffffffff16815260200190815260200160002081905550600160003373ffffffffffffffffffffffffffffffffffffffff1673ffffffffffffffffffffffffffffffffffffffff16815260200190815260200160002054905090565b600080823b905060008111915050919050565b600082821115610b98576040517f08c379a000000000000000000000000000000000000000000000000000000000815260040180806020018281038252601e8152602001807f536166654d6174683a207375627472616374696f6e206f766572666c6f77000081525060200191505060405180910390fd5b818303905092915050565b600080828401905083811015610c21576040517f08c379a000000000000000000000000000000000000000000000000000000000815260040180806020018281038252601b8152602001807f536166654d6174683a206164646974696f6e206f766572666c6f77000000000081525060200191505060405180910390fd5b809150509291505056fe6e6f7420656e6f7567682062616c616e636520696e20796f7572206163636f756e746f6e6c79206f776e65722063616e2065786563757465207468697320636f6e7472616374796f752073686f756c6420626520656e726f6c6c656420746f206465706f736974a264697066735822122070a7bd0d2fadd9fd75ee7a8a069fa223942fc63c52a20b12f754405458dc6c4064736f6c634300060c0033",
					"opcodes": "PUSH1 0x80 PUSH1 0x40 MSTORE CALLVALUE DUP1 ISZERO PUSH2 0x10 JUMPI PUSH1 0x0 DUP1 REVERT JUMPDEST POP PUSH1 0x40 MLOAD PUSH2 0xD9D CODESIZE SUB DUP1 PUSH2 0xD9D DUP4 CODECOPY DUP2 DUP2 ADD PUSH1 0x40 MSTORE PUSH1 0x20 DUP2 LT ISZERO PUSH2 0x33 JUMPI PUSH1 0x0 DUP1 REVERT JUMPDEST DUP2 ADD SWAP1 DUP1 DUP1 MLOAD SWAP1 PUSH1 0x20 ADD SWAP1 SWAP3 SWAP2 SWAP1 POP POP POP CALLER PUSH1 0x3 PUSH1 0x0 PUSH2 0x100 EXP DUP2 SLOAD DUP2 PUSH20 0xFFFFFFFFFFFFFFFFFFFFFFFFFFFFFFFFFFFFFFFF MUL NOT AND SWAP1 DUP4 PUSH20 0xFFFFFFFFFFFFFFFFFFFFFFFFFFFFFFFFFFFFFFFF AND MUL OR SWAP1 SSTORE POP DUP1 PUSH1 0x0 DUP1 PUSH2 0x100 EXP DUP2 SLOAD DUP2 PUSH20 0xFFFFFFFFFFFFFFFFFFFFFFFFFFFFFFFFFFFFFFFF MUL NOT AND SWAP1 DUP4 PUSH20 0xFFFFFFFFFFFFFFFFFFFFFFFFFFFFFFFFFFFFFFFF AND MUL OR SWAP1 SSTORE POP POP PUSH2 0xCC8 DUP1 PUSH2 0xD5 PUSH1 0x0 CODECOPY PUSH1 0x0 RETURN INVALID PUSH1 0x80 PUSH1 0x40 MSTORE PUSH1 0x4 CALLDATASIZE LT PUSH2 0x7F JUMPI PUSH1 0x0 CALLDATALOAD PUSH1 0xE0 SHR DUP1 PUSH4 0x862B092B GT PUSH2 0x4E JUMPI DUP1 PUSH4 0x862B092B EQ PUSH2 0x206 JUMPI DUP1 PUSH4 0x8DA5CB5B EQ PUSH2 0x296 JUMPI DUP1 PUSH4 0xBA83D1A0 EQ PUSH2 0x2D7 JUMPI DUP1 PUSH4 0xD0E30DB0 EQ PUSH2 0x33E JUMPI PUSH2 0xF5 JUMP JUMPDEST DUP1 PUSH4 0xDDCFE8E EQ PUSH2 0xFA JUMPI DUP1 PUSH4 0x12065FE0 EQ PUSH2 0x161 JUMPI DUP1 PUSH4 0x2E1A7D4D EQ PUSH2 0x18C JUMPI DUP1 PUSH4 0x4A01A3BB EQ PUSH2 0x1DB JUMPI PUSH2 0xF5 JUMP JUMPDEST CALLDATASIZE PUSH2 0xF5 JUMPI CALLVALUE PUSH1 0x1 PUSH1 0x0 PUSH1 0x3 PUSH1 0x0 SWAP1 SLOAD SWAP1 PUSH2 0x100 EXP SWAP1 DIV PUSH20 0xFFFFFFFFFFFFFFFFFFFFFFFFFFFFFFFFFFFFFFFF AND PUSH20 0xFFFFFFFFFFFFFFFFFFFFFFFFFFFFFFFFFFFFFFFF AND PUSH20 0xFFFFFFFFFFFFFFFFFFFFFFFFFFFFFFFFFFFFFFFF AND DUP2 MSTORE PUSH1 0x20 ADD SWAP1 DUP2 MSTORE PUSH1 0x20 ADD PUSH1 0x0 KECCAK256 PUSH1 0x0 DUP3 DUP3 SLOAD ADD SWAP3 POP POP DUP2 SWAP1 SSTORE POP STOP JUMPDEST PUSH1 0x0 DUP1 REVERT JUMPDEST CALLVALUE DUP1 ISZERO PUSH2 0x106 JUMPI PUSH1 0x0 DUP1 REVERT JUMPDEST POP PUSH2 0x149 PUSH1 0x4 DUP1 CALLDATASIZE SUB PUSH1 0x20 DUP2 LT ISZERO PUSH2 0x11D JUMPI PUSH1 0x0 DUP1 REVERT JUMPDEST DUP2 ADD SWAP1 DUP1 DUP1 CALLDATALOAD PUSH20 0xFFFFFFFFFFFFFFFFFFFFFFFFFFFFFFFFFFFFFFFF AND SWAP1 PUSH1 0x20 ADD SWAP1 SWAP3 SWAP2 SWAP1 POP POP POP PUSH2 0x35C JUMP JUMPDEST PUSH1 0x40 MLOAD DUP1 DUP3 ISZERO ISZERO DUP2 MSTORE PUSH1 0x20 ADD SWAP2 POP POP PUSH1 0x40 MLOAD DUP1 SWAP2 SUB SWAP1 RETURN JUMPDEST CALLVALUE DUP1 ISZERO PUSH2 0x16D JUMPI PUSH1 0x0 DUP1 REVERT JUMPDEST POP PUSH2 0x176 PUSH2 0x384 JUMP JUMPDEST PUSH1 0x40 MLOAD DUP1 DUP3 DUP2 MSTORE PUSH1 0x20 ADD SWAP2 POP POP PUSH1 0x40 MLOAD DUP1 SWAP2 SUB SWAP1 RETURN JUMPDEST CALLVALUE DUP1 ISZERO PUSH2 0x198 JUMPI PUSH1 0x0 DUP1 REVERT JUMPDEST POP PUSH2 0x1C5 PUSH1 0x4 DUP1 CALLDATASIZE SUB PUSH1 0x20 DUP2 LT ISZERO PUSH2 0x1AF JUMPI PUSH1 0x0 DUP1 REVERT JUMPDEST DUP2 ADD SWAP1 DUP1 DUP1 CALLDATALOAD SWAP1 PUSH1 0x20 ADD SWAP1 SWAP3 SWAP2 SWAP1 POP POP POP PUSH2 0x3CB JUMP JUMPDEST PUSH1 0x40 MLOAD DUP1 DUP3 DUP2 MSTORE PUSH1 0x20 ADD SWAP2 POP POP PUSH1 0x40 MLOAD DUP1 SWAP2 SUB SWAP1 RETURN JUMPDEST CALLVALUE DUP1 ISZERO PUSH2 0x1E7 JUMPI PUSH1 0x0 DUP1 REVERT JUMPDEST POP PUSH2 0x1F0 PUSH2 0x630 JUMP JUMPDEST PUSH1 0x40 MLOAD DUP1 DUP3 DUP2 MSTORE PUSH1 0x20 ADD SWAP2 POP POP PUSH1 0x40 MLOAD DUP1 SWAP2 SUB SWAP1 RETURN JUMPDEST CALLVALUE DUP1 ISZERO PUSH2 0x212 JUMPI PUSH1 0x0 DUP1 REVERT JUMPDEST POP PUSH2 0x21B PUSH2 0x638 JUMP JUMPDEST PUSH1 0x40 MLOAD DUP1 DUP1 PUSH1 0x20 ADD DUP3 DUP2 SUB DUP3 MSTORE DUP4 DUP2 DUP2 MLOAD DUP2 MSTORE PUSH1 0x20 ADD SWAP2 POP DUP1 MLOAD SWAP1 PUSH1 0x20 ADD SWAP1 DUP1 DUP4 DUP4 PUSH1 0x0 JUMPDEST DUP4 DUP2 LT ISZERO PUSH2 0x25B JUMPI DUP1 DUP3 ADD MLOAD DUP2 DUP5 ADD MSTORE PUSH1 0x20 DUP2 ADD SWAP1 POP PUSH2 0x240 JUMP JUMPDEST POP POP POP POP SWAP1 POP SWAP1 DUP2 ADD SWAP1 PUSH1 0x1F AND DUP1 ISZERO PUSH2 0x288 JUMPI DUP1 DUP3 SUB DUP1 MLOAD PUSH1 0x1 DUP4 PUSH1 0x20 SUB PUSH2 0x100 EXP SUB NOT AND DUP2 MSTORE PUSH1 0x20 ADD SWAP2 POP JUMPDEST POP SWAP3 POP POP POP PUSH1 0x40 MLOAD DUP1 SWAP2 SUB SWAP1 RETURN JUMPDEST CALLVALUE DUP1 ISZERO PUSH2 0x2A2 JUMPI PUSH1 0x0 DUP1 REVERT JUMPDEST POP PUSH2 0x2AB PUSH2 0x79E JUMP JUMPDEST PUSH1 0x40 MLOAD DUP1 DUP3 PUSH20 0xFFFFFFFFFFFFFFFFFFFFFFFFFFFFFFFFFFFFFFFF AND DUP2 MSTORE PUSH1 0x20 ADD SWAP2 POP POP PUSH1 0x40 MLOAD DUP1 SWAP2 SUB SWAP1 RETURN JUMPDEST CALLVALUE DUP1 ISZERO PUSH2 0x2E3 JUMPI PUSH1 0x0 DUP1 REVERT JUMPDEST POP PUSH2 0x326 PUSH1 0x4 DUP1 CALLDATASIZE SUB PUSH1 0x20 DUP2 LT ISZERO PUSH2 0x2FA JUMPI PUSH1 0x0 DUP1 REVERT JUMPDEST DUP2 ADD SWAP1 DUP1 DUP1 CALLDATALOAD PUSH20 0xFFFFFFFFFFFFFFFFFFFFFFFFFFFFFFFFFFFFFFFF AND SWAP1 PUSH1 0x20 ADD SWAP1 SWAP3 SWAP2 SWAP1 POP POP POP PUSH2 0x7C4 JUMP JUMPDEST PUSH1 0x40 MLOAD DUP1 DUP3 ISZERO ISZERO DUP2 MSTORE PUSH1 0x20 ADD SWAP2 POP POP PUSH1 0x40 MLOAD DUP1 SWAP2 SUB SWAP1 RETURN JUMPDEST PUSH2 0x346 PUSH2 0x918 JUMP JUMPDEST PUSH1 0x40 MLOAD DUP1 DUP3 DUP2 MSTORE PUSH1 0x20 ADD SWAP2 POP POP PUSH1 0x40 MLOAD DUP1 SWAP2 SUB SWAP1 RETURN JUMPDEST PUSH1 0x0 PUSH2 0x37D DUP3 PUSH20 0xFFFFFFFFFFFFFFFFFFFFFFFFFFFFFFFFFFFFFFFF AND PUSH2 0xB0D JUMP JUMPDEST SWAP1 POP SWAP2 SWAP1 POP JUMP JUMPDEST PUSH1 0x0 PUSH1 0x1 PUSH1 0x0 CALLER PUSH20 0xFFFFFFFFFFFFFFFFFFFFFFFFFFFFFFFFFFFFFFFF AND PUSH20 0xFFFFFFFFFFFFFFFFFFFFFFFFFFFFFFFFFFFFFFFF AND DUP2 MSTORE PUSH1 0x20 ADD SWAP1 DUP2 MSTORE PUSH1 0x20 ADD PUSH1 0x0 KECCAK256 SLOAD SWAP1 POP SWAP1 JUMP JUMPDEST PUSH1 0x0 PUSH1 0x2 PUSH1 0x0 CALLER PUSH20 0xFFFFFFFFFFFFFFFFFFFFFFFFFFFFFFFFFFFFFFFF AND PUSH20 0xFFFFFFFFFFFFFFFFFFFFFFFFFFFFFFFFFFFFFFFF AND DUP2 MSTORE PUSH1 0x20 ADD SWAP1 DUP2 MSTORE PUSH1 0x20 ADD PUSH1 0x0 KECCAK256 PUSH1 0x0 SWAP1 SLOAD SWAP1 PUSH2 0x100 EXP SWAP1 DIV PUSH1 0xFF AND PUSH2 0x46F JUMPI PUSH1 0x40 MLOAD PUSH32 0x8C379A000000000000000000000000000000000000000000000000000000000 DUP2 MSTORE PUSH1 0x4 ADD DUP1 DUP1 PUSH1 0x20 ADD DUP3 DUP2 SUB DUP3 MSTORE PUSH1 0x21 DUP2 MSTORE PUSH1 0x20 ADD DUP1 PUSH2 0xC72 PUSH1 0x21 SWAP2 CODECOPY PUSH1 0x40 ADD SWAP2 POP POP PUSH1 0x40 MLOAD DUP1 SWAP2 SUB SWAP1 REVERT JUMPDEST PUSH1 0x1 PUSH1 0x0 CALLER PUSH20 0xFFFFFFFFFFFFFFFFFFFFFFFFFFFFFFFFFFFFFFFF AND PUSH20 0xFFFFFFFFFFFFFFFFFFFFFFFFFFFFFFFFFFFFFFFF AND DUP2 MSTORE PUSH1 0x20 ADD SWAP1 DUP2 MSTORE PUSH1 0x20 ADD PUSH1 0x0 KECCAK256 SLOAD DUP3 GT ISZERO PUSH2 0x507 JUMPI PUSH1 0x40 MLOAD PUSH32 0x8C379A000000000000000000000000000000000000000000000000000000000 DUP2 MSTORE PUSH1 0x4 ADD DUP1 DUP1 PUSH1 0x20 ADD DUP3 DUP2 SUB DUP3 MSTORE PUSH1 0x22 DUP2 MSTORE PUSH1 0x20 ADD DUP1 PUSH2 0xC2C PUSH1 0x22 SWAP2 CODECOPY PUSH1 0x40 ADD SWAP2 POP POP PUSH1 0x40 MLOAD DUP1 SWAP2 SUB SWAP1 REVERT JUMPDEST PUSH2 0x559 DUP3 PUSH1 0x1 PUSH1 0x0 CALLER PUSH20 0xFFFFFFFFFFFFFFFFFFFFFFFFFFFFFFFFFFFFFFFF AND PUSH20 0xFFFFFFFFFFFFFFFFFFFFFFFFFFFFFFFFFFFFFFFF AND DUP2 MSTORE PUSH1 0x20 ADD SWAP1 DUP2 MSTORE PUSH1 0x20 ADD PUSH1 0x0 KECCAK256 SLOAD PUSH2 0xB20 SWAP1 SWAP2 SWAP1 PUSH4 0xFFFFFFFF AND JUMP JUMPDEST PUSH1 0x1 PUSH1 0x0 CALLER PUSH20 0xFFFFFFFFFFFFFFFFFFFFFFFFFFFFFFFFFFFFFFFF AND PUSH20 0xFFFFFFFFFFFFFFFFFFFFFFFFFFFFFFFFFFFFFFFF AND DUP2 MSTORE PUSH1 0x20 ADD SWAP1 DUP2 MSTORE PUSH1 0x20 ADD PUSH1 0x0 KECCAK256 DUP2 SWAP1 SSTORE POP PUSH1 0x0 CALLER SWAP1 POP DUP1 PUSH20 0xFFFFFFFFFFFFFFFFFFFFFFFFFFFFFFFFFFFFFFFF AND PUSH2 0x8FC DUP5 SWAP1 DUP2 ISZERO MUL SWAP1 PUSH1 0x40 MLOAD PUSH1 0x0 PUSH1 0x40 MLOAD DUP1 DUP4 SUB DUP2 DUP6 DUP9 DUP9 CALL SWAP4 POP POP POP POP ISZERO DUP1 ISZERO PUSH2 0x5E7 JUMPI RETURNDATASIZE PUSH1 0x0 DUP1 RETURNDATACOPY RETURNDATASIZE PUSH1 0x0 REVERT JUMPDEST POP PUSH1 0x1 PUSH1 0x0 CALLER PUSH20 0xFFFFFFFFFFFFFFFFFFFFFFFFFFFFFFFFFFFFFFFF AND PUSH20 0xFFFFFFFFFFFFFFFFFFFFFFFFFFFFFFFFFFFFFFFF AND DUP2 MSTORE PUSH1 0x20 ADD SWAP1 DUP2 MSTORE PUSH1 0x20 ADD PUSH1 0x0 KECCAK256 SLOAD SWAP2 POP POP SWAP2 SWAP1 POP JUMP JUMPDEST PUSH1 0x0 SELFBALANCE SWAP1 POP SWAP1 JUMP JUMPDEST PUSH1 0x60 PUSH1 0x0 DUP1 SLOAD SWAP1 PUSH2 0x100 EXP SWAP1 DIV PUSH20 0xFFFFFFFFFFFFFFFFFFFFFFFFFFFFFFFFFFFFFFFF AND PUSH20 0xFFFFFFFFFFFFFFFFFFFFFFFFFFFFFFFFFFFFFFFF AND PUSH4 0x6FDDE03 PUSH1 0x40 MLOAD DUP2 PUSH4 0xFFFFFFFF AND PUSH1 0xE0 SHL DUP2 MSTORE PUSH1 0x4 ADD PUSH1 0x0 PUSH1 0x40 MLOAD DUP1 DUP4 SUB DUP2 DUP7 DUP1 EXTCODESIZE ISZERO DUP1 ISZERO PUSH2 0x6A0 JUMPI PUSH1 0x0 DUP1 REVERT JUMPDEST POP GAS STATICCALL ISZERO DUP1 ISZERO PUSH2 0x6B4 JUMPI RETURNDATASIZE PUSH1 0x0 DUP1 RETURNDATACOPY RETURNDATASIZE PUSH1 0x0 REVERT JUMPDEST POP POP POP POP PUSH1 0x40 MLOAD RETURNDATASIZE PUSH1 0x0 DUP3 RETURNDATACOPY RETURNDATASIZE PUSH1 0x1F NOT PUSH1 0x1F DUP3 ADD AND DUP3 ADD DUP1 PUSH1 0x40 MSTORE POP PUSH1 0x20 DUP2 LT ISZERO PUSH2 0x6DE JUMPI PUSH1 0x0 DUP1 REVERT JUMPDEST DUP2 ADD SWAP1 DUP1 DUP1 MLOAD PUSH1 0x40 MLOAD SWAP4 SWAP3 SWAP2 SWAP1 DUP5 PUSH5 0x100000000 DUP3 GT ISZERO PUSH2 0x6FE JUMPI PUSH1 0x0 DUP1 REVERT JUMPDEST DUP4 DUP3 ADD SWAP2 POP PUSH1 0x20 DUP3 ADD DUP6 DUP2 GT ISZERO PUSH2 0x714 JUMPI PUSH1 0x0 DUP1 REVERT JUMPDEST DUP3 MLOAD DUP7 PUSH1 0x1 DUP3 MUL DUP4 ADD GT PUSH5 0x100000000 DUP3 GT OR ISZERO PUSH2 0x731 JUMPI PUSH1 0x0 DUP1 REVERT JUMPDEST DUP1 DUP4 MSTORE PUSH1 0x20 DUP4 ADD SWAP3 POP POP POP SWAP1 DUP1 MLOAD SWAP1 PUSH1 0x20 ADD SWAP1 DUP1 DUP4 DUP4 PUSH1 0x0 JUMPDEST DUP4 DUP2 LT ISZERO PUSH2 0x765 JUMPI DUP1 DUP3 ADD MLOAD DUP2 DUP5 ADD MSTORE PUSH1 0x20 DUP2 ADD SWAP1 POP PUSH2 0x74A JUMP JUMPDEST POP POP POP POP SWAP1 POP SWAP1 DUP2 ADD SWAP1 PUSH1 0x1F AND DUP1 ISZERO PUSH2 0x792 JUMPI DUP1 DUP3 SUB DUP1 MLOAD PUSH1 0x1 DUP4 PUSH1 0x20 SUB PUSH2 0x100 EXP SUB NOT AND DUP2 MSTORE PUSH1 0x20 ADD SWAP2 POP JUMPDEST POP PUSH1 0x40 MSTORE POP POP POP SWAP1 POP SWAP1 JUMP JUMPDEST PUSH1 0x3 PUSH1 0x0 SWAP1 SLOAD SWAP1 PUSH2 0x100 EXP SWAP1 DIV PUSH20 0xFFFFFFFFFFFFFFFFFFFFFFFFFFFFFFFFFFFFFFFF AND DUP2 JUMP JUMPDEST PUSH1 0x0 CALLER PUSH20 0xFFFFFFFFFFFFFFFFFFFFFFFFFFFFFFFFFFFFFFFF AND PUSH1 0x3 PUSH1 0x0 SWAP1 SLOAD SWAP1 PUSH2 0x100 EXP SWAP1 DIV PUSH20 0xFFFFFFFFFFFFFFFFFFFFFFFFFFFFFFFFFFFFFFFF AND PUSH20 0xFFFFFFFFFFFFFFFFFFFFFFFFFFFFFFFFFFFFFFFF AND EQ PUSH2 0x86C JUMPI PUSH1 0x40 MLOAD PUSH32 0x8C379A000000000000000000000000000000000000000000000000000000000 DUP2 MSTORE PUSH1 0x4 ADD DUP1 DUP1 PUSH1 0x20 ADD DUP3 DUP2 SUB DUP3 MSTORE PUSH1 0x24 DUP2 MSTORE PUSH1 0x20 ADD DUP1 PUSH2 0xC4E PUSH1 0x24 SWAP2 CODECOPY PUSH1 0x40 ADD SWAP2 POP POP PUSH1 0x40 MLOAD DUP1 SWAP2 SUB SWAP1 REVERT JUMPDEST PUSH1 0x1 PUSH1 0x2 PUSH1 0x0 DUP5 PUSH20 0xFFFFFFFFFFFFFFFFFFFFFFFFFFFFFFFFFFFFFFFF AND PUSH20 0xFFFFFFFFFFFFFFFFFFFFFFFFFFFFFFFFFFFFFFFF AND DUP2 MSTORE PUSH1 0x20 ADD SWAP1 DUP2 MSTORE PUSH1 0x20 ADD PUSH1 0x0 KECCAK256 PUSH1 0x0 PUSH2 0x100 EXP DUP2 SLOAD DUP2 PUSH1 0xFF MUL NOT AND SWAP1 DUP4 ISZERO ISZERO MUL OR SWAP1 SSTORE POP PUSH1 0x2 PUSH1 0x0 DUP4 PUSH20 0xFFFFFFFFFFFFFFFFFFFFFFFFFFFFFFFFFFFFFFFF AND PUSH20 0xFFFFFFFFFFFFFFFFFFFFFFFFFFFFFFFFFFFFFFFF AND DUP2 MSTORE PUSH1 0x20 ADD SWAP1 DUP2 MSTORE PUSH1 0x20 ADD PUSH1 0x0 KECCAK256 PUSH1 0x0 SWAP1 SLOAD SWAP1 PUSH2 0x100 EXP SWAP1 DIV PUSH1 0xFF AND SWAP1 POP SWAP2 SWAP1 POP JUMP JUMPDEST PUSH1 0x0 PUSH1 0x2 PUSH1 0x0 CALLER PUSH20 0xFFFFFFFFFFFFFFFFFFFFFFFFFFFFFFFFFFFFFFFF AND PUSH20 0xFFFFFFFFFFFFFFFFFFFFFFFFFFFFFFFFFFFFFFFF AND DUP2 MSTORE PUSH1 0x20 ADD SWAP1 DUP2 MSTORE PUSH1 0x20 ADD PUSH1 0x0 KECCAK256 PUSH1 0x0 SWAP1 SLOAD SWAP1 PUSH2 0x100 EXP SWAP1 DIV PUSH1 0xFF AND PUSH2 0x9BC JUMPI PUSH1 0x40 MLOAD PUSH32 0x8C379A000000000000000000000000000000000000000000000000000000000 DUP2 MSTORE PUSH1 0x4 ADD DUP1 DUP1 PUSH1 0x20 ADD DUP3 DUP2 SUB DUP3 MSTORE PUSH1 0x21 DUP2 MSTORE PUSH1 0x20 ADD DUP1 PUSH2 0xC72 PUSH1 0x21 SWAP2 CODECOPY PUSH1 0x40 ADD SWAP2 POP POP PUSH1 0x40 MLOAD DUP1 SWAP2 SUB SWAP1 REVERT JUMPDEST PUSH1 0x0 CALLVALUE EQ ISZERO PUSH2 0xA33 JUMPI PUSH1 0x40 MLOAD PUSH32 0x8C379A000000000000000000000000000000000000000000000000000000000 DUP2 MSTORE PUSH1 0x4 ADD DUP1 DUP1 PUSH1 0x20 ADD DUP3 DUP2 SUB DUP3 MSTORE PUSH1 0x1D DUP2 MSTORE PUSH1 0x20 ADD DUP1 PUSH32 0x6465706F73697420616D6F756E742063616E6E6F74206265207A65726F000000 DUP2 MSTORE POP PUSH1 0x20 ADD SWAP2 POP POP PUSH1 0x40 MLOAD DUP1 SWAP2 SUB SWAP1 REVERT JUMPDEST PUSH2 0xA85 CALLVALUE PUSH1 0x1 PUSH1 0x0 CALLER PUSH20 0xFFFFFFFFFFFFFFFFFFFFFFFFFFFFFFFFFFFFFFFF AND PUSH20 0xFFFFFFFFFFFFFFFFFFFFFFFFFFFFFFFFFFFFFFFF AND DUP2 MSTORE PUSH1 0x20 ADD SWAP1 DUP2 MSTORE PUSH1 0x20 ADD PUSH1 0x0 KECCAK256 SLOAD PUSH2 0xBA3 SWAP1 SWAP2 SWAP1 PUSH4 0xFFFFFFFF AND JUMP JUMPDEST PUSH1 0x1 PUSH1 0x0 CALLER PUSH20 0xFFFFFFFFFFFFFFFFFFFFFFFFFFFFFFFFFFFFFFFF AND PUSH20 0xFFFFFFFFFFFFFFFFFFFFFFFFFFFFFFFFFFFFFFFF AND DUP2 MSTORE PUSH1 0x20 ADD SWAP1 DUP2 MSTORE PUSH1 0x20 ADD PUSH1 0x0 KECCAK256 DUP2 SWAP1 SSTORE POP PUSH1 0x1 PUSH1 0x0 CALLER PUSH20 0xFFFFFFFFFFFFFFFFFFFFFFFFFFFFFFFFFFFFFFFF AND PUSH20 0xFFFFFFFFFFFFFFFFFFFFFFFFFFFFFFFFFFFFFFFF AND DUP2 MSTORE PUSH1 0x20 ADD SWAP1 DUP2 MSTORE PUSH1 0x20 ADD PUSH1 0x0 KECCAK256 SLOAD SWAP1 POP SWAP1 JUMP JUMPDEST PUSH1 0x0 DUP1 DUP3 EXTCODESIZE SWAP1 POP PUSH1 0x0 DUP2 GT SWAP2 POP POP SWAP2 SWAP1 POP JUMP JUMPDEST PUSH1 0x0 DUP3 DUP3 GT ISZERO PUSH2 0xB98 JUMPI PUSH1 0x40 MLOAD PUSH32 0x8C379A000000000000000000000000000000000000000000000000000000000 DUP2 MSTORE PUSH1 0x4 ADD DUP1 DUP1 PUSH1 0x20 ADD DUP3 DUP2 SUB DUP3 MSTORE PUSH1 0x1E DUP2 MSTORE PUSH1 0x20 ADD DUP1 PUSH32 0x536166654D6174683A207375627472616374696F6E206F766572666C6F770000 DUP2 MSTORE POP PUSH1 0x20 ADD SWAP2 POP POP PUSH1 0x40 MLOAD DUP1 SWAP2 SUB SWAP1 REVERT JUMPDEST DUP2 DUP4 SUB SWAP1 POP SWAP3 SWAP2 POP POP JUMP JUMPDEST PUSH1 0x0 DUP1 DUP3 DUP5 ADD SWAP1 POP DUP4 DUP2 LT ISZERO PUSH2 0xC21 JUMPI PUSH1 0x40 MLOAD PUSH32 0x8C379A000000000000000000000000000000000000000000000000000000000 DUP2 MSTORE PUSH1 0x4 ADD DUP1 DUP1 PUSH1 0x20 ADD DUP3 DUP2 SUB DUP3 MSTORE PUSH1 0x1B DUP2 MSTORE PUSH1 0x20 ADD DUP1 PUSH32 0x536166654D6174683A206164646974696F6E206F766572666C6F770000000000 DUP2 MSTORE POP PUSH1 0x20 ADD SWAP2 POP POP PUSH1 0x40 MLOAD DUP1 SWAP2 SUB SWAP1 REVERT JUMPDEST DUP1 SWAP2 POP POP SWAP3 SWAP2 POP POP JUMP INVALID PUSH15 0x6F7420656E6F7567682062616C616E PUSH4 0x6520696E KECCAK256 PUSH26 0x6F7572206163636F756E746F6E6C79206F776E65722063616E20 PUSH6 0x786563757465 KECCAK256 PUSH21 0x68697320636F6E7472616374796F752073686F756C PUSH5 0x2062652065 PUSH15 0x726F6C6C656420746F206465706F73 PUSH10 0x74A26469706673582212 KECCAK256 PUSH17 0xA7BD0D2FADD9FD75EE7A8A069FA223942F 0xC6 EXTCODECOPY MSTORE LOG2 SIGNEXTEND SLT 0xF7 SLOAD BLOCKHASH SLOAD PC 0xDC PUSH13 0x4064736F6C634300060C003300 "
				},
				"gasEstimates": {
					"creation": {
						"codeDepositCost": "654400",
						"executionCost": "infinite",
						"totalCost": "infinite"
					},
					"external": {
						"checkAddress(address)": "1081",
						"deposit()": "infinite",
						"enroll(address)": "infinite",
						"getBalance()": "1125",
						"getContracttBalance()": "282",
						"getTokenName()": "infinite",
						"owner()": "1069",
						"withdraw(uint256)": "infinite"
					}
				},
				"methodIdentifiers": {
					"checkAddress(address)": "0ddcfe8e",
					"deposit()": "d0e30db0",
					"enroll(address)": "ba83d1a0",
					"getBalance()": "12065fe0",
					"getContracttBalance()": "4a01a3bb",
					"getTokenName()": "862b092b",
					"owner()": "8da5cb5b",
					"withdraw(uint256)": "2e1a7d4d"
				}
			},
			"storageLayout": {
				"storage": [
					{
						"astId": 37,
						"contract": "completed/SimpleBank_ethers..sol:SimpleBank",
						"label": "tokenContract",
						"offset": 0,
						"slot": "0",
						"type": "t_contract(Token)24"
					},
					{
						"astId": 41,
						"contract": "completed/SimpleBank_ethers..sol:SimpleBank",
						"label": "balances",
						"offset": 0,
						"slot": "1",
						"type": "t_mapping(t_address,t_uint256)"
					},
					{
						"astId": 45,
						"contract": "completed/SimpleBank_ethers..sol:SimpleBank",
						"label": "enrolled",
						"offset": 0,
						"slot": "2",
						"type": "t_mapping(t_address,t_bool)"
					},
					{
						"astId": 47,
						"contract": "completed/SimpleBank_ethers..sol:SimpleBank",
						"label": "owner",
						"offset": 0,
						"slot": "3",
						"type": "t_address"
					}
				],
				"types": {
					"t_address": {
						"encoding": "inplace",
						"label": "address",
						"numberOfBytes": "20"
					},
					"t_bool": {
						"encoding": "inplace",
						"label": "bool",
						"numberOfBytes": "1"
					},
					"t_contract(Token)24": {
						"encoding": "inplace",
						"label": "contract Token",
						"numberOfBytes": "20"
					},
					"t_mapping(t_address,t_bool)": {
						"encoding": "mapping",
						"key": "t_address",
						"label": "mapping(address => bool)",
						"numberOfBytes": "32",
						"value": "t_bool"
					},
					"t_mapping(t_address,t_uint256)": {
						"encoding": "mapping",
						"key": "t_address",
						"label": "mapping(address => uint256)",
						"numberOfBytes": "32",
						"value": "t_uint256"
					},
					"t_uint256": {
						"encoding": "inplace",
						"label": "uint256",
						"numberOfBytes": "32"
					}
				}
			},
			"userdoc": {
				"kind": "user",
				"methods": {
					"deposit()": {
						"notice": "Deposit ether into bank"
					},
					"enroll(address)": {
						"notice": "Enroll a customer with the bank"
					},
					"getBalance()": {
						"notice": "Get balance"
					},
					"withdraw(uint256)": {
						"notice": "Withdraw ether from bank"
					}
				},
				"version": 1
			}
		}
	}
}