{
	"to-be-completed/SupplyChain.sol": {
		"SupplyChain": {
			"abi": [
				{
					"inputs": [],
					"payable": false,
					"stateMutability": "nonpayable",
					"type": "constructor"
				},
				{
					"anonymous": false,
					"inputs": [
						{
							"indexed": false,
							"internalType": "uint256",
							"name": "sku",
							"type": "uint256"
						}
					],
					"name": "LogForSale",
					"type": "event"
				},
				{
					"anonymous": false,
					"inputs": [
						{
							"indexed": false,
							"internalType": "uint256",
							"name": "sku",
							"type": "uint256"
						}
					],
					"name": "LogReceived",
					"type": "event"
				},
				{
					"anonymous": false,
					"inputs": [
						{
							"indexed": false,
							"internalType": "uint256",
							"name": "sku",
							"type": "uint256"
						}
					],
					"name": "LogShipped",
					"type": "event"
				},
				{
					"anonymous": false,
					"inputs": [
						{
							"indexed": false,
							"internalType": "uint256",
							"name": "sku",
							"type": "uint256"
						}
					],
					"name": "LogSold",
					"type": "event"
				},
				{
					"constant": false,
					"inputs": [
						{
							"internalType": "string",
							"name": "_name",
							"type": "string"
						},
						{
							"internalType": "uint256",
							"name": "_price",
							"type": "uint256"
						}
					],
					"name": "addItem",
					"outputs": [
						{
							"internalType": "bool",
							"name": "",
							"type": "bool"
						}
					],
					"payable": false,
					"stateMutability": "nonpayable",
					"type": "function"
				},
				{
					"constant": false,
					"inputs": [
						{
							"internalType": "uint256",
							"name": "_sku",
							"type": "uint256"
						}
					],
					"name": "buyItem",
					"outputs": [],
					"payable": true,
					"stateMutability": "payable",
					"type": "function"
				},
				{
					"constant": true,
					"inputs": [
						{
							"internalType": "uint256",
							"name": "_sku",
							"type": "uint256"
						}
					],
					"name": "fetchItem",
					"outputs": [
						{
							"internalType": "string",
							"name": "name",
							"type": "string"
						},
						{
							"internalType": "uint256",
							"name": "sku",
							"type": "uint256"
						},
						{
							"internalType": "uint256",
							"name": "price",
							"type": "uint256"
						},
						{
							"internalType": "uint256",
							"name": "state",
							"type": "uint256"
						},
						{
							"internalType": "address",
							"name": "seller",
							"type": "address"
						},
						{
							"internalType": "address",
							"name": "buyer",
							"type": "address"
						}
					],
					"payable": false,
					"stateMutability": "view",
					"type": "function"
				},
				{
					"constant": true,
					"inputs": [
						{
							"internalType": "uint256",
							"name": "",
							"type": "uint256"
						}
					],
					"name": "items",
					"outputs": [
						{
							"internalType": "string",
							"name": "name",
							"type": "string"
						},
						{
							"internalType": "uint256",
							"name": "sku",
							"type": "uint256"
						},
						{
							"internalType": "uint256",
							"name": "price",
							"type": "uint256"
						},
						{
							"internalType": "enum SupplyChain.State",
							"name": "state",
							"type": "uint8"
						},
						{
							"internalType": "address payable",
							"name": "seller",
							"type": "address"
						},
						{
							"internalType": "address payable",
							"name": "buyer",
							"type": "address"
						}
					],
					"payable": false,
					"stateMutability": "view",
					"type": "function"
				},
				{
					"constant": true,
					"inputs": [],
					"name": "owner",
					"outputs": [
						{
							"internalType": "address",
							"name": "",
							"type": "address"
						}
					],
					"payable": false,
					"stateMutability": "view",
					"type": "function"
				},
				{
					"constant": false,
					"inputs": [
						{
							"internalType": "uint256",
							"name": "sku",
							"type": "uint256"
						}
					],
					"name": "receiveItem",
					"outputs": [],
					"payable": false,
					"stateMutability": "nonpayable",
					"type": "function"
				},
				{
					"constant": false,
					"inputs": [
						{
							"internalType": "uint256",
							"name": "_sku",
							"type": "uint256"
						}
					],
					"name": "shipItem",
					"outputs": [],
					"payable": false,
					"stateMutability": "nonpayable",
					"type": "function"
				}
			],
			"devdoc": {
				"methods": {}
			},
			"evm": {
				"assembly": "    /* \"to-be-completed/SupplyChain.sol\":232:5691  contract SupplyChain {\r... */\n  mstore(0x40, 0x80)\n    /* \"to-be-completed/SupplyChain.sol\":3298:3484  constructor() public {\r... */\n  callvalue\n    /* \"--CODEGEN--\":8:17   */\n  dup1\n    /* \"--CODEGEN--\":5:7   */\n  iszero\n  tag_1\n  jumpi\n    /* \"--CODEGEN--\":30:31   */\n  0x00\n    /* \"--CODEGEN--\":27:28   */\n  dup1\n    /* \"--CODEGEN--\":20:32   */\n  revert\n    /* \"--CODEGEN--\":5:7   */\ntag_1:\n    /* \"to-be-completed/SupplyChain.sol\":3298:3484  constructor() public {\r... */\n  pop\n    /* \"to-be-completed/SupplyChain.sol\":3446:3456  msg.sender */\n  caller\n    /* \"to-be-completed/SupplyChain.sol\":3440:3445  owner */\n  0x00\n  dup1\n    /* \"to-be-completed/SupplyChain.sol\":3440:3456  owner=msg.sender */\n  0x0100\n  exp\n  dup2\n  sload\n  dup2\n  0xffffffffffffffffffffffffffffffffffffffff\n  mul\n  not\n  and\n  swap1\n  dup4\n  0xffffffffffffffffffffffffffffffffffffffff\n  and\n  mul\n  or\n  swap1\n  sstore\n  pop\n    /* \"to-be-completed/SupplyChain.sol\":3475:3476  0 */\n  0x00\n    /* \"to-be-completed/SupplyChain.sol\":3466:3474  skuCount */\n  0x01\n    /* \"to-be-completed/SupplyChain.sol\":3466:3476  skuCount=0 */\n  dup2\n  swap1\n  sstore\n  pop\n    /* \"to-be-completed/SupplyChain.sol\":232:5691  contract SupplyChain {\r... */\n  dataSize(sub_0)\n  dup1\n  dataOffset(sub_0)\n  0x00\n  codecopy\n  0x00\n  return\nstop\n\nsub_0: assembly {\n        /* \"to-be-completed/SupplyChain.sol\":232:5691  contract SupplyChain {\r... */\n      mstore(0x40, 0x80)\n      jumpi(tag_1, lt(calldatasize, 0x04))\n      shr(0xe0, calldataload(0x00))\n      dup1\n      0xad4b9cfb\n      gt\n      tag_9\n      jumpi\n      dup1\n      0xad4b9cfb\n      eq\n      tag_5\n      jumpi\n      dup1\n      0xbfb231d2\n      eq\n      tag_6\n      jumpi\n      dup1\n      0xe7fb74c7\n      eq\n      tag_7\n      jumpi\n      dup1\n      0xf61c899a\n      eq\n      tag_8\n      jumpi\n      jump(tag_1)\n    tag_9:\n      dup1\n      0x62d6bbdf\n      eq\n      tag_2\n      jumpi\n      dup1\n      0x8da5cb5b\n      eq\n      tag_3\n      jumpi\n      dup1\n      0xa26be999\n      eq\n      tag_4\n      jumpi\n    tag_1:\n      0x00\n      dup1\n      revert\n        /* \"to-be-completed/SupplyChain.sol\":3490:3782  function addItem(string memory _name, uint _price) public returns(bool){\r... */\n    tag_2:\n      callvalue\n        /* \"--CODEGEN--\":8:17   */\n      dup1\n        /* \"--CODEGEN--\":5:7   */\n      iszero\n      tag_10\n      jumpi\n        /* \"--CODEGEN--\":30:31   */\n      0x00\n        /* \"--CODEGEN--\":27:28   */\n      dup1\n        /* \"--CODEGEN--\":20:32   */\n      revert\n        /* \"--CODEGEN--\":5:7   */\n    tag_10:\n        /* \"to-be-completed/SupplyChain.sol\":3490:3782  function addItem(string memory _name, uint _price) public returns(bool){\r... */\n      pop\n      tag_11\n      0x04\n      dup1\n      calldatasize\n      sub\n        /* \"--CODEGEN--\":13:15   */\n      0x40\n        /* \"--CODEGEN--\":8:11   */\n      dup2\n        /* \"--CODEGEN--\":5:16   */\n      lt\n        /* \"--CODEGEN--\":2:4   */\n      iszero\n      tag_12\n      jumpi\n        /* \"--CODEGEN--\":29:30   */\n      0x00\n        /* \"--CODEGEN--\":26:27   */\n      dup1\n        /* \"--CODEGEN--\":19:31   */\n      revert\n        /* \"--CODEGEN--\":2:4   */\n    tag_12:\n        /* \"to-be-completed/SupplyChain.sol\":3490:3782  function addItem(string memory _name, uint _price) public returns(bool){\r... */\n      dup2\n      add\n      swap1\n      dup1\n      dup1\n      calldataload\n      swap1\n      0x20\n      add\n      swap1\n        /* \"--CODEGEN--\":21:32   */\n      0x0100000000\n        /* \"--CODEGEN--\":8:19   */\n      dup2\n        /* \"--CODEGEN--\":5:33   */\n      gt\n        /* \"--CODEGEN--\":2:4   */\n      iszero\n      tag_13\n      jumpi\n        /* \"--CODEGEN--\":46:47   */\n      0x00\n        /* \"--CODEGEN--\":43:44   */\n      dup1\n        /* \"--CODEGEN--\":36:48   */\n      revert\n        /* \"--CODEGEN--\":2:4   */\n    tag_13:\n        /* \"to-be-completed/SupplyChain.sol\":3490:3782  function addItem(string memory _name, uint _price) public returns(bool){\r... */\n      dup3\n      add\n        /* \"--CODEGEN--\":35:44   */\n      dup4\n        /* \"--CODEGEN--\":28:32   */\n      0x20\n        /* \"--CODEGEN--\":12:26   */\n      dup3\n        /* \"--CODEGEN--\":8:33   */\n      add\n        /* \"--CODEGEN--\":5:45   */\n      gt\n        /* \"--CODEGEN--\":2:4   */\n      iszero\n      tag_14\n      jumpi\n        /* \"--CODEGEN--\":58:59   */\n      0x00\n        /* \"--CODEGEN--\":55:56   */\n      dup1\n        /* \"--CODEGEN--\":48:60   */\n      revert\n        /* \"--CODEGEN--\":2:4   */\n    tag_14:\n        /* \"to-be-completed/SupplyChain.sol\":3490:3782  function addItem(string memory _name, uint _price) public returns(bool){\r... */\n      dup1\n      calldataload\n      swap1\n      0x20\n      add\n      swap2\n        /* \"--CODEGEN--\":100:109   */\n      dup5\n        /* \"--CODEGEN--\":95:96   */\n      0x01\n        /* \"--CODEGEN--\":81:93   */\n      dup4\n        /* \"--CODEGEN--\":77:97   */\n      mul\n        /* \"--CODEGEN--\":67:75   */\n      dup5\n        /* \"--CODEGEN--\":63:98   */\n      add\n        /* \"--CODEGEN--\":60:110   */\n      gt\n        /* \"--CODEGEN--\":39:50   */\n      0x0100000000\n        /* \"--CODEGEN--\":25:37   */\n      dup4\n        /* \"--CODEGEN--\":22:51   */\n      gt\n        /* \"--CODEGEN--\":11:118   */\n      or\n        /* \"--CODEGEN--\":8:10   */\n      iszero\n      tag_15\n      jumpi\n        /* \"--CODEGEN--\":131:132   */\n      0x00\n        /* \"--CODEGEN--\":128:129   */\n      dup1\n        /* \"--CODEGEN--\":121:133   */\n      revert\n        /* \"--CODEGEN--\":8:10   */\n    tag_15:\n        /* \"to-be-completed/SupplyChain.sol\":3490:3782  function addItem(string memory _name, uint _price) public returns(bool){\r... */\n      swap2\n      swap1\n      dup1\n      dup1\n      0x1f\n      add\n      0x20\n      dup1\n      swap2\n      div\n      mul\n      0x20\n      add\n      mload(0x40)\n      swap1\n      dup2\n      add\n      0x40\n      mstore\n      dup1\n      swap4\n      swap3\n      swap2\n      swap1\n      dup2\n      dup2\n      mstore\n      0x20\n      add\n      dup4\n      dup4\n        /* \"--CODEGEN--\":30:33   */\n      dup1\n        /* \"--CODEGEN--\":22:28   */\n      dup3\n        /* \"--CODEGEN--\":14:20   */\n      dup5\n        /* \"--CODEGEN--\":1:34   */\n      calldatacopy\n        /* \"--CODEGEN--\":99:100   */\n      0x00\n        /* \"--CODEGEN--\":93:96   */\n      dup2\n        /* \"--CODEGEN--\":85:91   */\n      dup5\n        /* \"--CODEGEN--\":81:97   */\n      add\n        /* \"--CODEGEN--\":74:101   */\n      mstore\n        /* \"--CODEGEN--\":137:141   */\n      0x1f\n        /* \"--CODEGEN--\":133:142   */\n      not\n        /* \"--CODEGEN--\":126:130   */\n      0x1f\n        /* \"--CODEGEN--\":121:124   */\n      dup3\n        /* \"--CODEGEN--\":117:131   */\n      add\n        /* \"--CODEGEN--\":113:143   */\n      and\n        /* \"--CODEGEN--\":106:143   */\n      swap1\n      pop\n        /* \"--CODEGEN--\":169:172   */\n      dup1\n        /* \"--CODEGEN--\":161:167   */\n      dup4\n        /* \"--CODEGEN--\":157:173   */\n      add\n        /* \"--CODEGEN--\":147:173   */\n      swap3\n      pop\n        /* \"to-be-completed/SupplyChain.sol\":3490:3782  function addItem(string memory _name, uint _price) public returns(bool){\r... */\n      pop\n      pop\n      pop\n      pop\n      pop\n      pop\n      swap2\n      swap3\n      swap2\n      swap3\n      swap1\n      dup1\n      calldataload\n      swap1\n      0x20\n      add\n      swap1\n      swap3\n      swap2\n      swap1\n      pop\n      pop\n      pop\n      tag_16\n      jump\t// in\n    tag_11:\n      mload(0x40)\n      dup1\n      dup3\n      iszero\n      iszero\n      iszero\n      iszero\n      dup2\n      mstore\n      0x20\n      add\n      swap2\n      pop\n      pop\n      mload(0x40)\n      dup1\n      swap2\n      sub\n      swap1\n      return\n        /* \"to-be-completed/SupplyChain.sol\":279:299  address public owner */\n    tag_3:\n      callvalue\n        /* \"--CODEGEN--\":8:17   */\n      dup1\n        /* \"--CODEGEN--\":5:7   */\n      iszero\n      tag_17\n      jumpi\n        /* \"--CODEGEN--\":30:31   */\n      0x00\n        /* \"--CODEGEN--\":27:28   */\n      dup1\n        /* \"--CODEGEN--\":20:32   */\n      revert\n        /* \"--CODEGEN--\":5:7   */\n    tag_17:\n        /* \"to-be-completed/SupplyChain.sol\":279:299  address public owner */\n      pop\n      tag_18\n      tag_19\n      jump\t// in\n    tag_18:\n      mload(0x40)\n      dup1\n      dup3\n      0xffffffffffffffffffffffffffffffffffffffff\n      and\n      0xffffffffffffffffffffffffffffffffffffffff\n      and\n      dup2\n      mstore\n      0x20\n      add\n      swap2\n      pop\n      pop\n      mload(0x40)\n      dup1\n      swap2\n      sub\n      swap1\n      return\n        /* \"to-be-completed/SupplyChain.sol\":5160:5208  function receiveItem(uint sku)\r... */\n    tag_4:\n      callvalue\n        /* \"--CODEGEN--\":8:17   */\n      dup1\n        /* \"--CODEGEN--\":5:7   */\n      iszero\n      tag_20\n      jumpi\n        /* \"--CODEGEN--\":30:31   */\n      0x00\n        /* \"--CODEGEN--\":27:28   */\n      dup1\n        /* \"--CODEGEN--\":20:32   */\n      revert\n        /* \"--CODEGEN--\":5:7   */\n    tag_20:\n        /* \"to-be-completed/SupplyChain.sol\":5160:5208  function receiveItem(uint sku)\r... */\n      pop\n      tag_21\n      0x04\n      dup1\n      calldatasize\n      sub\n        /* \"--CODEGEN--\":13:15   */\n      0x20\n        /* \"--CODEGEN--\":8:11   */\n      dup2\n        /* \"--CODEGEN--\":5:16   */\n      lt\n        /* \"--CODEGEN--\":2:4   */\n      iszero\n      tag_22\n      jumpi\n        /* \"--CODEGEN--\":29:30   */\n      0x00\n        /* \"--CODEGEN--\":26:27   */\n      dup1\n        /* \"--CODEGEN--\":19:31   */\n      revert\n        /* \"--CODEGEN--\":2:4   */\n    tag_22:\n        /* \"to-be-completed/SupplyChain.sol\":5160:5208  function receiveItem(uint sku)\r... */\n      dup2\n      add\n      swap1\n      dup1\n      dup1\n      calldataload\n      swap1\n      0x20\n      add\n      swap1\n      swap3\n      swap2\n      swap1\n      pop\n      pop\n      pop\n      tag_23\n      jump\t// in\n    tag_21:\n      stop\n        /* \"to-be-completed/SupplyChain.sol\":5296:5686  function fetchItem(uint _sku) public view returns (string memory name, uint sku, uint price, uint state, address seller, address buyer) {\r... */\n    tag_5:\n      callvalue\n        /* \"--CODEGEN--\":8:17   */\n      dup1\n        /* \"--CODEGEN--\":5:7   */\n      iszero\n      tag_24\n      jumpi\n        /* \"--CODEGEN--\":30:31   */\n      0x00\n        /* \"--CODEGEN--\":27:28   */\n      dup1\n        /* \"--CODEGEN--\":20:32   */\n      revert\n        /* \"--CODEGEN--\":5:7   */\n    tag_24:\n        /* \"to-be-completed/SupplyChain.sol\":5296:5686  function fetchItem(uint _sku) public view returns (string memory name, uint sku, uint price, uint state, address seller, address buyer) {\r... */\n      pop\n      tag_25\n      0x04\n      dup1\n      calldatasize\n      sub\n        /* \"--CODEGEN--\":13:15   */\n      0x20\n        /* \"--CODEGEN--\":8:11   */\n      dup2\n        /* \"--CODEGEN--\":5:16   */\n      lt\n        /* \"--CODEGEN--\":2:4   */\n      iszero\n      tag_26\n      jumpi\n        /* \"--CODEGEN--\":29:30   */\n      0x00\n        /* \"--CODEGEN--\":26:27   */\n      dup1\n        /* \"--CODEGEN--\":19:31   */\n      revert\n        /* \"--CODEGEN--\":2:4   */\n    tag_26:\n        /* \"to-be-completed/SupplyChain.sol\":5296:5686  function fetchItem(uint _sku) public view returns (string memory name, uint sku, uint price, uint state, address seller, address buyer) {\r... */\n      dup2\n      add\n      swap1\n      dup1\n      dup1\n      calldataload\n      swap1\n      0x20\n      add\n      swap1\n      swap3\n      swap2\n      swap1\n      pop\n      pop\n      pop\n      tag_27\n      jump\t// in\n    tag_25:\n      mload(0x40)\n      dup1\n      dup1\n      0x20\n      add\n      dup8\n      dup2\n      mstore\n      0x20\n      add\n      dup7\n      dup2\n      mstore\n      0x20\n      add\n      dup6\n      dup2\n      mstore\n      0x20\n      add\n      dup5\n      0xffffffffffffffffffffffffffffffffffffffff\n      and\n      0xffffffffffffffffffffffffffffffffffffffff\n      and\n      dup2\n      mstore\n      0x20\n      add\n      dup4\n      0xffffffffffffffffffffffffffffffffffffffff\n      and\n      0xffffffffffffffffffffffffffffffffffffffff\n      and\n      dup2\n      mstore\n      0x20\n      add\n      dup3\n      dup2\n      sub\n      dup3\n      mstore\n      dup9\n      dup2\n      dup2\n      mload\n      dup2\n      mstore\n      0x20\n      add\n      swap2\n      pop\n      dup1\n      mload\n      swap1\n      0x20\n      add\n      swap1\n      dup1\n      dup4\n      dup4\n        /* \"--CODEGEN--\":23:24   */\n      0x00\n        /* \"--CODEGEN--\":8:108   */\n    tag_28:\n        /* \"--CODEGEN--\":33:36   */\n      dup4\n        /* \"--CODEGEN--\":30:31   */\n      dup2\n        /* \"--CODEGEN--\":27:37   */\n      lt\n        /* \"--CODEGEN--\":8:108   */\n      iszero\n      tag_30\n      jumpi\n        /* \"--CODEGEN--\":99:100   */\n      dup1\n        /* \"--CODEGEN--\":94:97   */\n      dup3\n        /* \"--CODEGEN--\":90:101   */\n      add\n        /* \"--CODEGEN--\":84:102   */\n      mload\n        /* \"--CODEGEN--\":80:81   */\n      dup2\n        /* \"--CODEGEN--\":75:78   */\n      dup5\n        /* \"--CODEGEN--\":71:82   */\n      add\n        /* \"--CODEGEN--\":64:103   */\n      mstore\n        /* \"--CODEGEN--\":52:54   */\n      0x20\n        /* \"--CODEGEN--\":49:50   */\n      dup2\n        /* \"--CODEGEN--\":45:55   */\n      add\n        /* \"--CODEGEN--\":40:55   */\n      swap1\n      pop\n        /* \"--CODEGEN--\":8:108   */\n      jump(tag_28)\n    tag_30:\n        /* \"--CODEGEN--\":12:26   */\n      pop\n        /* \"to-be-completed/SupplyChain.sol\":5296:5686  function fetchItem(uint _sku) public view returns (string memory name, uint sku, uint price, uint state, address seller, address buyer) {\r... */\n      pop\n      pop\n      pop\n      swap1\n      pop\n      swap1\n      dup2\n      add\n      swap1\n      0x1f\n      and\n      dup1\n      iszero\n      tag_31\n      jumpi\n      dup1\n      dup3\n      sub\n      dup1\n      mload\n      0x01\n      dup4\n      0x20\n      sub\n      0x0100\n      exp\n      sub\n      not\n      and\n      dup2\n      mstore\n      0x20\n      add\n      swap2\n      pop\n    tag_31:\n      pop\n      swap8\n      pop\n      pop\n      pop\n      pop\n      pop\n      pop\n      pop\n      pop\n      mload(0x40)\n      dup1\n      swap2\n      sub\n      swap1\n      return\n        /* \"to-be-completed/SupplyChain.sol\":1235:1268  mapping (uint=>Item) public items */\n    tag_6:\n      callvalue\n        /* \"--CODEGEN--\":8:17   */\n      dup1\n        /* \"--CODEGEN--\":5:7   */\n      iszero\n      tag_32\n      jumpi\n        /* \"--CODEGEN--\":30:31   */\n      0x00\n        /* \"--CODEGEN--\":27:28   */\n      dup1\n        /* \"--CODEGEN--\":20:32   */\n      revert\n        /* \"--CODEGEN--\":5:7   */\n    tag_32:\n        /* \"to-be-completed/SupplyChain.sol\":1235:1268  mapping (uint=>Item) public items */\n      pop\n      tag_33\n      0x04\n      dup1\n      calldatasize\n      sub\n        /* \"--CODEGEN--\":13:15   */\n      0x20\n        /* \"--CODEGEN--\":8:11   */\n      dup2\n        /* \"--CODEGEN--\":5:16   */\n      lt\n        /* \"--CODEGEN--\":2:4   */\n      iszero\n      tag_34\n      jumpi\n        /* \"--CODEGEN--\":29:30   */\n      0x00\n        /* \"--CODEGEN--\":26:27   */\n      dup1\n        /* \"--CODEGEN--\":19:31   */\n      revert\n        /* \"--CODEGEN--\":2:4   */\n    tag_34:\n        /* \"to-be-completed/SupplyChain.sol\":1235:1268  mapping (uint=>Item) public items */\n      dup2\n      add\n      swap1\n      dup1\n      dup1\n      calldataload\n      swap1\n      0x20\n      add\n      swap1\n      swap3\n      swap2\n      swap1\n      pop\n      pop\n      pop\n      tag_35\n      jump\t// in\n    tag_33:\n      mload(0x40)\n      dup1\n      dup1\n      0x20\n      add\n      dup8\n      dup2\n      mstore\n      0x20\n      add\n      dup7\n      dup2\n      mstore\n      0x20\n      add\n      dup6\n      0x03\n      dup2\n      gt\n      iszero\n      tag_36\n      jumpi\n      invalid\n    tag_36:\n      0xff\n      and\n      dup2\n      mstore\n      0x20\n      add\n      dup5\n      0xffffffffffffffffffffffffffffffffffffffff\n      and\n      0xffffffffffffffffffffffffffffffffffffffff\n      and\n      dup2\n      mstore\n      0x20\n      add\n      dup4\n      0xffffffffffffffffffffffffffffffffffffffff\n      and\n      0xffffffffffffffffffffffffffffffffffffffff\n      and\n      dup2\n      mstore\n      0x20\n      add\n      dup3\n      dup2\n      sub\n      dup3\n      mstore\n      dup9\n      dup2\n      dup2\n      mload\n      dup2\n      mstore\n      0x20\n      add\n      swap2\n      pop\n      dup1\n      mload\n      swap1\n      0x20\n      add\n      swap1\n      dup1\n      dup4\n      dup4\n        /* \"--CODEGEN--\":23:24   */\n      0x00\n        /* \"--CODEGEN--\":8:108   */\n    tag_37:\n        /* \"--CODEGEN--\":33:36   */\n      dup4\n        /* \"--CODEGEN--\":30:31   */\n      dup2\n        /* \"--CODEGEN--\":27:37   */\n      lt\n        /* \"--CODEGEN--\":8:108   */\n      iszero\n      tag_39\n      jumpi\n        /* \"--CODEGEN--\":99:100   */\n      dup1\n        /* \"--CODEGEN--\":94:97   */\n      dup3\n        /* \"--CODEGEN--\":90:101   */\n      add\n        /* \"--CODEGEN--\":84:102   */\n      mload\n        /* \"--CODEGEN--\":80:81   */\n      dup2\n        /* \"--CODEGEN--\":75:78   */\n      dup5\n        /* \"--CODEGEN--\":71:82   */\n      add\n        /* \"--CODEGEN--\":64:103   */\n      mstore\n        /* \"--CODEGEN--\":52:54   */\n      0x20\n        /* \"--CODEGEN--\":49:50   */\n      dup2\n        /* \"--CODEGEN--\":45:55   */\n      add\n        /* \"--CODEGEN--\":40:55   */\n      swap1\n      pop\n        /* \"--CODEGEN--\":8:108   */\n      jump(tag_37)\n    tag_39:\n        /* \"--CODEGEN--\":12:26   */\n      pop\n        /* \"to-be-completed/SupplyChain.sol\":1235:1268  mapping (uint=>Item) public items */\n      pop\n      pop\n      pop\n      swap1\n      pop\n      swap1\n      dup2\n      add\n      swap1\n      0x1f\n      and\n      dup1\n      iszero\n      tag_40\n      jumpi\n      dup1\n      dup3\n      sub\n      dup1\n      mload\n      0x01\n      dup4\n      0x20\n      sub\n      0x0100\n      exp\n      sub\n      not\n      and\n      dup2\n      mstore\n      0x20\n      add\n      swap2\n      pop\n    tag_40:\n      pop\n      swap8\n      pop\n      pop\n      pop\n      pop\n      pop\n      pop\n      pop\n      pop\n      mload(0x40)\n      dup1\n      swap2\n      sub\n      swap1\n      return\n        /* \"to-be-completed/SupplyChain.sol\":4270:4542  function buyItem(uint _sku)\r... */\n    tag_7:\n      tag_41\n      0x04\n      dup1\n      calldatasize\n      sub\n        /* \"--CODEGEN--\":13:15   */\n      0x20\n        /* \"--CODEGEN--\":8:11   */\n      dup2\n        /* \"--CODEGEN--\":5:16   */\n      lt\n        /* \"--CODEGEN--\":2:4   */\n      iszero\n      tag_42\n      jumpi\n        /* \"--CODEGEN--\":29:30   */\n      0x00\n        /* \"--CODEGEN--\":26:27   */\n      dup1\n        /* \"--CODEGEN--\":19:31   */\n      revert\n        /* \"--CODEGEN--\":2:4   */\n    tag_42:\n        /* \"to-be-completed/SupplyChain.sol\":4270:4542  function buyItem(uint _sku)\r... */\n      dup2\n      add\n      swap1\n      dup1\n      dup1\n      calldataload\n      swap1\n      0x20\n      add\n      swap1\n      swap3\n      swap2\n      swap1\n      pop\n      pop\n      pop\n      tag_43\n      jump\t// in\n    tag_41:\n      stop\n        /* \"to-be-completed/SupplyChain.sol\":4769:4930  function shipItem(uint _sku)\r... */\n    tag_8:\n      callvalue\n        /* \"--CODEGEN--\":8:17   */\n      dup1\n        /* \"--CODEGEN--\":5:7   */\n      iszero\n      tag_44\n      jumpi\n        /* \"--CODEGEN--\":30:31   */\n      0x00\n        /* \"--CODEGEN--\":27:28   */\n      dup1\n        /* \"--CODEGEN--\":20:32   */\n      revert\n        /* \"--CODEGEN--\":5:7   */\n    tag_44:\n        /* \"to-be-completed/SupplyChain.sol\":4769:4930  function shipItem(uint _sku)\r... */\n      pop\n      tag_45\n      0x04\n      dup1\n      calldatasize\n      sub\n        /* \"--CODEGEN--\":13:15   */\n      0x20\n        /* \"--CODEGEN--\":8:11   */\n      dup2\n        /* \"--CODEGEN--\":5:16   */\n      lt\n        /* \"--CODEGEN--\":2:4   */\n      iszero\n      tag_46\n      jumpi\n        /* \"--CODEGEN--\":29:30   */\n      0x00\n        /* \"--CODEGEN--\":26:27   */\n      dup1\n        /* \"--CODEGEN--\":19:31   */\n      revert\n        /* \"--CODEGEN--\":2:4   */\n    tag_46:\n        /* \"to-be-completed/SupplyChain.sol\":4769:4930  function shipItem(uint _sku)\r... */\n      dup2\n      add\n      swap1\n      dup1\n      dup1\n      calldataload\n      swap1\n      0x20\n      add\n      swap1\n      swap3\n      swap2\n      swap1\n      pop\n      pop\n      pop\n      tag_47\n      jump\t// in\n    tag_45:\n      stop\n        /* \"to-be-completed/SupplyChain.sol\":3490:3782  function addItem(string memory _name, uint _price) public returns(bool){\r... */\n    tag_16:\n        /* \"to-be-completed/SupplyChain.sol\":3556:3560  bool */\n      0x00\n        /* \"to-be-completed/SupplyChain.sol\":3573:3593  LogForSale(skuCount) */\n      0x4627c48065af2a9648cbecdd4b9da340c00e501243cd49a8a71c30c987e8b761\n        /* \"to-be-completed/SupplyChain.sol\":3584:3592  skuCount */\n      sload(0x01)\n        /* \"to-be-completed/SupplyChain.sol\":3573:3593  LogForSale(skuCount) */\n      mload(0x40)\n      dup1\n      dup3\n      dup2\n      mstore\n      0x20\n      add\n      swap2\n      pop\n      pop\n      mload(0x40)\n      dup1\n      swap2\n      sub\n      swap1\n      log1\n        /* \"to-be-completed/SupplyChain.sol\":3618:3728  Item({name: _name, sku: skuCount, price: _price, state: State.ForSale, seller: msg.sender, buyer: address(0)}) */\n      mload(0x40)\n      dup1\n      0xc0\n      add\n      0x40\n      mstore\n      dup1\n        /* \"to-be-completed/SupplyChain.sol\":3630:3635  _name */\n      dup5\n        /* \"to-be-completed/SupplyChain.sol\":3618:3728  Item({name: _name, sku: skuCount, price: _price, state: State.ForSale, seller: msg.sender, buyer: address(0)}) */\n      dup2\n      mstore\n      0x20\n      add\n        /* \"to-be-completed/SupplyChain.sol\":3642:3650  skuCount */\n      sload(0x01)\n        /* \"to-be-completed/SupplyChain.sol\":3618:3728  Item({name: _name, sku: skuCount, price: _price, state: State.ForSale, seller: msg.sender, buyer: address(0)}) */\n      dup2\n      mstore\n      0x20\n      add\n        /* \"to-be-completed/SupplyChain.sol\":3659:3665  _price */\n      dup4\n        /* \"to-be-completed/SupplyChain.sol\":3618:3728  Item({name: _name, sku: skuCount, price: _price, state: State.ForSale, seller: msg.sender, buyer: address(0)}) */\n      dup2\n      mstore\n      0x20\n      add\n        /* \"to-be-completed/SupplyChain.sol\":3674:3687  State.ForSale */\n      0x00\n        /* \"to-be-completed/SupplyChain.sol\":3618:3728  Item({name: _name, sku: skuCount, price: _price, state: State.ForSale, seller: msg.sender, buyer: address(0)}) */\n      0x03\n      dup2\n      gt\n      iszero\n      tag_49\n      jumpi\n      invalid\n    tag_49:\n      dup2\n      mstore\n      0x20\n      add\n        /* \"to-be-completed/SupplyChain.sol\":3697:3707  msg.sender */\n      caller\n        /* \"to-be-completed/SupplyChain.sol\":3618:3728  Item({name: _name, sku: skuCount, price: _price, state: State.ForSale, seller: msg.sender, buyer: address(0)}) */\n      0xffffffffffffffffffffffffffffffffffffffff\n      and\n      dup2\n      mstore\n      0x20\n      add\n        /* \"to-be-completed/SupplyChain.sol\":3724:3725  0 */\n      0x00\n        /* \"to-be-completed/SupplyChain.sol\":3618:3728  Item({name: _name, sku: skuCount, price: _price, state: State.ForSale, seller: msg.sender, buyer: address(0)}) */\n      0xffffffffffffffffffffffffffffffffffffffff\n      and\n      dup2\n      mstore\n      pop\n        /* \"to-be-completed/SupplyChain.sol\":3600:3605  items */\n      0x02\n        /* \"to-be-completed/SupplyChain.sol\":3600:3615  items[skuCount] */\n      0x00\n        /* \"to-be-completed/SupplyChain.sol\":3606:3614  skuCount */\n      sload(0x01)\n        /* \"to-be-completed/SupplyChain.sol\":3600:3615  items[skuCount] */\n      dup2\n      mstore\n      0x20\n      add\n      swap1\n      dup2\n      mstore\n      0x20\n      add\n      0x00\n      keccak256\n        /* \"to-be-completed/SupplyChain.sol\":3600:3728  items[skuCount] = Item({name: _name, sku: skuCount, price: _price, state: State.ForSale, seller: msg.sender, buyer: address(0)}) */\n      0x00\n      dup3\n      add\n      mload\n      dup2\n      0x00\n      add\n      swap1\n      dup1\n      mload\n      swap1\n      0x20\n      add\n      swap1\n      tag_50\n      swap3\n      swap2\n      swap1\n      tag_51\n      jump\t// in\n    tag_50:\n      pop\n      0x20\n      dup3\n      add\n      mload\n      dup2\n      0x01\n      add\n      sstore\n      0x40\n      dup3\n      add\n      mload\n      dup2\n      0x02\n      add\n      sstore\n      0x60\n      dup3\n      add\n      mload\n      dup2\n      0x03\n      add\n      exp(0x0100, 0x00)\n      dup2\n      sload\n      dup2\n      0xff\n      mul\n      not\n      and\n      swap1\n      dup4\n      0x03\n      dup2\n      gt\n      iszero\n      tag_52\n      jumpi\n      invalid\n    tag_52:\n      mul\n      or\n      swap1\n      sstore\n      pop\n      0x80\n      dup3\n      add\n      mload\n      dup2\n      0x03\n      add\n      exp(0x0100, 0x01)\n      dup2\n      sload\n      dup2\n      0xffffffffffffffffffffffffffffffffffffffff\n      mul\n      not\n      and\n      swap1\n      dup4\n      0xffffffffffffffffffffffffffffffffffffffff\n      and\n      mul\n      or\n      swap1\n      sstore\n      pop\n      0xa0\n      dup3\n      add\n      mload\n      dup2\n      0x04\n      add\n      exp(0x0100, 0x00)\n      dup2\n      sload\n      dup2\n      0xffffffffffffffffffffffffffffffffffffffff\n      mul\n      not\n      and\n      swap1\n      dup4\n      0xffffffffffffffffffffffffffffffffffffffff\n      and\n      mul\n      or\n      swap1\n      sstore\n      pop\n      swap1\n      pop\n      pop\n        /* \"to-be-completed/SupplyChain.sol\":3757:3758  1 */\n      0x01\n        /* \"to-be-completed/SupplyChain.sol\":3746:3754  skuCount */\n      dup1\n      sload\n        /* \"to-be-completed/SupplyChain.sol\":3746:3758  skuCount + 1 */\n      add\n        /* \"to-be-completed/SupplyChain.sol\":3735:3743  skuCount */\n      0x01\n        /* \"to-be-completed/SupplyChain.sol\":3735:3758  skuCount = skuCount + 1 */\n      dup2\n      swap1\n      sstore\n      pop\n        /* \"to-be-completed/SupplyChain.sol\":3772:3776  true */\n      0x01\n        /* \"to-be-completed/SupplyChain.sol\":3765:3776  return true */\n      swap1\n      pop\n        /* \"to-be-completed/SupplyChain.sol\":3490:3782  function addItem(string memory _name, uint _price) public returns(bool){\r... */\n      swap3\n      swap2\n      pop\n      pop\n      jump\t// out\n        /* \"to-be-completed/SupplyChain.sol\":279:299  address public owner */\n    tag_19:\n      0x00\n      dup1\n      swap1\n      sload\n      swap1\n      0x0100\n      exp\n      swap1\n      div\n      0xffffffffffffffffffffffffffffffffffffffff\n      and\n      dup2\n      jump\t// out\n        /* \"to-be-completed/SupplyChain.sol\":5160:5208  function receiveItem(uint sku)\r... */\n    tag_23:\n      pop\n      jump\t// out\n        /* \"to-be-completed/SupplyChain.sol\":5296:5686  function fetchItem(uint _sku) public view returns (string memory name, uint sku, uint price, uint state, address seller, address buyer) {\r... */\n    tag_27:\n        /* \"to-be-completed/SupplyChain.sol\":5347:5365  string memory name */\n      0x60\n        /* \"to-be-completed/SupplyChain.sol\":5367:5375  uint sku */\n      0x00\n        /* \"to-be-completed/SupplyChain.sol\":5377:5387  uint price */\n      dup1\n        /* \"to-be-completed/SupplyChain.sol\":5389:5399  uint state */\n      0x00\n        /* \"to-be-completed/SupplyChain.sol\":5401:5415  address seller */\n      dup1\n        /* \"to-be-completed/SupplyChain.sol\":5417:5430  address buyer */\n      0x00\n        /* \"to-be-completed/SupplyChain.sol\":5446:5451  items */\n      0x02\n        /* \"to-be-completed/SupplyChain.sol\":5446:5457  items[_sku] */\n      0x00\n        /* \"to-be-completed/SupplyChain.sol\":5452:5456  _sku */\n      dup9\n        /* \"to-be-completed/SupplyChain.sol\":5446:5457  items[_sku] */\n      dup2\n      mstore\n      0x20\n      add\n      swap1\n      dup2\n      mstore\n      0x20\n      add\n      0x00\n      keccak256\n        /* \"to-be-completed/SupplyChain.sol\":5446:5462  items[_sku].name */\n      0x00\n      add\n        /* \"to-be-completed/SupplyChain.sol\":5439:5462  name = items[_sku].name */\n      dup1\n      sload\n      0x01\n      dup2\n      0x01\n      and\n      iszero\n      0x0100\n      mul\n      sub\n      and\n      0x02\n      swap1\n      div\n      dup1\n      0x1f\n      add\n      0x20\n      dup1\n      swap2\n      div\n      mul\n      0x20\n      add\n      mload(0x40)\n      swap1\n      dup2\n      add\n      0x40\n      mstore\n      dup1\n      swap3\n      swap2\n      swap1\n      dup2\n      dup2\n      mstore\n      0x20\n      add\n      dup3\n      dup1\n      sload\n      0x01\n      dup2\n      0x01\n      and\n      iszero\n      0x0100\n      mul\n      sub\n      and\n      0x02\n      swap1\n      div\n      dup1\n      iszero\n      tag_55\n      jumpi\n      dup1\n      0x1f\n      lt\n      tag_56\n      jumpi\n      0x0100\n      dup1\n      dup4\n      sload\n      div\n      mul\n      dup4\n      mstore\n      swap2\n      0x20\n      add\n      swap2\n      jump(tag_55)\n    tag_56:\n      dup3\n      add\n      swap2\n      swap1\n      0x00\n      mstore\n      keccak256(0x00, 0x20)\n      swap1\n    tag_57:\n      dup2\n      sload\n      dup2\n      mstore\n      swap1\n      0x01\n      add\n      swap1\n      0x20\n      add\n      dup1\n      dup4\n      gt\n      tag_57\n      jumpi\n      dup3\n      swap1\n      sub\n      0x1f\n      and\n      dup3\n      add\n      swap2\n    tag_55:\n      pop\n      pop\n      pop\n      pop\n      pop\n      swap6\n      pop\n        /* \"to-be-completed/SupplyChain.sol\":5475:5480  items */\n      0x02\n        /* \"to-be-completed/SupplyChain.sol\":5475:5486  items[_sku] */\n      0x00\n        /* \"to-be-completed/SupplyChain.sol\":5481:5485  _sku */\n      dup9\n        /* \"to-be-completed/SupplyChain.sol\":5475:5486  items[_sku] */\n      dup2\n      mstore\n      0x20\n      add\n      swap1\n      dup2\n      mstore\n      0x20\n      add\n      0x00\n      keccak256\n        /* \"to-be-completed/SupplyChain.sol\":5475:5490  items[_sku].sku */\n      0x01\n      add\n      sload\n        /* \"to-be-completed/SupplyChain.sol\":5469:5490  sku = items[_sku].sku */\n      swap5\n      pop\n        /* \"to-be-completed/SupplyChain.sol\":5505:5510  items */\n      0x02\n        /* \"to-be-completed/SupplyChain.sol\":5505:5516  items[_sku] */\n      0x00\n        /* \"to-be-completed/SupplyChain.sol\":5511:5515  _sku */\n      dup9\n        /* \"to-be-completed/SupplyChain.sol\":5505:5516  items[_sku] */\n      dup2\n      mstore\n      0x20\n      add\n      swap1\n      dup2\n      mstore\n      0x20\n      add\n      0x00\n      keccak256\n        /* \"to-be-completed/SupplyChain.sol\":5505:5522  items[_sku].price */\n      0x02\n      add\n      sload\n        /* \"to-be-completed/SupplyChain.sol\":5497:5522  price = items[_sku].price */\n      swap4\n      pop\n        /* \"to-be-completed/SupplyChain.sol\":5542:5547  items */\n      0x02\n        /* \"to-be-completed/SupplyChain.sol\":5542:5553  items[_sku] */\n      0x00\n        /* \"to-be-completed/SupplyChain.sol\":5548:5552  _sku */\n      dup9\n        /* \"to-be-completed/SupplyChain.sol\":5542:5553  items[_sku] */\n      dup2\n      mstore\n      0x20\n      add\n      swap1\n      dup2\n      mstore\n      0x20\n      add\n      0x00\n      keccak256\n        /* \"to-be-completed/SupplyChain.sol\":5542:5559  items[_sku].state */\n      0x03\n      add\n      0x00\n      swap1\n      sload\n      swap1\n      0x0100\n      exp\n      swap1\n      div\n      0xff\n      and\n        /* \"to-be-completed/SupplyChain.sol\":5537:5560  uint(items[_sku].state) */\n      0x03\n      dup2\n      gt\n      iszero\n      tag_58\n      jumpi\n      invalid\n    tag_58:\n        /* \"to-be-completed/SupplyChain.sol\":5529:5560  state = uint(items[_sku].state) */\n      swap3\n      pop\n        /* \"to-be-completed/SupplyChain.sol\":5576:5581  items */\n      0x02\n        /* \"to-be-completed/SupplyChain.sol\":5576:5587  items[_sku] */\n      0x00\n        /* \"to-be-completed/SupplyChain.sol\":5582:5586  _sku */\n      dup9\n        /* \"to-be-completed/SupplyChain.sol\":5576:5587  items[_sku] */\n      dup2\n      mstore\n      0x20\n      add\n      swap1\n      dup2\n      mstore\n      0x20\n      add\n      0x00\n      keccak256\n        /* \"to-be-completed/SupplyChain.sol\":5576:5594  items[_sku].seller */\n      0x03\n      add\n      0x01\n      swap1\n      sload\n      swap1\n      0x0100\n      exp\n      swap1\n      div\n      0xffffffffffffffffffffffffffffffffffffffff\n      and\n        /* \"to-be-completed/SupplyChain.sol\":5567:5594  seller = items[_sku].seller */\n      swap2\n      pop\n        /* \"to-be-completed/SupplyChain.sol\":5609:5614  items */\n      0x02\n        /* \"to-be-completed/SupplyChain.sol\":5609:5620  items[_sku] */\n      0x00\n        /* \"to-be-completed/SupplyChain.sol\":5615:5619  _sku */\n      dup9\n        /* \"to-be-completed/SupplyChain.sol\":5609:5620  items[_sku] */\n      dup2\n      mstore\n      0x20\n      add\n      swap1\n      dup2\n      mstore\n      0x20\n      add\n      0x00\n      keccak256\n        /* \"to-be-completed/SupplyChain.sol\":5609:5626  items[_sku].buyer */\n      0x04\n      add\n      0x00\n      swap1\n      sload\n      swap1\n      0x0100\n      exp\n      swap1\n      div\n      0xffffffffffffffffffffffffffffffffffffffff\n      and\n        /* \"to-be-completed/SupplyChain.sol\":5601:5626  buyer = items[_sku].buyer */\n      swap1\n      pop\n        /* \"to-be-completed/SupplyChain.sol\":5641:5645  name */\n      dup6\n        /* \"to-be-completed/SupplyChain.sol\":5647:5650  sku */\n      dup6\n        /* \"to-be-completed/SupplyChain.sol\":5652:5657  price */\n      dup6\n        /* \"to-be-completed/SupplyChain.sol\":5659:5664  state */\n      dup6\n        /* \"to-be-completed/SupplyChain.sol\":5666:5672  seller */\n      dup6\n        /* \"to-be-completed/SupplyChain.sol\":5674:5679  buyer */\n      dup6\n        /* \"to-be-completed/SupplyChain.sol\":5633:5680  return (name, sku, price, state, seller, buyer) */\n      swap6\n      pop\n      swap6\n      pop\n      swap6\n      pop\n      swap6\n      pop\n      swap6\n      pop\n      swap6\n      pop\n        /* \"to-be-completed/SupplyChain.sol\":5296:5686  function fetchItem(uint _sku) public view returns (string memory name, uint sku, uint price, uint state, address seller, address buyer) {\r... */\n      swap2\n      swap4\n      swap6\n      pop\n      swap2\n      swap4\n      swap6\n      jump\t// out\n        /* \"to-be-completed/SupplyChain.sol\":1235:1268  mapping (uint=>Item) public items */\n    tag_35:\n      mstore(0x20, 0x02)\n      dup1\n      0x00\n      mstore\n      keccak256(0x00, 0x40)\n      0x00\n      swap2\n      pop\n      swap1\n      pop\n      dup1\n      0x00\n      add\n      dup1\n      sload\n      0x01\n      dup2\n      0x01\n      and\n      iszero\n      0x0100\n      mul\n      sub\n      and\n      0x02\n      swap1\n      div\n      dup1\n      0x1f\n      add\n      0x20\n      dup1\n      swap2\n      div\n      mul\n      0x20\n      add\n      mload(0x40)\n      swap1\n      dup2\n      add\n      0x40\n      mstore\n      dup1\n      swap3\n      swap2\n      swap1\n      dup2\n      dup2\n      mstore\n      0x20\n      add\n      dup3\n      dup1\n      sload\n      0x01\n      dup2\n      0x01\n      and\n      iszero\n      0x0100\n      mul\n      sub\n      and\n      0x02\n      swap1\n      div\n      dup1\n      iszero\n      tag_59\n      jumpi\n      dup1\n      0x1f\n      lt\n      tag_60\n      jumpi\n      0x0100\n      dup1\n      dup4\n      sload\n      div\n      mul\n      dup4\n      mstore\n      swap2\n      0x20\n      add\n      swap2\n      jump(tag_59)\n    tag_60:\n      dup3\n      add\n      swap2\n      swap1\n      0x00\n      mstore\n      keccak256(0x00, 0x20)\n      swap1\n    tag_61:\n      dup2\n      sload\n      dup2\n      mstore\n      swap1\n      0x01\n      add\n      swap1\n      0x20\n      add\n      dup1\n      dup4\n      gt\n      tag_61\n      jumpi\n      dup3\n      swap1\n      sub\n      0x1f\n      and\n      dup3\n      add\n      swap2\n    tag_59:\n      pop\n      pop\n      pop\n      pop\n      pop\n      swap1\n      dup1\n      0x01\n      add\n      sload\n      swap1\n      dup1\n      0x02\n      add\n      sload\n      swap1\n      dup1\n      0x03\n      add\n      0x00\n      swap1\n      sload\n      swap1\n      0x0100\n      exp\n      swap1\n      div\n      0xff\n      and\n      swap1\n      dup1\n      0x03\n      add\n      0x01\n      swap1\n      sload\n      swap1\n      0x0100\n      exp\n      swap1\n      div\n      0xffffffffffffffffffffffffffffffffffffffff\n      and\n      swap1\n      dup1\n      0x04\n      add\n      0x00\n      swap1\n      sload\n      swap1\n      0x0100\n      exp\n      swap1\n      div\n      0xffffffffffffffffffffffffffffffffffffffff\n      and\n      swap1\n      pop\n      dup7\n      jump\t// out\n        /* \"to-be-completed/SupplyChain.sol\":4270:4542  function buyItem(uint _sku)\r... */\n    tag_43:\n        /* \"to-be-completed/SupplyChain.sol\":4326:4330  _sku */\n      dup1\n        /* \"to-be-completed/SupplyChain.sol\":2868:2881  State.ForSale */\n      0x00\n        /* \"to-be-completed/SupplyChain.sol\":2863:2882  uint(State.ForSale) */\n      0x03\n      dup2\n      gt\n      iszero\n      tag_63\n      jumpi\n      invalid\n    tag_63:\n        /* \"to-be-completed/SupplyChain.sol\":2843:2848  items */\n      0x02\n        /* \"to-be-completed/SupplyChain.sol\":2843:2854  items[_sku] */\n      0x00\n        /* \"to-be-completed/SupplyChain.sol\":2849:2853  _sku */\n      dup4\n        /* \"to-be-completed/SupplyChain.sol\":2843:2854  items[_sku] */\n      dup2\n      mstore\n      0x20\n      add\n      swap1\n      dup2\n      mstore\n      0x20\n      add\n      0x00\n      keccak256\n        /* \"to-be-completed/SupplyChain.sol\":2843:2860  items[_sku].state */\n      0x03\n      add\n      0x00\n      swap1\n      sload\n      swap1\n      0x0100\n      exp\n      swap1\n      div\n      0xff\n      and\n        /* \"to-be-completed/SupplyChain.sol\":2838:2861  uint(items[_sku].state) */\n      0x03\n      dup2\n      gt\n      iszero\n      tag_64\n      jumpi\n      invalid\n    tag_64:\n        /* \"to-be-completed/SupplyChain.sol\":2838:2882  uint(items[_sku].state)==uint(State.ForSale) */\n      eq\n        /* \"to-be-completed/SupplyChain.sol\":2830:2898  require(uint(items[_sku].state)==uint(State.ForSale),\"Not for sale\") */\n      tag_65\n      jumpi\n      mload(0x40)\n      0x08c379a000000000000000000000000000000000000000000000000000000000\n      dup2\n      mstore\n      0x04\n      add\n      dup1\n      dup1\n      0x20\n      add\n      dup3\n      dup2\n      sub\n      dup3\n      mstore\n      0x0c\n      dup2\n      mstore\n      0x20\n      add\n      dup1\n      0x4e6f7420666f722073616c650000000000000000000000000000000000000000\n      dup2\n      mstore\n      pop\n      0x20\n      add\n      swap2\n      pop\n      pop\n      mload(0x40)\n      dup1\n      swap2\n      sub\n      swap1\n      revert\n    tag_65:\n        /* \"to-be-completed/SupplyChain.sol\":4343:4348  items */\n      0x02\n        /* \"to-be-completed/SupplyChain.sol\":4343:4354  items[_sku] */\n      0x00\n        /* \"to-be-completed/SupplyChain.sol\":4349:4353  _sku */\n      dup4\n        /* \"to-be-completed/SupplyChain.sol\":4343:4354  items[_sku] */\n      dup2\n      mstore\n      0x20\n      add\n      swap1\n      dup2\n      mstore\n      0x20\n      add\n      0x00\n      keccak256\n        /* \"to-be-completed/SupplyChain.sol\":4343:4360  items[_sku].price */\n      0x02\n      add\n      sload\n        /* \"to-be-completed/SupplyChain.sol\":1987:1993  _price */\n      dup1\n        /* \"to-be-completed/SupplyChain.sol\":1974:1983  msg.value */\n      callvalue\n        /* \"to-be-completed/SupplyChain.sol\":1974:1993  msg.value >= _price */\n      lt\n      iszero\n        /* \"to-be-completed/SupplyChain.sol\":1966:2016  require(msg.value >= _price,\"not enough payement\") */\n      tag_67\n      jumpi\n      mload(0x40)\n      0x08c379a000000000000000000000000000000000000000000000000000000000\n      dup2\n      mstore\n      0x04\n      add\n      dup1\n      dup1\n      0x20\n      add\n      dup3\n      dup2\n      sub\n      dup3\n      mstore\n      0x13\n      dup2\n      mstore\n      0x20\n      add\n      dup1\n      0x6e6f7420656e6f75676820706179656d656e7400000000000000000000000000\n      dup2\n      mstore\n      pop\n      0x20\n      add\n      swap2\n      pop\n      pop\n      mload(0x40)\n      dup1\n      swap2\n      sub\n      swap1\n      revert\n    tag_67:\n        /* \"to-be-completed/SupplyChain.sol\":4373:4377  _sku */\n      dup3\n        /* \"to-be-completed/SupplyChain.sol\":4387:4406  Item memory buyItem */\n      tag_70\n      tag_71\n      jump\t// in\n    tag_70:\n        /* \"to-be-completed/SupplyChain.sol\":4407:4412  items */\n      0x02\n        /* \"to-be-completed/SupplyChain.sol\":4407:4418  items[_sku] */\n      0x00\n        /* \"to-be-completed/SupplyChain.sol\":4413:4417  _sku */\n      dup7\n        /* \"to-be-completed/SupplyChain.sol\":4407:4418  items[_sku] */\n      dup2\n      mstore\n      0x20\n      add\n      swap1\n      dup2\n      mstore\n      0x20\n      add\n      0x00\n      keccak256\n        /* \"to-be-completed/SupplyChain.sol\":4387:4418  Item memory buyItem=items[_sku] */\n      mload(0x40)\n      dup1\n      0xc0\n      add\n      0x40\n      mstore\n      swap1\n      dup2\n      0x00\n      dup3\n      add\n      dup1\n      sload\n      0x01\n      dup2\n      0x01\n      and\n      iszero\n      0x0100\n      mul\n      sub\n      and\n      0x02\n      swap1\n      div\n      dup1\n      0x1f\n      add\n      0x20\n      dup1\n      swap2\n      div\n      mul\n      0x20\n      add\n      mload(0x40)\n      swap1\n      dup2\n      add\n      0x40\n      mstore\n      dup1\n      swap3\n      swap2\n      swap1\n      dup2\n      dup2\n      mstore\n      0x20\n      add\n      dup3\n      dup1\n      sload\n      0x01\n      dup2\n      0x01\n      and\n      iszero\n      0x0100\n      mul\n      sub\n      and\n      0x02\n      swap1\n      div\n      dup1\n      iszero\n      tag_72\n      jumpi\n      dup1\n      0x1f\n      lt\n      tag_73\n      jumpi\n      0x0100\n      dup1\n      dup4\n      sload\n      div\n      mul\n      dup4\n      mstore\n      swap2\n      0x20\n      add\n      swap2\n      jump(tag_72)\n    tag_73:\n      dup3\n      add\n      swap2\n      swap1\n      0x00\n      mstore\n      keccak256(0x00, 0x20)\n      swap1\n    tag_74:\n      dup2\n      sload\n      dup2\n      mstore\n      swap1\n      0x01\n      add\n      swap1\n      0x20\n      add\n      dup1\n      dup4\n      gt\n      tag_74\n      jumpi\n      dup3\n      swap1\n      sub\n      0x1f\n      and\n      dup3\n      add\n      swap2\n    tag_72:\n      pop\n      pop\n      pop\n      pop\n      pop\n      dup2\n      mstore\n      0x20\n      add\n      0x01\n      dup3\n      add\n      sload\n      dup2\n      mstore\n      0x20\n      add\n      0x02\n      dup3\n      add\n      sload\n      dup2\n      mstore\n      0x20\n      add\n      0x03\n      dup3\n      add\n      0x00\n      swap1\n      sload\n      swap1\n      0x0100\n      exp\n      swap1\n      div\n      0xff\n      and\n      0x03\n      dup2\n      gt\n      iszero\n      tag_75\n      jumpi\n      invalid\n    tag_75:\n      0x03\n      dup2\n      gt\n      iszero\n      tag_76\n      jumpi\n      invalid\n    tag_76:\n      dup2\n      mstore\n      0x20\n      add\n      0x03\n      dup3\n      add\n      0x01\n      swap1\n      sload\n      swap1\n      0x0100\n      exp\n      swap1\n      div\n      0xffffffffffffffffffffffffffffffffffffffff\n      and\n      0xffffffffffffffffffffffffffffffffffffffff\n      and\n      0xffffffffffffffffffffffffffffffffffffffff\n      and\n      dup2\n      mstore\n      0x20\n      add\n      0x04\n      dup3\n      add\n      0x00\n      swap1\n      sload\n      swap1\n      0x0100\n      exp\n      swap1\n      div\n      0xffffffffffffffffffffffffffffffffffffffff\n      and\n      0xffffffffffffffffffffffffffffffffffffffff\n      and\n      0xffffffffffffffffffffffffffffffffffffffff\n      and\n      dup2\n      mstore\n      pop\n      pop\n      swap1\n      pop\n        /* \"to-be-completed/SupplyChain.sol\":4435:4445  msg.sender */\n      caller\n        /* \"to-be-completed/SupplyChain.sol\":4421:4428  buyItem */\n      dup2\n        /* \"to-be-completed/SupplyChain.sol\":4421:4434  buyItem.buyer */\n      0xa0\n      add\n        /* \"to-be-completed/SupplyChain.sol\":4421:4445  buyItem.buyer=msg.sender */\n      swap1\n      0xffffffffffffffffffffffffffffffffffffffff\n      and\n      swap1\n      dup2\n      0xffffffffffffffffffffffffffffffffffffffff\n      and\n      dup2\n      mstore\n      pop\n      pop\n        /* \"to-be-completed/SupplyChain.sol\":4448:4455  buyItem */\n      dup1\n        /* \"to-be-completed/SupplyChain.sol\":4448:4462  buyItem.seller */\n      0x80\n      add\n      mload\n        /* \"to-be-completed/SupplyChain.sol\":4448:4471  buyItem.seller.transfer */\n      0xffffffffffffffffffffffffffffffffffffffff\n      and\n        /* \"to-be-completed/SupplyChain.sol\":4448:4486  buyItem.seller.transfer(buyItem.price) */\n      0x08fc\n        /* \"to-be-completed/SupplyChain.sol\":4472:4479  buyItem */\n      dup3\n        /* \"to-be-completed/SupplyChain.sol\":4472:4485  buyItem.price */\n      0x40\n      add\n      mload\n        /* \"to-be-completed/SupplyChain.sol\":4448:4486  buyItem.seller.transfer(buyItem.price) */\n      swap1\n      dup2\n      iszero\n      mul\n      swap1\n      mload(0x40)\n      0x00\n      mload(0x40)\n      dup1\n      dup4\n      sub\n      dup2\n      dup6\n      dup9\n      dup9\n      call\n      swap4\n      pop\n      pop\n      pop\n      pop\n      iszero\n        /* \"--CODEGEN--\":8:17   */\n      dup1\n        /* \"--CODEGEN--\":5:7   */\n      iszero\n      tag_77\n      jumpi\n        /* \"--CODEGEN--\":45:61   */\n      returndatasize\n        /* \"--CODEGEN--\":42:43   */\n      0x00\n        /* \"--CODEGEN--\":39:40   */\n      dup1\n        /* \"--CODEGEN--\":24:62   */\n      returndatacopy\n        /* \"--CODEGEN--\":77:93   */\n      returndatasize\n        /* \"--CODEGEN--\":74:75   */\n      0x00\n        /* \"--CODEGEN--\":67:94   */\n      revert\n        /* \"--CODEGEN--\":5:7   */\n    tag_77:\n        /* \"to-be-completed/SupplyChain.sol\":4448:4486  buyItem.seller.transfer(buyItem.price) */\n      pop\n        /* \"to-be-completed/SupplyChain.sol\":4503:4513  State.Sold */\n      0x01\n        /* \"to-be-completed/SupplyChain.sol\":4489:4496  buyItem */\n      dup2\n        /* \"to-be-completed/SupplyChain.sol\":4489:4502  buyItem.state */\n      0x60\n      add\n        /* \"to-be-completed/SupplyChain.sol\":4489:4513  buyItem.state=State.Sold */\n      swap1\n      0x03\n      dup2\n      gt\n      iszero\n      tag_78\n      jumpi\n      invalid\n    tag_78:\n      swap1\n      dup2\n      0x03\n      dup2\n      gt\n      iszero\n      tag_79\n      jumpi\n      invalid\n    tag_79:\n      dup2\n      mstore\n      pop\n      pop\n        /* \"to-be-completed/SupplyChain.sol\":4521:4534  LogSold(_sku) */\n      0xe64ca8c671e48636f85f3008c1dd538e36bfa74fb6f2790b56b72fcc33b879ef\n        /* \"to-be-completed/SupplyChain.sol\":4529:4533  _sku */\n      dup6\n        /* \"to-be-completed/SupplyChain.sol\":4521:4534  LogSold(_sku) */\n      mload(0x40)\n      dup1\n      dup3\n      dup2\n      mstore\n      0x20\n      add\n      swap2\n      pop\n      pop\n      mload(0x40)\n      dup1\n      swap2\n      sub\n      swap1\n      log1\n        /* \"to-be-completed/SupplyChain.sol\":2152:2153  _ */\n      pop\n        /* \"to-be-completed/SupplyChain.sol\":2160:2171  uint _price */\n      0x00\n        /* \"to-be-completed/SupplyChain.sol\":2174:2179  items */\n      0x02\n        /* \"to-be-completed/SupplyChain.sol\":2174:2185  items[_sku] */\n      0x00\n        /* \"to-be-completed/SupplyChain.sol\":2180:2184  _sku */\n      dup4\n        /* \"to-be-completed/SupplyChain.sol\":2174:2185  items[_sku] */\n      dup2\n      mstore\n      0x20\n      add\n      swap1\n      dup2\n      mstore\n      0x20\n      add\n      0x00\n      keccak256\n        /* \"to-be-completed/SupplyChain.sol\":2174:2191  items[_sku].price */\n      0x02\n      add\n      sload\n        /* \"to-be-completed/SupplyChain.sol\":2160:2191  uint _price = items[_sku].price */\n      swap1\n      pop\n        /* \"to-be-completed/SupplyChain.sol\":2198:2217  uint amountToRefund */\n      0x00\n        /* \"to-be-completed/SupplyChain.sol\":2232:2238  _price */\n      dup2\n        /* \"to-be-completed/SupplyChain.sol\":2220:2229  msg.value */\n      callvalue\n        /* \"to-be-completed/SupplyChain.sol\":2220:2238  msg.value - _price */\n      sub\n        /* \"to-be-completed/SupplyChain.sol\":2198:2238  uint amountToRefund = msg.value - _price */\n      swap1\n      pop\n        /* \"to-be-completed/SupplyChain.sol\":2245:2250  items */\n      0x02\n        /* \"to-be-completed/SupplyChain.sol\":2245:2256  items[_sku] */\n      0x00\n        /* \"to-be-completed/SupplyChain.sol\":2251:2255  _sku */\n      dup5\n        /* \"to-be-completed/SupplyChain.sol\":2245:2256  items[_sku] */\n      dup2\n      mstore\n      0x20\n      add\n      swap1\n      dup2\n      mstore\n      0x20\n      add\n      0x00\n      keccak256\n        /* \"to-be-completed/SupplyChain.sol\":2245:2262  items[_sku].buyer */\n      0x04\n      add\n      0x00\n      swap1\n      sload\n      swap1\n      0x0100\n      exp\n      swap1\n      div\n      0xffffffffffffffffffffffffffffffffffffffff\n      and\n        /* \"to-be-completed/SupplyChain.sol\":2245:2271  items[_sku].buyer.transfer */\n      0xffffffffffffffffffffffffffffffffffffffff\n      and\n        /* \"to-be-completed/SupplyChain.sol\":2245:2287  items[_sku].buyer.transfer(amountToRefund) */\n      0x08fc\n        /* \"to-be-completed/SupplyChain.sol\":2272:2286  amountToRefund */\n      dup3\n        /* \"to-be-completed/SupplyChain.sol\":2245:2287  items[_sku].buyer.transfer(amountToRefund) */\n      swap1\n      dup2\n      iszero\n      mul\n      swap1\n      mload(0x40)\n      0x00\n      mload(0x40)\n      dup1\n      dup4\n      sub\n      dup2\n      dup6\n      dup9\n      dup9\n      call\n      swap4\n      pop\n      pop\n      pop\n      pop\n      iszero\n        /* \"--CODEGEN--\":8:17   */\n      dup1\n        /* \"--CODEGEN--\":5:7   */\n      iszero\n      tag_80\n      jumpi\n        /* \"--CODEGEN--\":45:61   */\n      returndatasize\n        /* \"--CODEGEN--\":42:43   */\n      0x00\n        /* \"--CODEGEN--\":39:40   */\n      dup1\n        /* \"--CODEGEN--\":24:62   */\n      returndatacopy\n        /* \"--CODEGEN--\":77:93   */\n      returndatasize\n        /* \"--CODEGEN--\":74:75   */\n      0x00\n        /* \"--CODEGEN--\":67:94   */\n      revert\n        /* \"--CODEGEN--\":5:7   */\n    tag_80:\n        /* \"to-be-completed/SupplyChain.sol\":2245:2287  items[_sku].buyer.transfer(amountToRefund) */\n      pop\n        /* \"to-be-completed/SupplyChain.sol\":2018:2019  _ */\n      pop\n      pop\n      pop\n        /* \"to-be-completed/SupplyChain.sol\":2905:2906  _ */\n      pop\n        /* \"to-be-completed/SupplyChain.sol\":4270:4542  function buyItem(uint _sku)\r... */\n      pop\n      pop\n      jump\t// out\n        /* \"to-be-completed/SupplyChain.sol\":4769:4930  function shipItem(uint _sku)\r... */\n    tag_47:\n        /* \"to-be-completed/SupplyChain.sol\":4815:4819  _sku */\n      dup1\n        /* \"to-be-completed/SupplyChain.sol\":2999:3009  State.Sold */\n      0x01\n        /* \"to-be-completed/SupplyChain.sol\":2994:3010  uint(State.Sold) */\n      0x03\n      dup2\n      gt\n      iszero\n      tag_82\n      jumpi\n      invalid\n    tag_82:\n        /* \"to-be-completed/SupplyChain.sol\":2974:2979  items */\n      0x02\n        /* \"to-be-completed/SupplyChain.sol\":2974:2985  items[_sku] */\n      0x00\n        /* \"to-be-completed/SupplyChain.sol\":2980:2984  _sku */\n      dup4\n        /* \"to-be-completed/SupplyChain.sol\":2974:2985  items[_sku] */\n      dup2\n      mstore\n      0x20\n      add\n      swap1\n      dup2\n      mstore\n      0x20\n      add\n      0x00\n      keccak256\n        /* \"to-be-completed/SupplyChain.sol\":2974:2991  items[_sku].state */\n      0x03\n      add\n      0x00\n      swap1\n      sload\n      swap1\n      0x0100\n      exp\n      swap1\n      div\n      0xff\n      and\n        /* \"to-be-completed/SupplyChain.sol\":2969:2992  uint(items[_sku].state) */\n      0x03\n      dup2\n      gt\n      iszero\n      tag_83\n      jumpi\n      invalid\n    tag_83:\n        /* \"to-be-completed/SupplyChain.sol\":2969:3010  uint(items[_sku].state)==uint(State.Sold) */\n      eq\n        /* \"to-be-completed/SupplyChain.sol\":2961:3023  require(uint(items[_sku].state)==uint(State.Sold),\"Not sold \") */\n      tag_84\n      jumpi\n      mload(0x40)\n      0x08c379a000000000000000000000000000000000000000000000000000000000\n      dup2\n      mstore\n      0x04\n      add\n      dup1\n      dup1\n      0x20\n      add\n      dup3\n      dup2\n      sub\n      dup3\n      mstore\n      0x09\n      dup2\n      mstore\n      0x20\n      add\n      dup1\n      0x4e6f7420736f6c64200000000000000000000000000000000000000000000000\n      dup2\n      mstore\n      pop\n      0x20\n      add\n      swap2\n      pop\n      pop\n      mload(0x40)\n      dup1\n      swap2\n      sub\n      swap1\n      revert\n    tag_84:\n        /* \"to-be-completed/SupplyChain.sol\":4834:4839  items */\n      0x02\n        /* \"to-be-completed/SupplyChain.sol\":4834:4845  items[_sku] */\n      0x00\n        /* \"to-be-completed/SupplyChain.sol\":4840:4844  _sku */\n      dup4\n        /* \"to-be-completed/SupplyChain.sol\":4834:4845  items[_sku] */\n      dup2\n      mstore\n      0x20\n      add\n      swap1\n      dup2\n      mstore\n      0x20\n      add\n      0x00\n      keccak256\n        /* \"to-be-completed/SupplyChain.sol\":4834:4852  items[_sku].seller */\n      0x03\n      add\n      0x01\n      swap1\n      sload\n      swap1\n      0x0100\n      exp\n      swap1\n      div\n      0xffffffffffffffffffffffffffffffffffffffff\n      and\n        /* \"to-be-completed/SupplyChain.sol\":1889:1897  _address */\n      dup1\n        /* \"to-be-completed/SupplyChain.sol\":1875:1897  msg.sender == _address */\n      0xffffffffffffffffffffffffffffffffffffffff\n      and\n        /* \"to-be-completed/SupplyChain.sol\":1875:1885  msg.sender */\n      caller\n        /* \"to-be-completed/SupplyChain.sol\":1875:1897  msg.sender == _address */\n      0xffffffffffffffffffffffffffffffffffffffff\n      and\n      eq\n        /* \"to-be-completed/SupplyChain.sol\":1866:1920  require (msg.sender == _address,\"caller not verified\") */\n      tag_86\n      jumpi\n      mload(0x40)\n      0x08c379a000000000000000000000000000000000000000000000000000000000\n      dup2\n      mstore\n      0x04\n      add\n      dup1\n      dup1\n      0x20\n      add\n      dup3\n      dup2\n      sub\n      dup3\n      mstore\n      0x13\n      dup2\n      mstore\n      0x20\n      add\n      dup1\n      0x63616c6c6572206e6f7420766572696669656400000000000000000000000000\n      dup2\n      mstore\n      pop\n      0x20\n      add\n      swap2\n      pop\n      pop\n      mload(0x40)\n      dup1\n      swap2\n      sub\n      swap1\n      revert\n    tag_86:\n        /* \"to-be-completed/SupplyChain.sol\":4883:4896  State.Shipped */\n      0x02\n        /* \"to-be-completed/SupplyChain.sol\":4865:4870  items */\n      dup1\n        /* \"to-be-completed/SupplyChain.sol\":4865:4876  items[_sku] */\n      0x00\n        /* \"to-be-completed/SupplyChain.sol\":4871:4875  _sku */\n      dup6\n        /* \"to-be-completed/SupplyChain.sol\":4865:4876  items[_sku] */\n      dup2\n      mstore\n      0x20\n      add\n      swap1\n      dup2\n      mstore\n      0x20\n      add\n      0x00\n      keccak256\n        /* \"to-be-completed/SupplyChain.sol\":4865:4882  items[_sku].state */\n      0x03\n      add\n      0x00\n        /* \"to-be-completed/SupplyChain.sol\":4865:4896  items[_sku].state=State.Shipped */\n      0x0100\n      exp\n      dup2\n      sload\n      dup2\n      0xff\n      mul\n      not\n      and\n      swap1\n      dup4\n      0x03\n      dup2\n      gt\n      iszero\n      tag_88\n      jumpi\n      invalid\n    tag_88:\n      mul\n      or\n      swap1\n      sstore\n      pop\n        /* \"to-be-completed/SupplyChain.sol\":4908:4924  LogShipped(_sku) */\n      0xeaf695929fec8154f0eafe7248c0e16855eb9ad09e623be92f669e544d53e856\n        /* \"to-be-completed/SupplyChain.sol\":4919:4923  _sku */\n      dup4\n        /* \"to-be-completed/SupplyChain.sol\":4908:4924  LogShipped(_sku) */\n      mload(0x40)\n      dup1\n      dup3\n      dup2\n      mstore\n      0x20\n      add\n      swap2\n      pop\n      pop\n      mload(0x40)\n      dup1\n      swap2\n      sub\n      swap1\n      log1\n        /* \"to-be-completed/SupplyChain.sol\":3030:3031  _ */\n      pop\n        /* \"to-be-completed/SupplyChain.sol\":4769:4930  function shipItem(uint _sku)\r... */\n      pop\n      pop\n      jump\t// out\n        /* \"to-be-completed/SupplyChain.sol\":232:5691  contract SupplyChain {\r... */\n    tag_51:\n      dup3\n      dup1\n      sload\n      0x01\n      dup2\n      0x01\n      and\n      iszero\n      0x0100\n      mul\n      sub\n      and\n      0x02\n      swap1\n      div\n      swap1\n      0x00\n      mstore\n      keccak256(0x00, 0x20)\n      swap1\n      0x1f\n      add\n      0x20\n      swap1\n      div\n      dup2\n      add\n      swap3\n      dup3\n      0x1f\n      lt\n      tag_90\n      jumpi\n      dup1\n      mload\n      not(0xff)\n      and\n      dup4\n      dup1\n      add\n      or\n      dup6\n      sstore\n      jump(tag_89)\n    tag_90:\n      dup3\n      dup1\n      add\n      0x01\n      add\n      dup6\n      sstore\n      dup3\n      iszero\n      tag_89\n      jumpi\n      swap2\n      dup3\n      add\n    tag_91:\n      dup3\n      dup2\n      gt\n      iszero\n      tag_92\n      jumpi\n      dup3\n      mload\n      dup3\n      sstore\n      swap2\n      0x20\n      add\n      swap2\n      swap1\n      0x01\n      add\n      swap1\n      jump(tag_91)\n    tag_92:\n    tag_89:\n      pop\n      swap1\n      pop\n      tag_93\n      swap2\n      swap1\n      tag_94\n      jump\t// in\n    tag_93:\n      pop\n      swap1\n      jump\t// out\n    tag_71:\n      mload(0x40)\n      dup1\n      0xc0\n      add\n      0x40\n      mstore\n      dup1\n      0x60\n      dup2\n      mstore\n      0x20\n      add\n      0x00\n      dup2\n      mstore\n      0x20\n      add\n      0x00\n      dup2\n      mstore\n      0x20\n      add\n      0x00\n      0x03\n      dup2\n      gt\n      iszero\n      tag_95\n      jumpi\n      invalid\n    tag_95:\n      dup2\n      mstore\n      0x20\n      add\n      and(0xffffffffffffffffffffffffffffffffffffffff, 0x00)\n      dup2\n      mstore\n      0x20\n      add\n      and(0xffffffffffffffffffffffffffffffffffffffff, 0x00)\n      dup2\n      mstore\n      pop\n      swap1\n      jump\t// out\n    tag_94:\n      tag_96\n      swap2\n      swap1\n    tag_97:\n      dup1\n      dup3\n      gt\n      iszero\n      tag_98\n      jumpi\n      0x00\n      dup2\n      0x00\n      swap1\n      sstore\n      pop\n      0x01\n      add\n      jump(tag_97)\n    tag_98:\n      pop\n      swap1\n      jump\n    tag_96:\n      swap1\n      jump\t// out\n\n    auxdata: 0xa265627a7a723158207d3e017b621824fd28d56332ad94e7060bb7620a3c9db8407a77c56cb7af320464736f6c63430005110032\n}\n",
				"bytecode": {
					"linkReferences": {},
					"object": "608060405234801561001057600080fd5b50336000806101000a81548173ffffffffffffffffffffffffffffffffffffffff021916908373ffffffffffffffffffffffffffffffffffffffff1602179055506000600181905550611132806100686000396000f3fe6080604052600436106100705760003560e01c8063ad4b9cfb1161004e578063ad4b9cfb146101f1578063bfb231d214610320578063e7fb74c71461045d578063f61c899a1461048b57610070565b806362d6bbdf146100755780638da5cb5b1461015f578063a26be999146101b6575b600080fd5b34801561008157600080fd5b506101456004803603604081101561009857600080fd5b81019080803590602001906401000000008111156100b557600080fd5b8201836020820111156100c757600080fd5b803590602001918460018302840111640100000000831117156100e957600080fd5b91908080601f016020809104026020016040519081016040528093929190818152602001838380828437600081840152601f19601f820116905080830192505050505050509192919290803590602001909291905050506104c6565b604051808215151515815260200191505060405180910390f35b34801561016b57600080fd5b5061017461067e565b604051808273ffffffffffffffffffffffffffffffffffffffff1673ffffffffffffffffffffffffffffffffffffffff16815260200191505060405180910390f35b3480156101c257600080fd5b506101ef600480360360208110156101d957600080fd5b81019080803590602001909291905050506106a3565b005b3480156101fd57600080fd5b5061022a6004803603602081101561021457600080fd5b81019080803590602001909291905050506106a6565b60405180806020018781526020018681526020018581526020018473ffffffffffffffffffffffffffffffffffffffff1673ffffffffffffffffffffffffffffffffffffffff1681526020018373ffffffffffffffffffffffffffffffffffffffff1673ffffffffffffffffffffffffffffffffffffffff168152602001828103825288818151815260200191508051906020019080838360005b838110156102e05780820151818401526020810190506102c5565b50505050905090810190601f16801561030d5780820380516001836020036101000a031916815260200191505b5097505050505050505060405180910390f35b34801561032c57600080fd5b506103596004803603602081101561034357600080fd5b8101908080359060200190929190505050610851565b604051808060200187815260200186815260200185600381111561037957fe5b60ff1681526020018473ffffffffffffffffffffffffffffffffffffffff1673ffffffffffffffffffffffffffffffffffffffff1681526020018373ffffffffffffffffffffffffffffffffffffffff1673ffffffffffffffffffffffffffffffffffffffff168152602001828103825288818151815260200191508051906020019080838360005b8381101561041d578082015181840152602081019050610402565b50505050905090810190601f16801561044a5780820380516001836020036101000a031916815260200191505b5097505050505050505060405180910390f35b6104896004803603602081101561047357600080fd5b8101908080359060200190929190505050610972565b005b34801561049757600080fd5b506104c4600480360360208110156104ae57600080fd5b8101908080359060200190929190505050610df0565b005b60007f4627c48065af2a9648cbecdd4b9da340c00e501243cd49a8a71c30c987e8b7616001546040518082815260200191505060405180910390a16040518060c0016040528084815260200160015481526020018381526020016000600381111561052d57fe5b81526020013373ffffffffffffffffffffffffffffffffffffffff168152602001600073ffffffffffffffffffffffffffffffffffffffff16815250600260006001548152602001908152602001600020600082015181600001908051906020019061059a929190610feb565b50602082015181600101556040820151816002015560608201518160030160006101000a81548160ff021916908360038111156105d357fe5b021790555060808201518160030160016101000a81548173ffffffffffffffffffffffffffffffffffffffff021916908373ffffffffffffffffffffffffffffffffffffffff16021790555060a08201518160040160006101000a81548173ffffffffffffffffffffffffffffffffffffffff021916908373ffffffffffffffffffffffffffffffffffffffff16021790555090505060018054016001819055506001905092915050565b6000809054906101000a900473ffffffffffffffffffffffffffffffffffffffff1681565b50565b60606000806000806000600260008881526020019081526020016000206000018054600181600116156101000203166002900480601f01602080910402602001604051908101604052809291908181526020018280546001816001161561010002031660029004801561075a5780601f1061072f5761010080835404028352916020019161075a565b820191906000526020600020905b81548152906001019060200180831161073d57829003601f168201915b5050505050955060026000888152602001908152602001600020600101549450600260008881526020019081526020016000206002015493506002600088815260200190815260200160002060030160009054906101000a900460ff1660038111156107c257fe5b92506002600088815260200190815260200160002060030160019054906101000a900473ffffffffffffffffffffffffffffffffffffffff1691506002600088815260200190815260200160002060040160009054906101000a900473ffffffffffffffffffffffffffffffffffffffff16905085858585858595509550955095509550955091939550919395565b6002602052806000526040600020600091509050806000018054600181600116156101000203166002900480601f0160208091040260200160405190810160405280929190818152602001828054600181600116156101000203166002900480156108fd5780601f106108d2576101008083540402835291602001916108fd565b820191906000526020600020905b8154815290600101906020018083116108e057829003601f168201915b5050505050908060010154908060020154908060030160009054906101000a900460ff16908060030160019054906101000a900473ffffffffffffffffffffffffffffffffffffffff16908060040160009054906101000a900473ffffffffffffffffffffffffffffffffffffffff16905086565b806000600381111561098057fe5b6002600083815260200190815260200160002060030160009054906101000a900460ff1660038111156109af57fe5b14610a22576040517f08c379a000000000000000000000000000000000000000000000000000000000815260040180806020018281038252600c8152602001807f4e6f7420666f722073616c65000000000000000000000000000000000000000081525060200191505060405180910390fd5b600260008381526020019081526020016000206002015480341015610aaf576040517f08c379a00000000000000000000000000000000000000000000000000000000081526004018080602001828103825260138152602001807f6e6f7420656e6f75676820706179656d656e740000000000000000000000000081525060200191505060405180910390fd5b82610ab861106b565b600260008681526020019081526020016000206040518060c0016040529081600082018054600181600116156101000203166002900480601f016020809104026020016040519081016040528092919081815260200182805460018160011615610100020316600290048015610b6f5780601f10610b4457610100808354040283529160200191610b6f565b820191906000526020600020905b815481529060010190602001808311610b5257829003601f168201915b5050505050815260200160018201548152602001600282015481526020016003820160009054906101000a900460ff166003811115610baa57fe5b6003811115610bb557fe5b81526020016003820160019054906101000a900473ffffffffffffffffffffffffffffffffffffffff1673ffffffffffffffffffffffffffffffffffffffff1673ffffffffffffffffffffffffffffffffffffffff1681526020016004820160009054906101000a900473ffffffffffffffffffffffffffffffffffffffff1673ffffffffffffffffffffffffffffffffffffffff1673ffffffffffffffffffffffffffffffffffffffff16815250509050338160a0019073ffffffffffffffffffffffffffffffffffffffff16908173ffffffffffffffffffffffffffffffffffffffff1681525050806080015173ffffffffffffffffffffffffffffffffffffffff166108fc82604001519081150290604051600060405180830381858888f19350505050158015610ced573d6000803e3d6000fd5b50600181606001906003811115610d0057fe5b90816003811115610d0d57fe5b815250507fe64ca8c671e48636f85f3008c1dd538e36bfa74fb6f2790b56b72fcc33b879ef856040518082815260200191505060405180910390a150600060026000838152602001908152602001600020600201549050600081340390506002600084815260200190815260200160002060040160009054906101000a900473ffffffffffffffffffffffffffffffffffffffff1673ffffffffffffffffffffffffffffffffffffffff166108fc829081150290604051600060405180830381858888f19350505050158015610de7573d6000803e3d6000fd5b50505050505050565b8060016003811115610dfe57fe5b6002600083815260200190815260200160002060030160009054906101000a900460ff166003811115610e2d57fe5b14610ea0576040517f08c379a00000000000000000000000000000000000000000000000000000000081526004018080602001828103825260098152602001807f4e6f7420736f6c6420000000000000000000000000000000000000000000000081525060200191505060405180910390fd5b6002600083815260200190815260200160002060030160019054906101000a900473ffffffffffffffffffffffffffffffffffffffff168073ffffffffffffffffffffffffffffffffffffffff163373ffffffffffffffffffffffffffffffffffffffff1614610f78576040517f08c379a00000000000000000000000000000000000000000000000000000000081526004018080602001828103825260138152602001807f63616c6c6572206e6f742076657269666965640000000000000000000000000081525060200191505060405180910390fd5b600280600085815260200190815260200160002060030160006101000a81548160ff02191690836003811115610faa57fe5b02179055507feaf695929fec8154f0eafe7248c0e16855eb9ad09e623be92f669e544d53e856836040518082815260200191505060405180910390a1505050565b828054600181600116156101000203166002900490600052602060002090601f016020900481019282601f1061102c57805160ff191683800117855561105a565b8280016001018555821561105a579182015b8281111561105957825182559160200191906001019061103e565b5b50905061106791906110d8565b5090565b6040518060c001604052806060815260200160008152602001600081526020016000600381111561109857fe5b8152602001600073ffffffffffffffffffffffffffffffffffffffff168152602001600073ffffffffffffffffffffffffffffffffffffffff1681525090565b6110fa91905b808211156110f65760008160009055506001016110de565b5090565b9056fea265627a7a723158207d3e017b621824fd28d56332ad94e7060bb7620a3c9db8407a77c56cb7af320464736f6c63430005110032",
					"opcodes": "PUSH1 0x80 PUSH1 0x40 MSTORE CALLVALUE DUP1 ISZERO PUSH2 0x10 JUMPI PUSH1 0x0 DUP1 REVERT JUMPDEST POP CALLER PUSH1 0x0 DUP1 PUSH2 0x100 EXP DUP2 SLOAD DUP2 PUSH20 0xFFFFFFFFFFFFFFFFFFFFFFFFFFFFFFFFFFFFFFFF MUL NOT AND SWAP1 DUP4 PUSH20 0xFFFFFFFFFFFFFFFFFFFFFFFFFFFFFFFFFFFFFFFF AND MUL OR SWAP1 SSTORE POP PUSH1 0x0 PUSH1 0x1 DUP2 SWAP1 SSTORE POP PUSH2 0x1132 DUP1 PUSH2 0x68 PUSH1 0x0 CODECOPY PUSH1 0x0 RETURN INVALID PUSH1 0x80 PUSH1 0x40 MSTORE PUSH1 0x4 CALLDATASIZE LT PUSH2 0x70 JUMPI PUSH1 0x0 CALLDATALOAD PUSH1 0xE0 SHR DUP1 PUSH4 0xAD4B9CFB GT PUSH2 0x4E JUMPI DUP1 PUSH4 0xAD4B9CFB EQ PUSH2 0x1F1 JUMPI DUP1 PUSH4 0xBFB231D2 EQ PUSH2 0x320 JUMPI DUP1 PUSH4 0xE7FB74C7 EQ PUSH2 0x45D JUMPI DUP1 PUSH4 0xF61C899A EQ PUSH2 0x48B JUMPI PUSH2 0x70 JUMP JUMPDEST DUP1 PUSH4 0x62D6BBDF EQ PUSH2 0x75 JUMPI DUP1 PUSH4 0x8DA5CB5B EQ PUSH2 0x15F JUMPI DUP1 PUSH4 0xA26BE999 EQ PUSH2 0x1B6 JUMPI JUMPDEST PUSH1 0x0 DUP1 REVERT JUMPDEST CALLVALUE DUP1 ISZERO PUSH2 0x81 JUMPI PUSH1 0x0 DUP1 REVERT JUMPDEST POP PUSH2 0x145 PUSH1 0x4 DUP1 CALLDATASIZE SUB PUSH1 0x40 DUP2 LT ISZERO PUSH2 0x98 JUMPI PUSH1 0x0 DUP1 REVERT JUMPDEST DUP2 ADD SWAP1 DUP1 DUP1 CALLDATALOAD SWAP1 PUSH1 0x20 ADD SWAP1 PUSH5 0x100000000 DUP2 GT ISZERO PUSH2 0xB5 JUMPI PUSH1 0x0 DUP1 REVERT JUMPDEST DUP3 ADD DUP4 PUSH1 0x20 DUP3 ADD GT ISZERO PUSH2 0xC7 JUMPI PUSH1 0x0 DUP1 REVERT JUMPDEST DUP1 CALLDATALOAD SWAP1 PUSH1 0x20 ADD SWAP2 DUP5 PUSH1 0x1 DUP4 MUL DUP5 ADD GT PUSH5 0x100000000 DUP4 GT OR ISZERO PUSH2 0xE9 JUMPI PUSH1 0x0 DUP1 REVERT JUMPDEST SWAP2 SWAP1 DUP1 DUP1 PUSH1 0x1F ADD PUSH1 0x20 DUP1 SWAP2 DIV MUL PUSH1 0x20 ADD PUSH1 0x40 MLOAD SWAP1 DUP2 ADD PUSH1 0x40 MSTORE DUP1 SWAP4 SWAP3 SWAP2 SWAP1 DUP2 DUP2 MSTORE PUSH1 0x20 ADD DUP4 DUP4 DUP1 DUP3 DUP5 CALLDATACOPY PUSH1 0x0 DUP2 DUP5 ADD MSTORE PUSH1 0x1F NOT PUSH1 0x1F DUP3 ADD AND SWAP1 POP DUP1 DUP4 ADD SWAP3 POP POP POP POP POP POP POP SWAP2 SWAP3 SWAP2 SWAP3 SWAP1 DUP1 CALLDATALOAD SWAP1 PUSH1 0x20 ADD SWAP1 SWAP3 SWAP2 SWAP1 POP POP POP PUSH2 0x4C6 JUMP JUMPDEST PUSH1 0x40 MLOAD DUP1 DUP3 ISZERO ISZERO ISZERO ISZERO DUP2 MSTORE PUSH1 0x20 ADD SWAP2 POP POP PUSH1 0x40 MLOAD DUP1 SWAP2 SUB SWAP1 RETURN JUMPDEST CALLVALUE DUP1 ISZERO PUSH2 0x16B JUMPI PUSH1 0x0 DUP1 REVERT JUMPDEST POP PUSH2 0x174 PUSH2 0x67E JUMP JUMPDEST PUSH1 0x40 MLOAD DUP1 DUP3 PUSH20 0xFFFFFFFFFFFFFFFFFFFFFFFFFFFFFFFFFFFFFFFF AND PUSH20 0xFFFFFFFFFFFFFFFFFFFFFFFFFFFFFFFFFFFFFFFF AND DUP2 MSTORE PUSH1 0x20 ADD SWAP2 POP POP PUSH1 0x40 MLOAD DUP1 SWAP2 SUB SWAP1 RETURN JUMPDEST CALLVALUE DUP1 ISZERO PUSH2 0x1C2 JUMPI PUSH1 0x0 DUP1 REVERT JUMPDEST POP PUSH2 0x1EF PUSH1 0x4 DUP1 CALLDATASIZE SUB PUSH1 0x20 DUP2 LT ISZERO PUSH2 0x1D9 JUMPI PUSH1 0x0 DUP1 REVERT JUMPDEST DUP2 ADD SWAP1 DUP1 DUP1 CALLDATALOAD SWAP1 PUSH1 0x20 ADD SWAP1 SWAP3 SWAP2 SWAP1 POP POP POP PUSH2 0x6A3 JUMP JUMPDEST STOP JUMPDEST CALLVALUE DUP1 ISZERO PUSH2 0x1FD JUMPI PUSH1 0x0 DUP1 REVERT JUMPDEST POP PUSH2 0x22A PUSH1 0x4 DUP1 CALLDATASIZE SUB PUSH1 0x20 DUP2 LT ISZERO PUSH2 0x214 JUMPI PUSH1 0x0 DUP1 REVERT JUMPDEST DUP2 ADD SWAP1 DUP1 DUP1 CALLDATALOAD SWAP1 PUSH1 0x20 ADD SWAP1 SWAP3 SWAP2 SWAP1 POP POP POP PUSH2 0x6A6 JUMP JUMPDEST PUSH1 0x40 MLOAD DUP1 DUP1 PUSH1 0x20 ADD DUP8 DUP2 MSTORE PUSH1 0x20 ADD DUP7 DUP2 MSTORE PUSH1 0x20 ADD DUP6 DUP2 MSTORE PUSH1 0x20 ADD DUP5 PUSH20 0xFFFFFFFFFFFFFFFFFFFFFFFFFFFFFFFFFFFFFFFF AND PUSH20 0xFFFFFFFFFFFFFFFFFFFFFFFFFFFFFFFFFFFFFFFF AND DUP2 MSTORE PUSH1 0x20 ADD DUP4 PUSH20 0xFFFFFFFFFFFFFFFFFFFFFFFFFFFFFFFFFFFFFFFF AND PUSH20 0xFFFFFFFFFFFFFFFFFFFFFFFFFFFFFFFFFFFFFFFF AND DUP2 MSTORE PUSH1 0x20 ADD DUP3 DUP2 SUB DUP3 MSTORE DUP9 DUP2 DUP2 MLOAD DUP2 MSTORE PUSH1 0x20 ADD SWAP2 POP DUP1 MLOAD SWAP1 PUSH1 0x20 ADD SWAP1 DUP1 DUP4 DUP4 PUSH1 0x0 JUMPDEST DUP4 DUP2 LT ISZERO PUSH2 0x2E0 JUMPI DUP1 DUP3 ADD MLOAD DUP2 DUP5 ADD MSTORE PUSH1 0x20 DUP2 ADD SWAP1 POP PUSH2 0x2C5 JUMP JUMPDEST POP POP POP POP SWAP1 POP SWAP1 DUP2 ADD SWAP1 PUSH1 0x1F AND DUP1 ISZERO PUSH2 0x30D JUMPI DUP1 DUP3 SUB DUP1 MLOAD PUSH1 0x1 DUP4 PUSH1 0x20 SUB PUSH2 0x100 EXP SUB NOT AND DUP2 MSTORE PUSH1 0x20 ADD SWAP2 POP JUMPDEST POP SWAP8 POP POP POP POP POP POP POP POP PUSH1 0x40 MLOAD DUP1 SWAP2 SUB SWAP1 RETURN JUMPDEST CALLVALUE DUP1 ISZERO PUSH2 0x32C JUMPI PUSH1 0x0 DUP1 REVERT JUMPDEST POP PUSH2 0x359 PUSH1 0x4 DUP1 CALLDATASIZE SUB PUSH1 0x20 DUP2 LT ISZERO PUSH2 0x343 JUMPI PUSH1 0x0 DUP1 REVERT JUMPDEST DUP2 ADD SWAP1 DUP1 DUP1 CALLDATALOAD SWAP1 PUSH1 0x20 ADD SWAP1 SWAP3 SWAP2 SWAP1 POP POP POP PUSH2 0x851 JUMP JUMPDEST PUSH1 0x40 MLOAD DUP1 DUP1 PUSH1 0x20 ADD DUP8 DUP2 MSTORE PUSH1 0x20 ADD DUP7 DUP2 MSTORE PUSH1 0x20 ADD DUP6 PUSH1 0x3 DUP2 GT ISZERO PUSH2 0x379 JUMPI INVALID JUMPDEST PUSH1 0xFF AND DUP2 MSTORE PUSH1 0x20 ADD DUP5 PUSH20 0xFFFFFFFFFFFFFFFFFFFFFFFFFFFFFFFFFFFFFFFF AND PUSH20 0xFFFFFFFFFFFFFFFFFFFFFFFFFFFFFFFFFFFFFFFF AND DUP2 MSTORE PUSH1 0x20 ADD DUP4 PUSH20 0xFFFFFFFFFFFFFFFFFFFFFFFFFFFFFFFFFFFFFFFF AND PUSH20 0xFFFFFFFFFFFFFFFFFFFFFFFFFFFFFFFFFFFFFFFF AND DUP2 MSTORE PUSH1 0x20 ADD DUP3 DUP2 SUB DUP3 MSTORE DUP9 DUP2 DUP2 MLOAD DUP2 MSTORE PUSH1 0x20 ADD SWAP2 POP DUP1 MLOAD SWAP1 PUSH1 0x20 ADD SWAP1 DUP1 DUP4 DUP4 PUSH1 0x0 JUMPDEST DUP4 DUP2 LT ISZERO PUSH2 0x41D JUMPI DUP1 DUP3 ADD MLOAD DUP2 DUP5 ADD MSTORE PUSH1 0x20 DUP2 ADD SWAP1 POP PUSH2 0x402 JUMP JUMPDEST POP POP POP POP SWAP1 POP SWAP1 DUP2 ADD SWAP1 PUSH1 0x1F AND DUP1 ISZERO PUSH2 0x44A JUMPI DUP1 DUP3 SUB DUP1 MLOAD PUSH1 0x1 DUP4 PUSH1 0x20 SUB PUSH2 0x100 EXP SUB NOT AND DUP2 MSTORE PUSH1 0x20 ADD SWAP2 POP JUMPDEST POP SWAP8 POP POP POP POP POP POP POP POP PUSH1 0x40 MLOAD DUP1 SWAP2 SUB SWAP1 RETURN JUMPDEST PUSH2 0x489 PUSH1 0x4 DUP1 CALLDATASIZE SUB PUSH1 0x20 DUP2 LT ISZERO PUSH2 0x473 JUMPI PUSH1 0x0 DUP1 REVERT JUMPDEST DUP2 ADD SWAP1 DUP1 DUP1 CALLDATALOAD SWAP1 PUSH1 0x20 ADD SWAP1 SWAP3 SWAP2 SWAP1 POP POP POP PUSH2 0x972 JUMP JUMPDEST STOP JUMPDEST CALLVALUE DUP1 ISZERO PUSH2 0x497 JUMPI PUSH1 0x0 DUP1 REVERT JUMPDEST POP PUSH2 0x4C4 PUSH1 0x4 DUP1 CALLDATASIZE SUB PUSH1 0x20 DUP2 LT ISZERO PUSH2 0x4AE JUMPI PUSH1 0x0 DUP1 REVERT JUMPDEST DUP2 ADD SWAP1 DUP1 DUP1 CALLDATALOAD SWAP1 PUSH1 0x20 ADD SWAP1 SWAP3 SWAP2 SWAP1 POP POP POP PUSH2 0xDF0 JUMP JUMPDEST STOP JUMPDEST PUSH1 0x0 PUSH32 0x4627C48065AF2A9648CBECDD4B9DA340C00E501243CD49A8A71C30C987E8B761 PUSH1 0x1 SLOAD PUSH1 0x40 MLOAD DUP1 DUP3 DUP2 MSTORE PUSH1 0x20 ADD SWAP2 POP POP PUSH1 0x40 MLOAD DUP1 SWAP2 SUB SWAP1 LOG1 PUSH1 0x40 MLOAD DUP1 PUSH1 0xC0 ADD PUSH1 0x40 MSTORE DUP1 DUP5 DUP2 MSTORE PUSH1 0x20 ADD PUSH1 0x1 SLOAD DUP2 MSTORE PUSH1 0x20 ADD DUP4 DUP2 MSTORE PUSH1 0x20 ADD PUSH1 0x0 PUSH1 0x3 DUP2 GT ISZERO PUSH2 0x52D JUMPI INVALID JUMPDEST DUP2 MSTORE PUSH1 0x20 ADD CALLER PUSH20 0xFFFFFFFFFFFFFFFFFFFFFFFFFFFFFFFFFFFFFFFF AND DUP2 MSTORE PUSH1 0x20 ADD PUSH1 0x0 PUSH20 0xFFFFFFFFFFFFFFFFFFFFFFFFFFFFFFFFFFFFFFFF AND DUP2 MSTORE POP PUSH1 0x2 PUSH1 0x0 PUSH1 0x1 SLOAD DUP2 MSTORE PUSH1 0x20 ADD SWAP1 DUP2 MSTORE PUSH1 0x20 ADD PUSH1 0x0 KECCAK256 PUSH1 0x0 DUP3 ADD MLOAD DUP2 PUSH1 0x0 ADD SWAP1 DUP1 MLOAD SWAP1 PUSH1 0x20 ADD SWAP1 PUSH2 0x59A SWAP3 SWAP2 SWAP1 PUSH2 0xFEB JUMP JUMPDEST POP PUSH1 0x20 DUP3 ADD MLOAD DUP2 PUSH1 0x1 ADD SSTORE PUSH1 0x40 DUP3 ADD MLOAD DUP2 PUSH1 0x2 ADD SSTORE PUSH1 0x60 DUP3 ADD MLOAD DUP2 PUSH1 0x3 ADD PUSH1 0x0 PUSH2 0x100 EXP DUP2 SLOAD DUP2 PUSH1 0xFF MUL NOT AND SWAP1 DUP4 PUSH1 0x3 DUP2 GT ISZERO PUSH2 0x5D3 JUMPI INVALID JUMPDEST MUL OR SWAP1 SSTORE POP PUSH1 0x80 DUP3 ADD MLOAD DUP2 PUSH1 0x3 ADD PUSH1 0x1 PUSH2 0x100 EXP DUP2 SLOAD DUP2 PUSH20 0xFFFFFFFFFFFFFFFFFFFFFFFFFFFFFFFFFFFFFFFF MUL NOT AND SWAP1 DUP4 PUSH20 0xFFFFFFFFFFFFFFFFFFFFFFFFFFFFFFFFFFFFFFFF AND MUL OR SWAP1 SSTORE POP PUSH1 0xA0 DUP3 ADD MLOAD DUP2 PUSH1 0x4 ADD PUSH1 0x0 PUSH2 0x100 EXP DUP2 SLOAD DUP2 PUSH20 0xFFFFFFFFFFFFFFFFFFFFFFFFFFFFFFFFFFFFFFFF MUL NOT AND SWAP1 DUP4 PUSH20 0xFFFFFFFFFFFFFFFFFFFFFFFFFFFFFFFFFFFFFFFF AND MUL OR SWAP1 SSTORE POP SWAP1 POP POP PUSH1 0x1 DUP1 SLOAD ADD PUSH1 0x1 DUP2 SWAP1 SSTORE POP PUSH1 0x1 SWAP1 POP SWAP3 SWAP2 POP POP JUMP JUMPDEST PUSH1 0x0 DUP1 SWAP1 SLOAD SWAP1 PUSH2 0x100 EXP SWAP1 DIV PUSH20 0xFFFFFFFFFFFFFFFFFFFFFFFFFFFFFFFFFFFFFFFF AND DUP2 JUMP JUMPDEST POP JUMP JUMPDEST PUSH1 0x60 PUSH1 0x0 DUP1 PUSH1 0x0 DUP1 PUSH1 0x0 PUSH1 0x2 PUSH1 0x0 DUP9 DUP2 MSTORE PUSH1 0x20 ADD SWAP1 DUP2 MSTORE PUSH1 0x20 ADD PUSH1 0x0 KECCAK256 PUSH1 0x0 ADD DUP1 SLOAD PUSH1 0x1 DUP2 PUSH1 0x1 AND ISZERO PUSH2 0x100 MUL SUB AND PUSH1 0x2 SWAP1 DIV DUP1 PUSH1 0x1F ADD PUSH1 0x20 DUP1 SWAP2 DIV MUL PUSH1 0x20 ADD PUSH1 0x40 MLOAD SWAP1 DUP2 ADD PUSH1 0x40 MSTORE DUP1 SWAP3 SWAP2 SWAP1 DUP2 DUP2 MSTORE PUSH1 0x20 ADD DUP3 DUP1 SLOAD PUSH1 0x1 DUP2 PUSH1 0x1 AND ISZERO PUSH2 0x100 MUL SUB AND PUSH1 0x2 SWAP1 DIV DUP1 ISZERO PUSH2 0x75A JUMPI DUP1 PUSH1 0x1F LT PUSH2 0x72F JUMPI PUSH2 0x100 DUP1 DUP4 SLOAD DIV MUL DUP4 MSTORE SWAP2 PUSH1 0x20 ADD SWAP2 PUSH2 0x75A JUMP JUMPDEST DUP3 ADD SWAP2 SWAP1 PUSH1 0x0 MSTORE PUSH1 0x20 PUSH1 0x0 KECCAK256 SWAP1 JUMPDEST DUP2 SLOAD DUP2 MSTORE SWAP1 PUSH1 0x1 ADD SWAP1 PUSH1 0x20 ADD DUP1 DUP4 GT PUSH2 0x73D JUMPI DUP3 SWAP1 SUB PUSH1 0x1F AND DUP3 ADD SWAP2 JUMPDEST POP POP POP POP POP SWAP6 POP PUSH1 0x2 PUSH1 0x0 DUP9 DUP2 MSTORE PUSH1 0x20 ADD SWAP1 DUP2 MSTORE PUSH1 0x20 ADD PUSH1 0x0 KECCAK256 PUSH1 0x1 ADD SLOAD SWAP5 POP PUSH1 0x2 PUSH1 0x0 DUP9 DUP2 MSTORE PUSH1 0x20 ADD SWAP1 DUP2 MSTORE PUSH1 0x20 ADD PUSH1 0x0 KECCAK256 PUSH1 0x2 ADD SLOAD SWAP4 POP PUSH1 0x2 PUSH1 0x0 DUP9 DUP2 MSTORE PUSH1 0x20 ADD SWAP1 DUP2 MSTORE PUSH1 0x20 ADD PUSH1 0x0 KECCAK256 PUSH1 0x3 ADD PUSH1 0x0 SWAP1 SLOAD SWAP1 PUSH2 0x100 EXP SWAP1 DIV PUSH1 0xFF AND PUSH1 0x3 DUP2 GT ISZERO PUSH2 0x7C2 JUMPI INVALID JUMPDEST SWAP3 POP PUSH1 0x2 PUSH1 0x0 DUP9 DUP2 MSTORE PUSH1 0x20 ADD SWAP1 DUP2 MSTORE PUSH1 0x20 ADD PUSH1 0x0 KECCAK256 PUSH1 0x3 ADD PUSH1 0x1 SWAP1 SLOAD SWAP1 PUSH2 0x100 EXP SWAP1 DIV PUSH20 0xFFFFFFFFFFFFFFFFFFFFFFFFFFFFFFFFFFFFFFFF AND SWAP2 POP PUSH1 0x2 PUSH1 0x0 DUP9 DUP2 MSTORE PUSH1 0x20 ADD SWAP1 DUP2 MSTORE PUSH1 0x20 ADD PUSH1 0x0 KECCAK256 PUSH1 0x4 ADD PUSH1 0x0 SWAP1 SLOAD SWAP1 PUSH2 0x100 EXP SWAP1 DIV PUSH20 0xFFFFFFFFFFFFFFFFFFFFFFFFFFFFFFFFFFFFFFFF AND SWAP1 POP DUP6 DUP6 DUP6 DUP6 DUP6 DUP6 SWAP6 POP SWAP6 POP SWAP6 POP SWAP6 POP SWAP6 POP SWAP6 POP SWAP2 SWAP4 SWAP6 POP SWAP2 SWAP4 SWAP6 JUMP JUMPDEST PUSH1 0x2 PUSH1 0x20 MSTORE DUP1 PUSH1 0x0 MSTORE PUSH1 0x40 PUSH1 0x0 KECCAK256 PUSH1 0x0 SWAP2 POP SWAP1 POP DUP1 PUSH1 0x0 ADD DUP1 SLOAD PUSH1 0x1 DUP2 PUSH1 0x1 AND ISZERO PUSH2 0x100 MUL SUB AND PUSH1 0x2 SWAP1 DIV DUP1 PUSH1 0x1F ADD PUSH1 0x20 DUP1 SWAP2 DIV MUL PUSH1 0x20 ADD PUSH1 0x40 MLOAD SWAP1 DUP2 ADD PUSH1 0x40 MSTORE DUP1 SWAP3 SWAP2 SWAP1 DUP2 DUP2 MSTORE PUSH1 0x20 ADD DUP3 DUP1 SLOAD PUSH1 0x1 DUP2 PUSH1 0x1 AND ISZERO PUSH2 0x100 MUL SUB AND PUSH1 0x2 SWAP1 DIV DUP1 ISZERO PUSH2 0x8FD JUMPI DUP1 PUSH1 0x1F LT PUSH2 0x8D2 JUMPI PUSH2 0x100 DUP1 DUP4 SLOAD DIV MUL DUP4 MSTORE SWAP2 PUSH1 0x20 ADD SWAP2 PUSH2 0x8FD JUMP JUMPDEST DUP3 ADD SWAP2 SWAP1 PUSH1 0x0 MSTORE PUSH1 0x20 PUSH1 0x0 KECCAK256 SWAP1 JUMPDEST DUP2 SLOAD DUP2 MSTORE SWAP1 PUSH1 0x1 ADD SWAP1 PUSH1 0x20 ADD DUP1 DUP4 GT PUSH2 0x8E0 JUMPI DUP3 SWAP1 SUB PUSH1 0x1F AND DUP3 ADD SWAP2 JUMPDEST POP POP POP POP POP SWAP1 DUP1 PUSH1 0x1 ADD SLOAD SWAP1 DUP1 PUSH1 0x2 ADD SLOAD SWAP1 DUP1 PUSH1 0x3 ADD PUSH1 0x0 SWAP1 SLOAD SWAP1 PUSH2 0x100 EXP SWAP1 DIV PUSH1 0xFF AND SWAP1 DUP1 PUSH1 0x3 ADD PUSH1 0x1 SWAP1 SLOAD SWAP1 PUSH2 0x100 EXP SWAP1 DIV PUSH20 0xFFFFFFFFFFFFFFFFFFFFFFFFFFFFFFFFFFFFFFFF AND SWAP1 DUP1 PUSH1 0x4 ADD PUSH1 0x0 SWAP1 SLOAD SWAP1 PUSH2 0x100 EXP SWAP1 DIV PUSH20 0xFFFFFFFFFFFFFFFFFFFFFFFFFFFFFFFFFFFFFFFF AND SWAP1 POP DUP7 JUMP JUMPDEST DUP1 PUSH1 0x0 PUSH1 0x3 DUP2 GT ISZERO PUSH2 0x980 JUMPI INVALID JUMPDEST PUSH1 0x2 PUSH1 0x0 DUP4 DUP2 MSTORE PUSH1 0x20 ADD SWAP1 DUP2 MSTORE PUSH1 0x20 ADD PUSH1 0x0 KECCAK256 PUSH1 0x3 ADD PUSH1 0x0 SWAP1 SLOAD SWAP1 PUSH2 0x100 EXP SWAP1 DIV PUSH1 0xFF AND PUSH1 0x3 DUP2 GT ISZERO PUSH2 0x9AF JUMPI INVALID JUMPDEST EQ PUSH2 0xA22 JUMPI PUSH1 0x40 MLOAD PUSH32 0x8C379A000000000000000000000000000000000000000000000000000000000 DUP2 MSTORE PUSH1 0x4 ADD DUP1 DUP1 PUSH1 0x20 ADD DUP3 DUP2 SUB DUP3 MSTORE PUSH1 0xC DUP2 MSTORE PUSH1 0x20 ADD DUP1 PUSH32 0x4E6F7420666F722073616C650000000000000000000000000000000000000000 DUP2 MSTORE POP PUSH1 0x20 ADD SWAP2 POP POP PUSH1 0x40 MLOAD DUP1 SWAP2 SUB SWAP1 REVERT JUMPDEST PUSH1 0x2 PUSH1 0x0 DUP4 DUP2 MSTORE PUSH1 0x20 ADD SWAP1 DUP2 MSTORE PUSH1 0x20 ADD PUSH1 0x0 KECCAK256 PUSH1 0x2 ADD SLOAD DUP1 CALLVALUE LT ISZERO PUSH2 0xAAF JUMPI PUSH1 0x40 MLOAD PUSH32 0x8C379A000000000000000000000000000000000000000000000000000000000 DUP2 MSTORE PUSH1 0x4 ADD DUP1 DUP1 PUSH1 0x20 ADD DUP3 DUP2 SUB DUP3 MSTORE PUSH1 0x13 DUP2 MSTORE PUSH1 0x20 ADD DUP1 PUSH32 0x6E6F7420656E6F75676820706179656D656E7400000000000000000000000000 DUP2 MSTORE POP PUSH1 0x20 ADD SWAP2 POP POP PUSH1 0x40 MLOAD DUP1 SWAP2 SUB SWAP1 REVERT JUMPDEST DUP3 PUSH2 0xAB8 PUSH2 0x106B JUMP JUMPDEST PUSH1 0x2 PUSH1 0x0 DUP7 DUP2 MSTORE PUSH1 0x20 ADD SWAP1 DUP2 MSTORE PUSH1 0x20 ADD PUSH1 0x0 KECCAK256 PUSH1 0x40 MLOAD DUP1 PUSH1 0xC0 ADD PUSH1 0x40 MSTORE SWAP1 DUP2 PUSH1 0x0 DUP3 ADD DUP1 SLOAD PUSH1 0x1 DUP2 PUSH1 0x1 AND ISZERO PUSH2 0x100 MUL SUB AND PUSH1 0x2 SWAP1 DIV DUP1 PUSH1 0x1F ADD PUSH1 0x20 DUP1 SWAP2 DIV MUL PUSH1 0x20 ADD PUSH1 0x40 MLOAD SWAP1 DUP2 ADD PUSH1 0x40 MSTORE DUP1 SWAP3 SWAP2 SWAP1 DUP2 DUP2 MSTORE PUSH1 0x20 ADD DUP3 DUP1 SLOAD PUSH1 0x1 DUP2 PUSH1 0x1 AND ISZERO PUSH2 0x100 MUL SUB AND PUSH1 0x2 SWAP1 DIV DUP1 ISZERO PUSH2 0xB6F JUMPI DUP1 PUSH1 0x1F LT PUSH2 0xB44 JUMPI PUSH2 0x100 DUP1 DUP4 SLOAD DIV MUL DUP4 MSTORE SWAP2 PUSH1 0x20 ADD SWAP2 PUSH2 0xB6F JUMP JUMPDEST DUP3 ADD SWAP2 SWAP1 PUSH1 0x0 MSTORE PUSH1 0x20 PUSH1 0x0 KECCAK256 SWAP1 JUMPDEST DUP2 SLOAD DUP2 MSTORE SWAP1 PUSH1 0x1 ADD SWAP1 PUSH1 0x20 ADD DUP1 DUP4 GT PUSH2 0xB52 JUMPI DUP3 SWAP1 SUB PUSH1 0x1F AND DUP3 ADD SWAP2 JUMPDEST POP POP POP POP POP DUP2 MSTORE PUSH1 0x20 ADD PUSH1 0x1 DUP3 ADD SLOAD DUP2 MSTORE PUSH1 0x20 ADD PUSH1 0x2 DUP3 ADD SLOAD DUP2 MSTORE PUSH1 0x20 ADD PUSH1 0x3 DUP3 ADD PUSH1 0x0 SWAP1 SLOAD SWAP1 PUSH2 0x100 EXP SWAP1 DIV PUSH1 0xFF AND PUSH1 0x3 DUP2 GT ISZERO PUSH2 0xBAA JUMPI INVALID JUMPDEST PUSH1 0x3 DUP2 GT ISZERO PUSH2 0xBB5 JUMPI INVALID JUMPDEST DUP2 MSTORE PUSH1 0x20 ADD PUSH1 0x3 DUP3 ADD PUSH1 0x1 SWAP1 SLOAD SWAP1 PUSH2 0x100 EXP SWAP1 DIV PUSH20 0xFFFFFFFFFFFFFFFFFFFFFFFFFFFFFFFFFFFFFFFF AND PUSH20 0xFFFFFFFFFFFFFFFFFFFFFFFFFFFFFFFFFFFFFFFF AND PUSH20 0xFFFFFFFFFFFFFFFFFFFFFFFFFFFFFFFFFFFFFFFF AND DUP2 MSTORE PUSH1 0x20 ADD PUSH1 0x4 DUP3 ADD PUSH1 0x0 SWAP1 SLOAD SWAP1 PUSH2 0x100 EXP SWAP1 DIV PUSH20 0xFFFFFFFFFFFFFFFFFFFFFFFFFFFFFFFFFFFFFFFF AND PUSH20 0xFFFFFFFFFFFFFFFFFFFFFFFFFFFFFFFFFFFFFFFF AND PUSH20 0xFFFFFFFFFFFFFFFFFFFFFFFFFFFFFFFFFFFFFFFF AND DUP2 MSTORE POP POP SWAP1 POP CALLER DUP2 PUSH1 0xA0 ADD SWAP1 PUSH20 0xFFFFFFFFFFFFFFFFFFFFFFFFFFFFFFFFFFFFFFFF AND SWAP1 DUP2 PUSH20 0xFFFFFFFFFFFFFFFFFFFFFFFFFFFFFFFFFFFFFFFF AND DUP2 MSTORE POP POP DUP1 PUSH1 0x80 ADD MLOAD PUSH20 0xFFFFFFFFFFFFFFFFFFFFFFFFFFFFFFFFFFFFFFFF AND PUSH2 0x8FC DUP3 PUSH1 0x40 ADD MLOAD SWAP1 DUP2 ISZERO MUL SWAP1 PUSH1 0x40 MLOAD PUSH1 0x0 PUSH1 0x40 MLOAD DUP1 DUP4 SUB DUP2 DUP6 DUP9 DUP9 CALL SWAP4 POP POP POP POP ISZERO DUP1 ISZERO PUSH2 0xCED JUMPI RETURNDATASIZE PUSH1 0x0 DUP1 RETURNDATACOPY RETURNDATASIZE PUSH1 0x0 REVERT JUMPDEST POP PUSH1 0x1 DUP2 PUSH1 0x60 ADD SWAP1 PUSH1 0x3 DUP2 GT ISZERO PUSH2 0xD00 JUMPI INVALID JUMPDEST SWAP1 DUP2 PUSH1 0x3 DUP2 GT ISZERO PUSH2 0xD0D JUMPI INVALID JUMPDEST DUP2 MSTORE POP POP PUSH32 0xE64CA8C671E48636F85F3008C1DD538E36BFA74FB6F2790B56B72FCC33B879EF DUP6 PUSH1 0x40 MLOAD DUP1 DUP3 DUP2 MSTORE PUSH1 0x20 ADD SWAP2 POP POP PUSH1 0x40 MLOAD DUP1 SWAP2 SUB SWAP1 LOG1 POP PUSH1 0x0 PUSH1 0x2 PUSH1 0x0 DUP4 DUP2 MSTORE PUSH1 0x20 ADD SWAP1 DUP2 MSTORE PUSH1 0x20 ADD PUSH1 0x0 KECCAK256 PUSH1 0x2 ADD SLOAD SWAP1 POP PUSH1 0x0 DUP2 CALLVALUE SUB SWAP1 POP PUSH1 0x2 PUSH1 0x0 DUP5 DUP2 MSTORE PUSH1 0x20 ADD SWAP1 DUP2 MSTORE PUSH1 0x20 ADD PUSH1 0x0 KECCAK256 PUSH1 0x4 ADD PUSH1 0x0 SWAP1 SLOAD SWAP1 PUSH2 0x100 EXP SWAP1 DIV PUSH20 0xFFFFFFFFFFFFFFFFFFFFFFFFFFFFFFFFFFFFFFFF AND PUSH20 0xFFFFFFFFFFFFFFFFFFFFFFFFFFFFFFFFFFFFFFFF AND PUSH2 0x8FC DUP3 SWAP1 DUP2 ISZERO MUL SWAP1 PUSH1 0x40 MLOAD PUSH1 0x0 PUSH1 0x40 MLOAD DUP1 DUP4 SUB DUP2 DUP6 DUP9 DUP9 CALL SWAP4 POP POP POP POP ISZERO DUP1 ISZERO PUSH2 0xDE7 JUMPI RETURNDATASIZE PUSH1 0x0 DUP1 RETURNDATACOPY RETURNDATASIZE PUSH1 0x0 REVERT JUMPDEST POP POP POP POP POP POP POP JUMP JUMPDEST DUP1 PUSH1 0x1 PUSH1 0x3 DUP2 GT ISZERO PUSH2 0xDFE JUMPI INVALID JUMPDEST PUSH1 0x2 PUSH1 0x0 DUP4 DUP2 MSTORE PUSH1 0x20 ADD SWAP1 DUP2 MSTORE PUSH1 0x20 ADD PUSH1 0x0 KECCAK256 PUSH1 0x3 ADD PUSH1 0x0 SWAP1 SLOAD SWAP1 PUSH2 0x100 EXP SWAP1 DIV PUSH1 0xFF AND PUSH1 0x3 DUP2 GT ISZERO PUSH2 0xE2D JUMPI INVALID JUMPDEST EQ PUSH2 0xEA0 JUMPI PUSH1 0x40 MLOAD PUSH32 0x8C379A000000000000000000000000000000000000000000000000000000000 DUP2 MSTORE PUSH1 0x4 ADD DUP1 DUP1 PUSH1 0x20 ADD DUP3 DUP2 SUB DUP3 MSTORE PUSH1 0x9 DUP2 MSTORE PUSH1 0x20 ADD DUP1 PUSH32 0x4E6F7420736F6C64200000000000000000000000000000000000000000000000 DUP2 MSTORE POP PUSH1 0x20 ADD SWAP2 POP POP PUSH1 0x40 MLOAD DUP1 SWAP2 SUB SWAP1 REVERT JUMPDEST PUSH1 0x2 PUSH1 0x0 DUP4 DUP2 MSTORE PUSH1 0x20 ADD SWAP1 DUP2 MSTORE PUSH1 0x20 ADD PUSH1 0x0 KECCAK256 PUSH1 0x3 ADD PUSH1 0x1 SWAP1 SLOAD SWAP1 PUSH2 0x100 EXP SWAP1 DIV PUSH20 0xFFFFFFFFFFFFFFFFFFFFFFFFFFFFFFFFFFFFFFFF AND DUP1 PUSH20 0xFFFFFFFFFFFFFFFFFFFFFFFFFFFFFFFFFFFFFFFF AND CALLER PUSH20 0xFFFFFFFFFFFFFFFFFFFFFFFFFFFFFFFFFFFFFFFF AND EQ PUSH2 0xF78 JUMPI PUSH1 0x40 MLOAD PUSH32 0x8C379A000000000000000000000000000000000000000000000000000000000 DUP2 MSTORE PUSH1 0x4 ADD DUP1 DUP1 PUSH1 0x20 ADD DUP3 DUP2 SUB DUP3 MSTORE PUSH1 0x13 DUP2 MSTORE PUSH1 0x20 ADD DUP1 PUSH32 0x63616C6C6572206E6F7420766572696669656400000000000000000000000000 DUP2 MSTORE POP PUSH1 0x20 ADD SWAP2 POP POP PUSH1 0x40 MLOAD DUP1 SWAP2 SUB SWAP1 REVERT JUMPDEST PUSH1 0x2 DUP1 PUSH1 0x0 DUP6 DUP2 MSTORE PUSH1 0x20 ADD SWAP1 DUP2 MSTORE PUSH1 0x20 ADD PUSH1 0x0 KECCAK256 PUSH1 0x3 ADD PUSH1 0x0 PUSH2 0x100 EXP DUP2 SLOAD DUP2 PUSH1 0xFF MUL NOT AND SWAP1 DUP4 PUSH1 0x3 DUP2 GT ISZERO PUSH2 0xFAA JUMPI INVALID JUMPDEST MUL OR SWAP1 SSTORE POP PUSH32 0xEAF695929FEC8154F0EAFE7248C0E16855EB9AD09E623BE92F669E544D53E856 DUP4 PUSH1 0x40 MLOAD DUP1 DUP3 DUP2 MSTORE PUSH1 0x20 ADD SWAP2 POP POP PUSH1 0x40 MLOAD DUP1 SWAP2 SUB SWAP1 LOG1 POP POP POP JUMP JUMPDEST DUP3 DUP1 SLOAD PUSH1 0x1 DUP2 PUSH1 0x1 AND ISZERO PUSH2 0x100 MUL SUB AND PUSH1 0x2 SWAP1 DIV SWAP1 PUSH1 0x0 MSTORE PUSH1 0x20 PUSH1 0x0 KECCAK256 SWAP1 PUSH1 0x1F ADD PUSH1 0x20 SWAP1 DIV DUP2 ADD SWAP3 DUP3 PUSH1 0x1F LT PUSH2 0x102C JUMPI DUP1 MLOAD PUSH1 0xFF NOT AND DUP4 DUP1 ADD OR DUP6 SSTORE PUSH2 0x105A JUMP JUMPDEST DUP3 DUP1 ADD PUSH1 0x1 ADD DUP6 SSTORE DUP3 ISZERO PUSH2 0x105A JUMPI SWAP2 DUP3 ADD JUMPDEST DUP3 DUP2 GT ISZERO PUSH2 0x1059 JUMPI DUP3 MLOAD DUP3 SSTORE SWAP2 PUSH1 0x20 ADD SWAP2 SWAP1 PUSH1 0x1 ADD SWAP1 PUSH2 0x103E JUMP JUMPDEST JUMPDEST POP SWAP1 POP PUSH2 0x1067 SWAP2 SWAP1 PUSH2 0x10D8 JUMP JUMPDEST POP SWAP1 JUMP JUMPDEST PUSH1 0x40 MLOAD DUP1 PUSH1 0xC0 ADD PUSH1 0x40 MSTORE DUP1 PUSH1 0x60 DUP2 MSTORE PUSH1 0x20 ADD PUSH1 0x0 DUP2 MSTORE PUSH1 0x20 ADD PUSH1 0x0 DUP2 MSTORE PUSH1 0x20 ADD PUSH1 0x0 PUSH1 0x3 DUP2 GT ISZERO PUSH2 0x1098 JUMPI INVALID JUMPDEST DUP2 MSTORE PUSH1 0x20 ADD PUSH1 0x0 PUSH20 0xFFFFFFFFFFFFFFFFFFFFFFFFFFFFFFFFFFFFFFFF AND DUP2 MSTORE PUSH1 0x20 ADD PUSH1 0x0 PUSH20 0xFFFFFFFFFFFFFFFFFFFFFFFFFFFFFFFFFFFFFFFF AND DUP2 MSTORE POP SWAP1 JUMP JUMPDEST PUSH2 0x10FA SWAP2 SWAP1 JUMPDEST DUP1 DUP3 GT ISZERO PUSH2 0x10F6 JUMPI PUSH1 0x0 DUP2 PUSH1 0x0 SWAP1 SSTORE POP PUSH1 0x1 ADD PUSH2 0x10DE JUMP JUMPDEST POP SWAP1 JUMP JUMPDEST SWAP1 JUMP INVALID LOG2 PUSH6 0x627A7A723158 KECCAK256 PUSH30 0x3E017B621824FD28D56332AD94E7060BB7620A3C9DB8407A77C56CB7AF32 DIV PUSH5 0x736F6C6343 STOP SDIV GT STOP ORIGIN "
				},
				"gasEstimates": {
					"creation": {
						"codeDepositCost": "880400",
						"executionCost": "26796",
						"totalCost": "907196"
					},
					"external": {
						"addItem(string,uint256)": "infinite",
						"buyItem(uint256)": "infinite",
						"fetchItem(uint256)": "infinite",
						"items(uint256)": "infinite",
						"owner()": "1076",
						"receiveItem(uint256)": "273",
						"shipItem(uint256)": "24341"
					}
				},
				"methodIdentifiers": {
					"addItem(string,uint256)": "62d6bbdf",
					"buyItem(uint256)": "e7fb74c7",
					"fetchItem(uint256)": "ad4b9cfb",
					"items(uint256)": "bfb231d2",
					"owner()": "8da5cb5b",
					"receiveItem(uint256)": "a26be999",
					"shipItem(uint256)": "f61c899a"
				}
			},
			"storageLayout": {
				"storage": [
					{
						"astId": 3,
						"contract": "to-be-completed/SupplyChain.sol:SupplyChain",
						"label": "owner",
						"offset": 0,
						"slot": "0",
						"type": "t_address"
					},
					{
						"astId": 5,
						"contract": "to-be-completed/SupplyChain.sol:SupplyChain",
						"label": "skuCount",
						"offset": 0,
						"slot": "1",
						"type": "t_uint256"
					},
					{
						"astId": 27,
						"contract": "to-be-completed/SupplyChain.sol:SupplyChain",
						"label": "items",
						"offset": 0,
						"slot": "2",
						"type": "t_mapping(t_uint256,t_struct(Item)23_storage)"
					}
				],
				"types": {
					"t_address": {
						"encoding": "inplace",
						"label": "address",
						"numberOfBytes": "20"
					},
					"t_address_payable": {
						"encoding": "inplace",
						"label": "address payable",
						"numberOfBytes": "20"
					},
					"t_enum(State)10": {
						"encoding": "inplace",
						"label": "enum SupplyChain.State",
						"numberOfBytes": "1"
					},
					"t_mapping(t_uint256,t_struct(Item)23_storage)": {
						"encoding": "mapping",
						"key": "t_uint256",
						"label": "mapping(uint256 => struct SupplyChain.Item)",
						"numberOfBytes": "32",
						"value": "t_struct(Item)23_storage"
					},
					"t_string_storage": {
						"encoding": "bytes",
						"label": "string",
						"numberOfBytes": "32"
					},
					"t_struct(Item)23_storage": {
						"encoding": "inplace",
						"label": "struct SupplyChain.Item",
						"members": [
							{
								"astId": 12,
								"contract": "to-be-completed/SupplyChain.sol:SupplyChain",
								"label": "name",
								"offset": 0,
								"slot": "0",
								"type": "t_string_storage"
							},
							{
								"astId": 14,
								"contract": "to-be-completed/SupplyChain.sol:SupplyChain",
								"label": "sku",
								"offset": 0,
								"slot": "1",
								"type": "t_uint256"
							},
							{
								"astId": 16,
								"contract": "to-be-completed/SupplyChain.sol:SupplyChain",
								"label": "price",
								"offset": 0,
								"slot": "2",
								"type": "t_uint256"
							},
							{
								"astId": 18,
								"contract": "to-be-completed/SupplyChain.sol:SupplyChain",
								"label": "state",
								"offset": 0,
								"slot": "3",
								"type": "t_enum(State)10"
							},
							{
								"astId": 20,
								"contract": "to-be-completed/SupplyChain.sol:SupplyChain",
								"label": "seller",
								"offset": 1,
								"slot": "3",
								"type": "t_address_payable"
							},
							{
								"astId": 22,
								"contract": "to-be-completed/SupplyChain.sol:SupplyChain",
								"label": "buyer",
								"offset": 0,
								"slot": "4",
								"type": "t_address_payable"
							}
						],
						"numberOfBytes": "160"
					},
					"t_uint256": {
						"encoding": "inplace",
						"label": "uint256",
						"numberOfBytes": "32"
					}
				}
			},
			"userdoc": {
				"methods": {}
			}
		}
	}
}